{
  "contractName": "MimboCar",
  "abi": [
    {
      "inputs": [
        {
          "internalType": "address",
          "name": "_buyBackWallet",
          "type": "address"
        },
        {
          "internalType": "uint256",
          "name": "_price",
          "type": "uint256"
        },
        {
          "internalType": "uint256",
          "name": "_fee",
          "type": "uint256"
        }
      ],
      "stateMutability": "nonpayable",
      "type": "constructor"
    },
    {
      "anonymous": false,
      "inputs": [
        {
          "indexed": true,
          "internalType": "address",
          "name": "from",
          "type": "address"
        },
        {
          "indexed": false,
          "internalType": "uint256",
          "name": "carAmount",
          "type": "uint256"
        },
        {
          "indexed": false,
          "internalType": "uint256",
          "name": "price",
          "type": "uint256"
        },
        {
          "indexed": false,
          "internalType": "string",
          "name": "recommendCode",
          "type": "string"
        }
      ],
      "name": "Buy",
      "type": "event"
    },
    {
      "anonymous": false,
      "inputs": [
        {
          "indexed": true,
          "internalType": "address",
          "name": "previousOwner",
          "type": "address"
        },
        {
          "indexed": true,
          "internalType": "address",
          "name": "newOwner",
          "type": "address"
        }
      ],
      "name": "OwnershipTransferred",
      "type": "event"
    },
    {
      "anonymous": false,
      "inputs": [
        {
          "indexed": false,
          "internalType": "address",
          "name": "account",
          "type": "address"
        }
      ],
      "name": "Paused",
      "type": "event"
    },
    {
      "anonymous": false,
      "inputs": [
        {
          "indexed": false,
          "internalType": "address",
          "name": "account",
          "type": "address"
        }
      ],
      "name": "Unpaused",
      "type": "event"
    },
    {
      "inputs": [],
      "name": "buyBackWallet_",
      "outputs": [
        {
          "internalType": "address payable",
          "name": "",
          "type": "address"
        }
      ],
      "stateMutability": "view",
      "type": "function",
      "constant": true
    },
    {
      "inputs": [
        {
          "internalType": "string",
          "name": "",
          "type": "string"
        }
      ],
      "name": "codeStats_",
      "outputs": [
        {
          "internalType": "address",
          "name": "codeOwner",
          "type": "address"
        },
        {
          "internalType": "uint256",
          "name": "buyCount",
          "type": "uint256"
        },
        {
          "internalType": "uint256",
          "name": "carAmount",
          "type": "uint256"
        },
        {
          "internalType": "uint256",
          "name": "totalFee",
          "type": "uint256"
        }
      ],
      "stateMutability": "view",
      "type": "function",
      "constant": true
    },
    {
      "inputs": [],
      "name": "fee_",
      "outputs": [
        {
          "internalType": "uint256",
          "name": "",
          "type": "uint256"
        }
      ],
      "stateMutability": "view",
      "type": "function",
      "constant": true
    },
    {
      "inputs": [],
      "name": "owner",
      "outputs": [
        {
          "internalType": "address",
          "name": "",
          "type": "address"
        }
      ],
      "stateMutability": "view",
      "type": "function",
      "constant": true
    },
    {
      "inputs": [],
      "name": "paused",
      "outputs": [
        {
          "internalType": "bool",
          "name": "",
          "type": "bool"
        }
      ],
      "stateMutability": "view",
      "type": "function",
      "constant": true
    },
    {
      "inputs": [],
      "name": "price_",
      "outputs": [
        {
          "internalType": "uint256",
          "name": "",
          "type": "uint256"
        }
      ],
      "stateMutability": "view",
      "type": "function",
      "constant": true
    },
    {
      "inputs": [
        {
          "internalType": "string",
          "name": "",
          "type": "string"
        }
      ],
      "name": "recommendCodes_",
      "outputs": [
        {
          "internalType": "address",
          "name": "",
          "type": "address"
        }
      ],
      "stateMutability": "view",
      "type": "function",
      "constant": true
    },
    {
      "inputs": [],
      "name": "renounceOwnership",
      "outputs": [],
      "stateMutability": "nonpayable",
      "type": "function"
    },
    {
      "inputs": [
        {
          "internalType": "address",
          "name": "newOwner",
          "type": "address"
        }
      ],
      "name": "transferOwnership",
      "outputs": [],
      "stateMutability": "nonpayable",
      "type": "function"
    },
    {
      "inputs": [
        {
          "internalType": "address",
          "name": "",
          "type": "address"
        }
      ],
      "name": "walletCodes_",
      "outputs": [
        {
          "internalType": "string",
          "name": "",
          "type": "string"
        }
      ],
      "stateMutability": "view",
      "type": "function",
      "constant": true
    },
    {
      "inputs": [],
      "name": "pause",
      "outputs": [],
      "stateMutability": "nonpayable",
      "type": "function"
    },
    {
      "inputs": [],
      "name": "unpause",
      "outputs": [],
      "stateMutability": "nonpayable",
      "type": "function"
    },
    {
      "inputs": [
        {
          "internalType": "address",
          "name": "_buyBackWallet",
          "type": "address"
        }
      ],
      "name": "setBuyBackWallet",
      "outputs": [],
      "stateMutability": "nonpayable",
      "type": "function"
    },
    {
      "inputs": [
        {
          "internalType": "uint256",
          "name": "_price",
          "type": "uint256"
        }
      ],
      "name": "setCarPrice",
      "outputs": [],
      "stateMutability": "nonpayable",
      "type": "function"
    },
    {
      "inputs": [
        {
          "internalType": "uint256",
          "name": "_fee",
          "type": "uint256"
        }
      ],
      "name": "setFee",
      "outputs": [],
      "stateMutability": "nonpayable",
      "type": "function"
    },
    {
      "inputs": [
        {
          "internalType": "string[]",
          "name": "_recommendCode",
          "type": "string[]"
        },
        {
          "internalType": "address[]",
          "name": "_codeOwner",
          "type": "address[]"
        }
      ],
      "name": "setRecommendCode",
      "outputs": [],
      "stateMutability": "nonpayable",
      "type": "function"
    },
    {
      "inputs": [
        {
          "internalType": "string",
          "name": "_recommendCode",
          "type": "string"
        }
      ],
      "name": "buy",
      "outputs": [],
      "stateMutability": "payable",
      "type": "function",
      "payable": true
    },
    {
      "inputs": [
        {
          "internalType": "address",
          "name": "to",
          "type": "address"
        }
      ],
      "name": "withdrawEth",
      "outputs": [],
      "stateMutability": "nonpayable",
      "type": "function"
    }
  ],
  "bytecode": "0x60806040523480156200001157600080fd5b50604051620025773803806200257783398181016040528101906200003791906200023b565b60008060006101000a81548160ff0219169083151502179055506200007162000065620000c960201b60201c565b620000d160201b60201c565b82600160006101000a81548173ffffffffffffffffffffffffffffffffffffffff021916908373ffffffffffffffffffffffffffffffffffffffff160217905550816002819055508060068190555050505062000297565b600033905090565b60008060019054906101000a900473ffffffffffffffffffffffffffffffffffffffff16905081600060016101000a81548173ffffffffffffffffffffffffffffffffffffffff021916908373ffffffffffffffffffffffffffffffffffffffff1602179055508173ffffffffffffffffffffffffffffffffffffffff168173ffffffffffffffffffffffffffffffffffffffff167f8be0079c531659141344cd1fd0a4f28419497f9722a3daafe3b4186f6b6457e060405160405180910390a35050565b600080fd5b600073ffffffffffffffffffffffffffffffffffffffff82169050919050565b6000620001c8826200019b565b9050919050565b620001da81620001bb565b8114620001e657600080fd5b50565b600081519050620001fa81620001cf565b92915050565b6000819050919050565b620002158162000200565b81146200022157600080fd5b50565b60008151905062000235816200020a565b92915050565b60008060006060848603121562000257576200025662000196565b5b60006200026786828701620001e9565b93505060206200027a8682870162000224565b92505060406200028d8682870162000224565b9150509250925092565b6122d080620002a76000396000f3fe6080604052600436106101095760003560e01c80638da5cb5b11610095578063ccfdeb0a11610064578063ccfdeb0a14610325578063ce40b03f14610350578063dd5aaf551461037b578063ebd954aa146103a4578063f2fde38b146103cd57610109565b80638da5cb5b14610269578063a4640b8214610294578063ca015d35146102bd578063ccfb0f99146102e857610109565b80635c975abb116100dc5780635c975abb146101aa57806369fe0e2d146101d5578063715018a6146101fe5780638456cb591461021557806384c9cde71461022c57610109565b806325e160631461010e5780633a76eec5146101375780633f4ba83a14610177578063492cc7691461018e575b600080fd5b34801561011a57600080fd5b5061013560048036038101906101309190611261565b6103f6565b005b34801561014357600080fd5b5061015e600480360381019061015991906113d4565b6104bd565b60405161016e9493929190611445565b60405180910390f35b34801561018357600080fd5b5061018c610523565b005b6101a860048036038101906101a391906113d4565b610535565b005b3480156101b657600080fd5b506101bf610a40565b6040516101cc91906114a5565b60405180910390f35b3480156101e157600080fd5b506101fc60048036038101906101f791906114ec565b610a56565b005b34801561020a57600080fd5b50610213610a68565b005b34801561022157600080fd5b5061022a610a7c565b005b34801561023857600080fd5b50610253600480360381019061024e9190611261565b610a8e565b6040516102609190611598565b60405180910390f35b34801561027557600080fd5b5061027e610b2e565b60405161028b91906115ba565b60405180910390f35b3480156102a057600080fd5b506102bb60048036038101906102b69190611261565b610b57565b005b3480156102c957600080fd5b506102d2610c12565b6040516102df91906115f6565b60405180910390f35b3480156102f457600080fd5b5061030f600480360381019061030a91906113d4565b610c38565b60405161031c91906115ba565b60405180910390f35b34801561033157600080fd5b5061033a610c81565b6040516103479190611611565b60405180910390f35b34801561035c57600080fd5b50610365610c87565b6040516103729190611611565b60405180910390f35b34801561038757600080fd5b506103a2600480360381019061039d91906114ec565b610c8d565b005b3480156103b057600080fd5b506103cb60048036038101906103c691906117d5565b610ce2565b005b3480156103d957600080fd5b506103f460048036038101906103ef9190611261565b610eca565b005b6103fe610f4d565b600073ffffffffffffffffffffffffffffffffffffffff168173ffffffffffffffffffffffffffffffffffffffff160361046d576040517f08c379a0000000000000000000000000000000000000000000000000000000008152600401610464906118bf565b60405180910390fd5b60008190508073ffffffffffffffffffffffffffffffffffffffff166108fc479081150290604051600060405180830381858888f193505050501580156104b8573d6000803e3d6000fd5b505050565b6005818051602081018201805184825260208301602085012081835280955050505050506000915090508060000160009054906101000a900473ffffffffffffffffffffffffffffffffffffffff16908060010154908060020154908060030154905084565b61052b610f4d565b610533610fcb565b565b61053d61102d565b60008190506000600382604051610554919061191b565b908152602001604051809103902060009054906101000a900473ffffffffffffffffffffffffffffffffffffffff16905060008251905080600010156106e457600073ffffffffffffffffffffffffffffffffffffffff168273ffffffffffffffffffffffffffffffffffffffff1603610603576040517f08c379a00000000000000000000000000000000000000000000000000000000081526004016105fa9061197e565b60405180910390fd5b600460003373ffffffffffffffffffffffffffffffffffffffff1673ffffffffffffffffffffffffffffffffffffffff168152602001908152602001600020805461064d906119cd565b905060001015610692576040517f08c379a000000000000000000000000000000000000000000000000000000000815260040161068990611a70565b60405180910390fd5b82600460003373ffffffffffffffffffffffffffffffffffffffff1673ffffffffffffffffffffffffffffffffffffffff16815260200190815260200160002090816106de9190611c3c565b506107f0565b600460003373ffffffffffffffffffffffffffffffffffffffff1673ffffffffffffffffffffffffffffffffffffffff168152602001908152602001600020805461072e906119cd565b80601f016020809104026020016040519081016040528092919081815260200182805461075a906119cd565b80156107a75780601f1061077c576101008083540402835291602001916107a7565b820191906000526020600020905b81548152906001019060200180831161078a57829003601f168201915b505050505092506003836040516107be919061191b565b908152602001604051809103902060009054906101000a900473ffffffffffffffffffffffffffffffffffffffff1691505b6000600254346108009190611d6c565b905034600254826108119190611d9d565b14610851576040517f08c379a000000000000000000000000000000000000000000000000000000000815260040161084890611e2b565b60405180910390fd5b60006002346108609190611d6c565b9050600160009054906101000a900473ffffffffffffffffffffffffffffffffffffffff1673ffffffffffffffffffffffffffffffffffffffff166108fc829081150290604051600060405180830381858888f193505050501580156108ca573d6000803e3d6000fd5b50600073ffffffffffffffffffffffffffffffffffffffff168473ffffffffffffffffffffffffffffffffffffffff16146109e45760006103e8600654346109129190611d9d565b61091c9190611d6c565b9050806000101561096f578473ffffffffffffffffffffffffffffffffffffffff166108fc829081150290604051600060405180830381858888f1935050505015801561096d573d6000803e3d6000fd5b505b6000600587604051610981919061191b565b908152602001604051809103902090508060010160008154809291906109a690611e4b565b9190505550838160020160008282546109bf9190611e93565b92505081905550818160030160008282546109da9190611e93565b9250508190555050505b3373ffffffffffffffffffffffffffffffffffffffff167f149b84f345a2529777fc0c790a7d9767c1069d6621069d801ec05488e8779dbd8360025488604051610a3093929190611ec7565b60405180910390a2505050505050565b60008060009054906101000a900460ff16905090565b610a5e610f4d565b8060068190555050565b610a70610f4d565b610a7a6000611077565b565b610a84610f4d565b610a8c61113c565b565b60046020528060005260406000206000915090508054610aad906119cd565b80601f0160208091040260200160405190810160405280929190818152602001828054610ad9906119cd565b8015610b265780601f10610afb57610100808354040283529160200191610b26565b820191906000526020600020905b815481529060010190602001808311610b0957829003601f168201915b505050505081565b60008060019054906101000a900473ffffffffffffffffffffffffffffffffffffffff16905090565b610b5f610f4d565b600073ffffffffffffffffffffffffffffffffffffffff168173ffffffffffffffffffffffffffffffffffffffff1603610bce576040517f08c379a0000000000000000000000000000000000000000000000000000000008152600401610bc590611f51565b60405180910390fd5b80600160006101000a81548173ffffffffffffffffffffffffffffffffffffffff021916908373ffffffffffffffffffffffffffffffffffffffff16021790555050565b600160009054906101000a900473ffffffffffffffffffffffffffffffffffffffff1681565b6003818051602081018201805184825260208301602085012081835280955050505050506000915054906101000a900473ffffffffffffffffffffffffffffffffffffffff1681565b60065481565b60025481565b610c95610f4d565b80600010610cd8576040517f08c379a0000000000000000000000000000000000000000000000000000000008152600401610ccf90611fe3565b60405180910390fd5b8060028190555050565b610cea610f4d565b8051825114610d2e576040517f08c379a0000000000000000000000000000000000000000000000000000000008152600401610d2590612075565b60405180910390fd5b60005b8251811015610ec557818181518110610d4d57610d4c612095565b5b60200260200101516003848381518110610d6a57610d69612095565b5b6020026020010151604051610d7f919061191b565b908152602001604051809103902060006101000a81548173ffffffffffffffffffffffffffffffffffffffff021916908373ffffffffffffffffffffffffffffffffffffffff160217905550600073ffffffffffffffffffffffffffffffffffffffff16828281518110610df657610df5612095565b5b602002602001015173ffffffffffffffffffffffffffffffffffffffff1614610eb45760006005848381518110610e3057610e2f612095565b5b6020026020010151604051610e45919061191b565b90815260200160405180910390209050828281518110610e6857610e67612095565b5b60200260200101518160000160006101000a81548173ffffffffffffffffffffffffffffffffffffffff021916908373ffffffffffffffffffffffffffffffffffffffff160217905550505b80610ebe90611e4b565b9050610d31565b505050565b610ed2610f4d565b600073ffffffffffffffffffffffffffffffffffffffff168173ffffffffffffffffffffffffffffffffffffffff1603610f41576040517f08c379a0000000000000000000000000000000000000000000000000000000008152600401610f3890612136565b60405180910390fd5b610f4a81611077565b50565b610f5561119e565b73ffffffffffffffffffffffffffffffffffffffff16610f73610b2e565b73ffffffffffffffffffffffffffffffffffffffff1614610fc9576040517f08c379a0000000000000000000000000000000000000000000000000000000008152600401610fc0906121a2565b60405180910390fd5b565b610fd36111a6565b60008060006101000a81548160ff0219169083151502179055507f5db9ee0a495bf2e6ff9c91a7834c1ba4fdd244a5e8aa4e537bd38aeae4b073aa61101661119e565b60405161102391906115ba565b60405180910390a1565b611035610a40565b15611075576040517f08c379a000000000000000000000000000000000000000000000000000000000815260040161106c9061220e565b60405180910390fd5b565b60008060019054906101000a900473ffffffffffffffffffffffffffffffffffffffff16905081600060016101000a81548173ffffffffffffffffffffffffffffffffffffffff021916908373ffffffffffffffffffffffffffffffffffffffff1602179055508173ffffffffffffffffffffffffffffffffffffffff168173ffffffffffffffffffffffffffffffffffffffff167f8be0079c531659141344cd1fd0a4f28419497f9722a3daafe3b4186f6b6457e060405160405180910390a35050565b61114461102d565b60016000806101000a81548160ff0219169083151502179055507f62e78cea01bee320cd4e420270b5ea74000d11b0c9f74754ebdbfc544b05a25861118761119e565b60405161119491906115ba565b60405180910390a1565b600033905090565b6111ae610a40565b6111ed576040517f08c379a00000000000000000000000000000000000000000000000000000000081526004016111e49061227a565b60405180910390fd5b565b6000604051905090565b600080fd5b600080fd5b600073ffffffffffffffffffffffffffffffffffffffff82169050919050565b600061122e82611203565b9050919050565b61123e81611223565b811461124957600080fd5b50565b60008135905061125b81611235565b92915050565b600060208284031215611277576112766111f9565b5b60006112858482850161124c565b91505092915050565b600080fd5b600080fd5b6000601f19601f8301169050919050565b7f4e487b7100000000000000000000000000000000000000000000000000000000600052604160045260246000fd5b6112e182611298565b810181811067ffffffffffffffff82111715611300576112ff6112a9565b5b80604052505050565b60006113136111ef565b905061131f82826112d8565b919050565b600067ffffffffffffffff82111561133f5761133e6112a9565b5b61134882611298565b9050602081019050919050565b82818337600083830152505050565b600061137761137284611324565b611309565b90508281526020810184848401111561139357611392611293565b5b61139e848285611355565b509392505050565b600082601f8301126113bb576113ba61128e565b5b81356113cb848260208601611364565b91505092915050565b6000602082840312156113ea576113e96111f9565b5b600082013567ffffffffffffffff811115611408576114076111fe565b5b611414848285016113a6565b91505092915050565b61142681611223565b82525050565b6000819050919050565b61143f8161142c565b82525050565b600060808201905061145a600083018761141d565b6114676020830186611436565b6114746040830185611436565b6114816060830184611436565b95945050505050565b60008115159050919050565b61149f8161148a565b82525050565b60006020820190506114ba6000830184611496565b92915050565b6114c98161142c565b81146114d457600080fd5b50565b6000813590506114e6816114c0565b92915050565b600060208284031215611502576115016111f9565b5b6000611510848285016114d7565b91505092915050565b600081519050919050565b600082825260208201905092915050565b60005b83811015611553578082015181840152602081019050611538565b60008484015250505050565b600061156a82611519565b6115748185611524565b9350611584818560208601611535565b61158d81611298565b840191505092915050565b600060208201905081810360008301526115b2818461155f565b905092915050565b60006020820190506115cf600083018461141d565b92915050565b60006115e082611203565b9050919050565b6115f0816115d5565b82525050565b600060208201905061160b60008301846115e7565b92915050565b60006020820190506116266000830184611436565b92915050565b600067ffffffffffffffff821115611647576116466112a9565b5b602082029050602081019050919050565b600080fd5b600061167061166b8461162c565b611309565b9050808382526020820190506020840283018581111561169357611692611658565b5b835b818110156116da57803567ffffffffffffffff8111156116b8576116b761128e565b5b8086016116c589826113a6565b85526020850194505050602081019050611695565b5050509392505050565b600082601f8301126116f9576116f861128e565b5b813561170984826020860161165d565b91505092915050565b600067ffffffffffffffff82111561172d5761172c6112a9565b5b602082029050602081019050919050565b600061175161174c84611712565b611309565b9050808382526020820190506020840283018581111561177457611773611658565b5b835b8181101561179d5780611789888261124c565b845260208401935050602081019050611776565b5050509392505050565b600082601f8301126117bc576117bb61128e565b5b81356117cc84826020860161173e565b91505092915050565b600080604083850312156117ec576117eb6111f9565b5b600083013567ffffffffffffffff81111561180a576118096111fe565b5b611816858286016116e4565b925050602083013567ffffffffffffffff811115611837576118366111fe565b5b611843858286016117a7565b9150509250929050565b7f5b4d696d626f4361725d5b77697468647261774574685d3a207472616e73666560008201527f7220746f20746865207a65726f20616464726573730000000000000000000000602082015250565b60006118a9603583611524565b91506118b48261184d565b604082019050919050565b600060208201905081810360008301526118d88161189c565b9050919050565b600081905092915050565b60006118f582611519565b6118ff81856118df565b935061190f818560208601611535565b80840191505092915050565b600061192782846118ea565b915081905092915050565b7f6275793a20496e76616c6964207265636f6d6d656e6420636f64650000000000600082015250565b6000611968601b83611524565b915061197382611932565b602082019050919050565b600060208201905081810360008301526119978161195b565b9050919050565b7f4e487b7100000000000000000000000000000000000000000000000000000000600052602260045260246000fd5b600060028204905060018216806119e557607f821691505b6020821081036119f8576119f761199e565b5b50919050565b7f6275793a20616c72656164792072656769737465726564207265636f6d6d656e60008201527f6420636f64650000000000000000000000000000000000000000000000000000602082015250565b6000611a5a602683611524565b9150611a65826119fe565b604082019050919050565b60006020820190508181036000830152611a8981611a4d565b9050919050565b60008190508160005260206000209050919050565b60006020601f8301049050919050565b600082821b905092915050565b600060088302611af27fffffffffffffffffffffffffffffffffffffffffffffffffffffffffffffffff82611ab5565b611afc8683611ab5565b95508019841693508086168417925050509392505050565b6000819050919050565b6000611b39611b34611b2f8461142c565b611b14565b61142c565b9050919050565b6000819050919050565b611b5383611b1e565b611b67611b5f82611b40565b848454611ac2565b825550505050565b600090565b611b7c611b6f565b611b87818484611b4a565b505050565b5b81811015611bab57611ba0600082611b74565b600181019050611b8d565b5050565b601f821115611bf057611bc181611a90565b611bca84611aa5565b81016020851015611bd9578190505b611bed611be585611aa5565b830182611b8c565b50505b505050565b600082821c905092915050565b6000611c1360001984600802611bf5565b1980831691505092915050565b6000611c2c8383611c02565b9150826002028217905092915050565b611c4582611519565b67ffffffffffffffff811115611c5e57611c5d6112a9565b5b611c6882546119cd565b611c73828285611baf565b600060209050601f831160018114611ca65760008415611c94578287015190505b611c9e8582611c20565b865550611d06565b601f198416611cb486611a90565b60005b82811015611cdc57848901518255600182019150602085019450602081019050611cb7565b86831015611cf95784890151611cf5601f891682611c02565b8355505b6001600288020188555050505b505050505050565b7f4e487b7100000000000000000000000000000000000000000000000000000000600052601260045260246000fd5b7f4e487b7100000000000000000000000000000000000000000000000000000000600052601160045260246000fd5b6000611d778261142c565b9150611d828361142c565b925082611d9257611d91611d0e565b5b828204905092915050565b6000611da88261142c565b9150611db38361142c565b9250828202611dc18161142c565b91508282048414831517611dd857611dd7611d3d565b5b5092915050565b7f6275793a20696e636f72726563742076616c7565000000000000000000000000600082015250565b6000611e15601483611524565b9150611e2082611ddf565b602082019050919050565b60006020820190508181036000830152611e4481611e08565b9050919050565b6000611e568261142c565b91507fffffffffffffffffffffffffffffffffffffffffffffffffffffffffffffffff8203611e8857611e87611d3d565b5b600182019050919050565b6000611e9e8261142c565b9150611ea98361142c565b9250828201905080821115611ec157611ec0611d3d565b5b92915050565b6000606082019050611edc6000830186611436565b611ee96020830185611436565b8181036040830152611efb818461155f565b9050949350505050565b7f6275794261636b57616c6c6574206973207a65726f2061646472657373000000600082015250565b6000611f3b601d83611524565b9150611f4682611f05565b602082019050919050565b60006020820190508181036000830152611f6a81611f2e565b9050919050565b7f73657443617250726963653a207072696365206d75737420626520677265617460008201527f6572207468616e207a65726f0000000000000000000000000000000000000000602082015250565b6000611fcd602c83611524565b9150611fd882611f71565b604082019050919050565b60006020820190508181036000830152611ffc81611fc0565b9050919050565b7f7365745265636f6d6d656e64436f64653a20636f64657320616e64206f776e6560008201527f727320617265206e6f74206d6174636865640000000000000000000000000000602082015250565b600061205f603283611524565b915061206a82612003565b604082019050919050565b6000602082019050818103600083015261208e81612052565b9050919050565b7f4e487b7100000000000000000000000000000000000000000000000000000000600052603260045260246000fd5b7f4f776e61626c653a206e6577206f776e657220697320746865207a65726f206160008201527f6464726573730000000000000000000000000000000000000000000000000000602082015250565b6000612120602683611524565b915061212b826120c4565b604082019050919050565b6000602082019050818103600083015261214f81612113565b9050919050565b7f4f776e61626c653a2063616c6c6572206973206e6f7420746865206f776e6572600082015250565b600061218c602083611524565b915061219782612156565b602082019050919050565b600060208201905081810360008301526121bb8161217f565b9050919050565b7f5061757361626c653a2070617573656400000000000000000000000000000000600082015250565b60006121f8601083611524565b9150612203826121c2565b602082019050919050565b60006020820190508181036000830152612227816121eb565b9050919050565b7f5061757361626c653a206e6f7420706175736564000000000000000000000000600082015250565b6000612264601483611524565b915061226f8261222e565b602082019050919050565b6000602082019050818103600083015261229381612257565b905091905056fea26469706673582212200e81dbc056db9fd2619e56b28e2afae0acb3dcf8ec36163d88ad0e436e54873664736f6c63430008130033",
  "immutableReferences": {},
  "source": "// SPDX-License-Identifier: MIT\r\npragma solidity ^0.8.14;\r\n\r\nimport \"@openzeppelin/contracts/access/Ownable.sol\";\r\nimport \"@openzeppelin/contracts/security/Pausable.sol\";\r\n\r\ncontract MimboCar is Pausable, Ownable {\r\n    event Buy(address indexed from, uint256 carAmount, uint256 price, string recommendCode);\r\n\r\n    address payable public buyBackWallet_;\r\n    uint256 public price_;\r\n    mapping(string => address) public recommendCodes_;\r\n    mapping(address => string) public walletCodes_;\r\n\r\n    struct CodeStat {\r\n        address codeOwner;\r\n        uint256 buyCount;\r\n        uint256 carAmount;\r\n        uint256 totalFee;\r\n    }\r\n    mapping(string => CodeStat) public codeStats_;\r\n\r\n    uint256 public fee_;\r\n\r\n    constructor(address _buyBackWallet, uint256 _price, uint256 _fee) {\r\n        buyBackWallet_ = payable(_buyBackWallet);\r\n        price_ = _price;\r\n        fee_ = _fee;\r\n    }\r\n\r\n    function pause() public onlyOwner {\r\n        _pause();\r\n    }\r\n\r\n    function unpause() public onlyOwner {\r\n        _unpause();\r\n    }\r\n\r\n    function setBuyBackWallet(address _buyBackWallet) public onlyOwner {\r\n        require(_buyBackWallet != address(0), \"buyBackWallet is zero address\");\r\n        buyBackWallet_ = payable(_buyBackWallet);\r\n    }\r\n\r\n    function setCarPrice(uint256 _price) public onlyOwner {\r\n        require(0 < _price, \"setCarPrice: price must be greater than zero\");\r\n        price_ = _price;\r\n    }\r\n\r\n    function setFee(uint256 _fee) public onlyOwner {\r\n        fee_ = _fee;\r\n    }\r\n\r\n    function setRecommendCode(string[] memory _recommendCode, address[] memory _codeOwner) public onlyOwner {\r\n        require(_recommendCode.length == _codeOwner.length, \"setRecommendCode: codes and owners are not matched\");\r\n        for (uint256 i = 0; i < _recommendCode.length; ++i) {\r\n            recommendCodes_[_recommendCode[i]] = _codeOwner[i];\r\n\r\n            if(_codeOwner[i] != address(0)) {\r\n                CodeStat storage codeStat = codeStats_[_recommendCode[i]];\r\n                codeStat.codeOwner = _codeOwner[i];\r\n            }\r\n        }\r\n    }\r\n\r\n    function buy(string memory _recommendCode) public payable whenNotPaused {\r\n        string memory recommendCode = _recommendCode;\r\n        address payable feeAddress = payable(recommendCodes_[recommendCode]);\r\n        uint256 bytelength = bytes(recommendCode).length;\r\n\r\n        if(0 < bytelength) {\r\n            require(feeAddress != address(0), \"buy: Invalid recommend code\");\r\n            require(0 >= bytes(walletCodes_[msg.sender]).length, \"buy: already registered recommend code\");\r\n            walletCodes_[msg.sender] = recommendCode;\r\n        } else {\r\n            recommendCode = walletCodes_[msg.sender];\r\n            feeAddress = payable(recommendCodes_[recommendCode]);\r\n        }\r\n\r\n        uint256 carAmount = msg.value / price_;\r\n        require(carAmount * price_ == msg.value, \"buy: incorrect value\");\r\n\r\n        uint256 buyBackAmount = msg.value / 2;\r\n        buyBackWallet_.transfer(buyBackAmount);\r\n\r\n        if(feeAddress != address(0)) {\r\n            uint256 feeAmount = (msg.value * fee_) / 1000;\r\n            if(0 < feeAmount) {\r\n                feeAddress.transfer(feeAmount);\r\n            }\r\n\r\n            CodeStat storage codeStat = codeStats_[recommendCode];\r\n            codeStat.buyCount++;\r\n            codeStat.carAmount += carAmount;\r\n            codeStat.totalFee += feeAmount;\r\n        }\r\n\r\n        emit Buy(msg.sender, carAmount, price_, recommendCode);\r\n    }\r\n\r\n    function withdrawEth(address to) public onlyOwner() {\r\n        require(to != address(0), \"[MimboCar][withdrawEth]: transfer to the zero address\");\r\n        address payable receiver = payable(to);\r\n        receiver.transfer(address(this).balance);\r\n    }\r\n}\r\n",
  "sourcePath": "D:\\github\\mimbo_sol\\contracts\\MimboCar.sol",
  "compiler": {
    "name": "solc",
    "version": "0.8.19+commit.7dd6d404.Emscripten.clang"
  },
  "schemaVersion": "3.4.13",
  "updatedAt": "2023-07-24T06:36:27.242Z",
  "networkType": "ethereum",
  "devdoc": {
    "events": {
      "Paused(address)": {
        "details": "Emitted when the pause is triggered by `account`."
      },
      "Unpaused(address)": {
        "details": "Emitted when the pause is lifted by `account`."
      }
    },
    "kind": "dev",
    "methods": {
      "owner()": {
        "details": "Returns the address of the current owner."
      },
      "paused()": {
        "details": "Returns true if the contract is paused, and false otherwise."
      },
      "renounceOwnership()": {
        "details": "Leaves the contract without owner. It will not be possible to call `onlyOwner` functions. Can only be called by the current owner. NOTE: Renouncing ownership will leave the contract without an owner, thereby disabling any functionality that is only available to the owner."
      },
      "transferOwnership(address)": {
        "details": "Transfers ownership of the contract to a new account (`newOwner`). Can only be called by the current owner."
      }
    },
    "version": 1
  },
  "userdoc": {
    "kind": "user",
    "methods": {},
    "version": 1
  }
}