{
  "contractName": "MimboCarB",
  "abi": [
    {
      "inputs": [
        {
          "internalType": "uint256",
          "name": "_price",
          "type": "uint256"
        },
        {
          "internalType": "uint256",
          "name": "_fee",
          "type": "uint256"
        }
      ],
      "stateMutability": "nonpayable",
      "type": "constructor"
    },
    {
      "anonymous": false,
      "inputs": [
        {
          "indexed": true,
          "internalType": "address",
          "name": "from",
          "type": "address"
        },
        {
          "indexed": false,
          "internalType": "uint256",
          "name": "carAmount",
          "type": "uint256"
        },
        {
          "indexed": false,
          "internalType": "uint256",
          "name": "price",
          "type": "uint256"
        },
        {
          "indexed": false,
          "internalType": "string",
          "name": "recommendCode",
          "type": "string"
        }
      ],
      "name": "Buy",
      "type": "event"
    },
    {
      "anonymous": false,
      "inputs": [
        {
          "indexed": true,
          "internalType": "address",
          "name": "previousOwner",
          "type": "address"
        },
        {
          "indexed": true,
          "internalType": "address",
          "name": "newOwner",
          "type": "address"
        }
      ],
      "name": "OwnershipTransferred",
      "type": "event"
    },
    {
      "anonymous": false,
      "inputs": [
        {
          "indexed": false,
          "internalType": "address",
          "name": "account",
          "type": "address"
        }
      ],
      "name": "Paused",
      "type": "event"
    },
    {
      "anonymous": false,
      "inputs": [
        {
          "indexed": false,
          "internalType": "address",
          "name": "account",
          "type": "address"
        }
      ],
      "name": "Unpaused",
      "type": "event"
    },
    {
      "inputs": [
        {
          "internalType": "string",
          "name": "",
          "type": "string"
        }
      ],
      "name": "codeStats_",
      "outputs": [
        {
          "internalType": "address",
          "name": "codeOwner",
          "type": "address"
        },
        {
          "internalType": "uint256",
          "name": "buyCount",
          "type": "uint256"
        },
        {
          "internalType": "uint256",
          "name": "carAmount",
          "type": "uint256"
        },
        {
          "internalType": "uint256",
          "name": "totalFee",
          "type": "uint256"
        }
      ],
      "stateMutability": "view",
      "type": "function",
      "constant": true
    },
    {
      "inputs": [],
      "name": "fee_",
      "outputs": [
        {
          "internalType": "uint256",
          "name": "",
          "type": "uint256"
        }
      ],
      "stateMutability": "view",
      "type": "function",
      "constant": true
    },
    {
      "inputs": [],
      "name": "owner",
      "outputs": [
        {
          "internalType": "address",
          "name": "",
          "type": "address"
        }
      ],
      "stateMutability": "view",
      "type": "function",
      "constant": true
    },
    {
      "inputs": [],
      "name": "paused",
      "outputs": [
        {
          "internalType": "bool",
          "name": "",
          "type": "bool"
        }
      ],
      "stateMutability": "view",
      "type": "function",
      "constant": true
    },
    {
      "inputs": [],
      "name": "price_",
      "outputs": [
        {
          "internalType": "uint256",
          "name": "",
          "type": "uint256"
        }
      ],
      "stateMutability": "view",
      "type": "function",
      "constant": true
    },
    {
      "inputs": [
        {
          "internalType": "string",
          "name": "",
          "type": "string"
        }
      ],
      "name": "recommendCodes_",
      "outputs": [
        {
          "internalType": "address",
          "name": "",
          "type": "address"
        }
      ],
      "stateMutability": "view",
      "type": "function",
      "constant": true
    },
    {
      "inputs": [],
      "name": "renounceOwnership",
      "outputs": [],
      "stateMutability": "nonpayable",
      "type": "function"
    },
    {
      "inputs": [
        {
          "internalType": "address",
          "name": "newOwner",
          "type": "address"
        }
      ],
      "name": "transferOwnership",
      "outputs": [],
      "stateMutability": "nonpayable",
      "type": "function"
    },
    {
      "inputs": [
        {
          "internalType": "address",
          "name": "",
          "type": "address"
        }
      ],
      "name": "walletCodes_",
      "outputs": [
        {
          "internalType": "string",
          "name": "",
          "type": "string"
        }
      ],
      "stateMutability": "view",
      "type": "function",
      "constant": true
    },
    {
      "inputs": [],
      "name": "pause",
      "outputs": [],
      "stateMutability": "nonpayable",
      "type": "function"
    },
    {
      "inputs": [],
      "name": "unpause",
      "outputs": [],
      "stateMutability": "nonpayable",
      "type": "function"
    },
    {
      "inputs": [
        {
          "internalType": "uint256",
          "name": "_price",
          "type": "uint256"
        }
      ],
      "name": "setCarPrice",
      "outputs": [],
      "stateMutability": "nonpayable",
      "type": "function"
    },
    {
      "inputs": [
        {
          "internalType": "uint256",
          "name": "_fee",
          "type": "uint256"
        }
      ],
      "name": "setFee",
      "outputs": [],
      "stateMutability": "nonpayable",
      "type": "function"
    },
    {
      "inputs": [
        {
          "internalType": "string",
          "name": "_recommendCode",
          "type": "string"
        },
        {
          "internalType": "address",
          "name": "_codeOwner",
          "type": "address"
        }
      ],
      "name": "setRecommendCode",
      "outputs": [],
      "stateMutability": "nonpayable",
      "type": "function"
    },
    {
      "inputs": [
        {
          "internalType": "string",
          "name": "_recommendCode",
          "type": "string"
        }
      ],
      "name": "buy",
      "outputs": [],
      "stateMutability": "payable",
      "type": "function",
      "payable": true
    },
    {
      "inputs": [
        {
          "internalType": "address",
          "name": "to",
          "type": "address"
        }
      ],
      "name": "withdrawEth",
      "outputs": [],
      "stateMutability": "nonpayable",
      "type": "function"
    }
  ],
  "bytecode": "0x60806040523480156200001157600080fd5b5060405162001ee338038062001ee3833981810160405281019062000037919062000194565b60008060006101000a81548160ff02191690831515021790555062000071620000656200008760201b60201c565b6200008f60201b60201c565b81600181905550806005819055505050620001db565b600033905090565b60008060019054906101000a900473ffffffffffffffffffffffffffffffffffffffff16905081600060016101000a81548173ffffffffffffffffffffffffffffffffffffffff021916908373ffffffffffffffffffffffffffffffffffffffff1602179055508173ffffffffffffffffffffffffffffffffffffffff168173ffffffffffffffffffffffffffffffffffffffff167f8be0079c531659141344cd1fd0a4f28419497f9722a3daafe3b4186f6b6457e060405160405180910390a35050565b600080fd5b6000819050919050565b6200016e8162000159565b81146200017a57600080fd5b50565b6000815190506200018e8162000163565b92915050565b60008060408385031215620001ae57620001ad62000154565b5b6000620001be858286016200017d565b9250506020620001d1858286016200017d565b9150509250929050565b611cf880620001eb6000396000f3fe6080604052600436106100f35760003560e01c80638456cb591161008a578063ccfdeb0a11610059578063ccfdeb0a146102e4578063ce40b03f1461030f578063dd5aaf551461033a578063f2fde38b14610363576100f3565b80638456cb591461022857806384c9cde71461023f5780638da5cb5b1461027c578063ccfb0f99146102a7576100f3565b80635c975abb116100c65780635c975abb1461019457806367e7374c146101bf57806369fe0e2d146101e8578063715018a614610211576100f3565b806325e16063146100f85780633a76eec5146101215780633f4ba83a14610161578063492cc76914610178575b600080fd5b34801561010457600080fd5b5061011f600480360381019061011a9190610fb7565b61038c565b005b34801561012d57600080fd5b506101486004803603810190610143919061112a565b610453565b604051610158949392919061119b565b60405180910390f35b34801561016d57600080fd5b506101766104b9565b005b610192600480360381019061018d919061112a565b6104cb565b005b3480156101a057600080fd5b506101a961095b565b6040516101b691906111fb565b60405180910390f35b3480156101cb57600080fd5b506101e660048036038101906101e19190611216565b610971565b005b3480156101f457600080fd5b5061020f600480360381019061020a919061129e565b610a75565b005b34801561021d57600080fd5b50610226610a87565b005b34801561023457600080fd5b5061023d610a9b565b005b34801561024b57600080fd5b5061026660048036038101906102619190610fb7565b610aad565b604051610273919061134a565b60405180910390f35b34801561028857600080fd5b50610291610b4d565b60405161029e919061136c565b60405180910390f35b3480156102b357600080fd5b506102ce60048036038101906102c9919061112a565b610b76565b6040516102db919061136c565b60405180910390f35b3480156102f057600080fd5b506102f9610bbf565b6040516103069190611387565b60405180910390f35b34801561031b57600080fd5b50610324610bc5565b6040516103319190611387565b60405180910390f35b34801561034657600080fd5b50610361600480360381019061035c919061129e565b610bcb565b005b34801561036f57600080fd5b5061038a60048036038101906103859190610fb7565b610c20565b005b610394610ca3565b600073ffffffffffffffffffffffffffffffffffffffff168173ffffffffffffffffffffffffffffffffffffffff1603610403576040517f08c379a00000000000000000000000000000000000000000000000000000000081526004016103fa90611414565b60405180910390fd5b60008190508073ffffffffffffffffffffffffffffffffffffffff166108fc479081150290604051600060405180830381858888f1935050505015801561044e573d6000803e3d6000fd5b505050565b6004818051602081018201805184825260208301602085012081835280955050505050506000915090508060000160009054906101000a900473ffffffffffffffffffffffffffffffffffffffff16908060010154908060020154908060030154905084565b6104c1610ca3565b6104c9610d21565b565b6104d3610d83565b600081905060006002826040516104ea9190611470565b908152602001604051809103902060009054906101000a900473ffffffffffffffffffffffffffffffffffffffff169050600082519050806000101561067a57600073ffffffffffffffffffffffffffffffffffffffff168273ffffffffffffffffffffffffffffffffffffffff1603610599576040517f08c379a0000000000000000000000000000000000000000000000000000000008152600401610590906114d3565b60405180910390fd5b600360003373ffffffffffffffffffffffffffffffffffffffff1673ffffffffffffffffffffffffffffffffffffffff16815260200190815260200160002080546105e390611522565b905060001015610628576040517f08c379a000000000000000000000000000000000000000000000000000000000815260040161061f906115c5565b60405180910390fd5b82600360003373ffffffffffffffffffffffffffffffffffffffff1673ffffffffffffffffffffffffffffffffffffffff16815260200190815260200160002090816106749190611791565b50610786565b600360003373ffffffffffffffffffffffffffffffffffffffff1673ffffffffffffffffffffffffffffffffffffffff16815260200190815260200160002080546106c490611522565b80601f01602080910402602001604051908101604052809291908181526020018280546106f090611522565b801561073d5780601f106107125761010080835404028352916020019161073d565b820191906000526020600020905b81548152906001019060200180831161072057829003601f168201915b505050505092506002836040516107549190611470565b908152602001604051809103902060009054906101000a900473ffffffffffffffffffffffffffffffffffffffff1691505b60006001543461079691906118c1565b905034600154826107a791906118f2565b146107e7576040517f08c379a00000000000000000000000000000000000000000000000000000000081526004016107de90611980565b60405180910390fd5b600073ffffffffffffffffffffffffffffffffffffffff168373ffffffffffffffffffffffffffffffffffffffff16146109005760006103e86005543461082e91906118f2565b61083891906118c1565b9050806000101561088b578373ffffffffffffffffffffffffffffffffffffffff166108fc829081150290604051600060405180830381858888f19350505050158015610889573d6000803e3d6000fd5b505b600060048660405161089d9190611470565b908152602001604051809103902090508060010160008154809291906108c2906119a0565b9190505550828160020160008282546108db91906119e8565b92505081905550818160030160008282546108f691906119e8565b9250508190555050505b3373ffffffffffffffffffffffffffffffffffffffff167f149b84f345a2529777fc0c790a7d9767c1069d6621069d801ec05488e8779dbd826001548760405161094c93929190611a1c565b60405180910390a25050505050565b60008060009054906101000a900460ff16905090565b610979610ca3565b8060028360405161098a9190611470565b908152602001604051809103902060006101000a81548173ffffffffffffffffffffffffffffffffffffffff021916908373ffffffffffffffffffffffffffffffffffffffff160217905550600073ffffffffffffffffffffffffffffffffffffffff168173ffffffffffffffffffffffffffffffffffffffff1614610a71576000600483604051610a1c9190611470565b90815260200160405180910390209050818160000160006101000a81548173ffffffffffffffffffffffffffffffffffffffff021916908373ffffffffffffffffffffffffffffffffffffffff160217905550505b5050565b610a7d610ca3565b8060058190555050565b610a8f610ca3565b610a996000610dcd565b565b610aa3610ca3565b610aab610e92565b565b60036020528060005260406000206000915090508054610acc90611522565b80601f0160208091040260200160405190810160405280929190818152602001828054610af890611522565b8015610b455780601f10610b1a57610100808354040283529160200191610b45565b820191906000526020600020905b815481529060010190602001808311610b2857829003601f168201915b505050505081565b60008060019054906101000a900473ffffffffffffffffffffffffffffffffffffffff16905090565b6002818051602081018201805184825260208301602085012081835280955050505050506000915054906101000a900473ffffffffffffffffffffffffffffffffffffffff1681565b60055481565b60015481565b610bd3610ca3565b80600010610c16576040517f08c379a0000000000000000000000000000000000000000000000000000000008152600401610c0d90611acc565b60405180910390fd5b8060018190555050565b610c28610ca3565b600073ffffffffffffffffffffffffffffffffffffffff168173ffffffffffffffffffffffffffffffffffffffff1603610c97576040517f08c379a0000000000000000000000000000000000000000000000000000000008152600401610c8e90611b5e565b60405180910390fd5b610ca081610dcd565b50565b610cab610ef4565b73ffffffffffffffffffffffffffffffffffffffff16610cc9610b4d565b73ffffffffffffffffffffffffffffffffffffffff1614610d1f576040517f08c379a0000000000000000000000000000000000000000000000000000000008152600401610d1690611bca565b60405180910390fd5b565b610d29610efc565b60008060006101000a81548160ff0219169083151502179055507f5db9ee0a495bf2e6ff9c91a7834c1ba4fdd244a5e8aa4e537bd38aeae4b073aa610d6c610ef4565b604051610d79919061136c565b60405180910390a1565b610d8b61095b565b15610dcb576040517f08c379a0000000000000000000000000000000000000000000000000000000008152600401610dc290611c36565b60405180910390fd5b565b60008060019054906101000a900473ffffffffffffffffffffffffffffffffffffffff16905081600060016101000a81548173ffffffffffffffffffffffffffffffffffffffff021916908373ffffffffffffffffffffffffffffffffffffffff1602179055508173ffffffffffffffffffffffffffffffffffffffff168173ffffffffffffffffffffffffffffffffffffffff167f8be0079c531659141344cd1fd0a4f28419497f9722a3daafe3b4186f6b6457e060405160405180910390a35050565b610e9a610d83565b60016000806101000a81548160ff0219169083151502179055507f62e78cea01bee320cd4e420270b5ea74000d11b0c9f74754ebdbfc544b05a258610edd610ef4565b604051610eea919061136c565b60405180910390a1565b600033905090565b610f0461095b565b610f43576040517f08c379a0000000000000000000000000000000000000000000000000000000008152600401610f3a90611ca2565b60405180910390fd5b565b6000604051905090565b600080fd5b600080fd5b600073ffffffffffffffffffffffffffffffffffffffff82169050919050565b6000610f8482610f59565b9050919050565b610f9481610f79565b8114610f9f57600080fd5b50565b600081359050610fb181610f8b565b92915050565b600060208284031215610fcd57610fcc610f4f565b5b6000610fdb84828501610fa2565b91505092915050565b600080fd5b600080fd5b6000601f19601f8301169050919050565b7f4e487b7100000000000000000000000000000000000000000000000000000000600052604160045260246000fd5b61103782610fee565b810181811067ffffffffffffffff8211171561105657611055610fff565b5b80604052505050565b6000611069610f45565b9050611075828261102e565b919050565b600067ffffffffffffffff82111561109557611094610fff565b5b61109e82610fee565b9050602081019050919050565b82818337600083830152505050565b60006110cd6110c88461107a565b61105f565b9050828152602081018484840111156110e9576110e8610fe9565b5b6110f48482856110ab565b509392505050565b600082601f83011261111157611110610fe4565b5b81356111218482602086016110ba565b91505092915050565b6000602082840312156111405761113f610f4f565b5b600082013567ffffffffffffffff81111561115e5761115d610f54565b5b61116a848285016110fc565b91505092915050565b61117c81610f79565b82525050565b6000819050919050565b61119581611182565b82525050565b60006080820190506111b06000830187611173565b6111bd602083018661118c565b6111ca604083018561118c565b6111d7606083018461118c565b95945050505050565b60008115159050919050565b6111f5816111e0565b82525050565b600060208201905061121060008301846111ec565b92915050565b6000806040838503121561122d5761122c610f4f565b5b600083013567ffffffffffffffff81111561124b5761124a610f54565b5b611257858286016110fc565b925050602061126885828601610fa2565b9150509250929050565b61127b81611182565b811461128657600080fd5b50565b60008135905061129881611272565b92915050565b6000602082840312156112b4576112b3610f4f565b5b60006112c284828501611289565b91505092915050565b600081519050919050565b600082825260208201905092915050565b60005b838110156113055780820151818401526020810190506112ea565b60008484015250505050565b600061131c826112cb565b61132681856112d6565b93506113368185602086016112e7565b61133f81610fee565b840191505092915050565b600060208201905081810360008301526113648184611311565b905092915050565b60006020820190506113816000830184611173565b92915050565b600060208201905061139c600083018461118c565b92915050565b7f5b4d696d626f4361725d5b77697468647261774574685d3a207472616e73666560008201527f7220746f20746865207a65726f20616464726573730000000000000000000000602082015250565b60006113fe6035836112d6565b9150611409826113a2565b604082019050919050565b6000602082019050818103600083015261142d816113f1565b9050919050565b600081905092915050565b600061144a826112cb565b6114548185611434565b93506114648185602086016112e7565b80840191505092915050565b600061147c828461143f565b915081905092915050565b7f6275793a20496e76616c6964207265636f6d6d656e6420636f64650000000000600082015250565b60006114bd601b836112d6565b91506114c882611487565b602082019050919050565b600060208201905081810360008301526114ec816114b0565b9050919050565b7f4e487b7100000000000000000000000000000000000000000000000000000000600052602260045260246000fd5b6000600282049050600182168061153a57607f821691505b60208210810361154d5761154c6114f3565b5b50919050565b7f6275793a20616c72656164792072656769737465726564207265636f6d6d656e60008201527f6420636f64650000000000000000000000000000000000000000000000000000602082015250565b60006115af6026836112d6565b91506115ba82611553565b604082019050919050565b600060208201905081810360008301526115de816115a2565b9050919050565b60008190508160005260206000209050919050565b60006020601f8301049050919050565b600082821b905092915050565b6000600883026116477fffffffffffffffffffffffffffffffffffffffffffffffffffffffffffffffff8261160a565b611651868361160a565b95508019841693508086168417925050509392505050565b6000819050919050565b600061168e61168961168484611182565b611669565b611182565b9050919050565b6000819050919050565b6116a883611673565b6116bc6116b482611695565b848454611617565b825550505050565b600090565b6116d16116c4565b6116dc81848461169f565b505050565b5b81811015611700576116f56000826116c9565b6001810190506116e2565b5050565b601f82111561174557611716816115e5565b61171f846115fa565b8101602085101561172e578190505b61174261173a856115fa565b8301826116e1565b50505b505050565b600082821c905092915050565b60006117686000198460080261174a565b1980831691505092915050565b60006117818383611757565b9150826002028217905092915050565b61179a826112cb565b67ffffffffffffffff8111156117b3576117b2610fff565b5b6117bd8254611522565b6117c8828285611704565b600060209050601f8311600181146117fb57600084156117e9578287015190505b6117f38582611775565b86555061185b565b601f198416611809866115e5565b60005b828110156118315784890151825560018201915060208501945060208101905061180c565b8683101561184e578489015161184a601f891682611757565b8355505b6001600288020188555050505b505050505050565b7f4e487b7100000000000000000000000000000000000000000000000000000000600052601260045260246000fd5b7f4e487b7100000000000000000000000000000000000000000000000000000000600052601160045260246000fd5b60006118cc82611182565b91506118d783611182565b9250826118e7576118e6611863565b5b828204905092915050565b60006118fd82611182565b915061190883611182565b925082820261191681611182565b9150828204841483151761192d5761192c611892565b5b5092915050565b7f6275793a20696e636f72726563742076616c7565000000000000000000000000600082015250565b600061196a6014836112d6565b915061197582611934565b602082019050919050565b600060208201905081810360008301526119998161195d565b9050919050565b60006119ab82611182565b91507fffffffffffffffffffffffffffffffffffffffffffffffffffffffffffffffff82036119dd576119dc611892565b5b600182019050919050565b60006119f382611182565b91506119fe83611182565b9250828201905080821115611a1657611a15611892565b5b92915050565b6000606082019050611a31600083018661118c565b611a3e602083018561118c565b8181036040830152611a508184611311565b9050949350505050565b7f73657443617250726963653a207072696365206d75737420626520677265617460008201527f6572207468616e207a65726f0000000000000000000000000000000000000000602082015250565b6000611ab6602c836112d6565b9150611ac182611a5a565b604082019050919050565b60006020820190508181036000830152611ae581611aa9565b9050919050565b7f4f776e61626c653a206e6577206f776e657220697320746865207a65726f206160008201527f6464726573730000000000000000000000000000000000000000000000000000602082015250565b6000611b486026836112d6565b9150611b5382611aec565b604082019050919050565b60006020820190508181036000830152611b7781611b3b565b9050919050565b7f4f776e61626c653a2063616c6c6572206973206e6f7420746865206f776e6572600082015250565b6000611bb46020836112d6565b9150611bbf82611b7e565b602082019050919050565b60006020820190508181036000830152611be381611ba7565b9050919050565b7f5061757361626c653a2070617573656400000000000000000000000000000000600082015250565b6000611c206010836112d6565b9150611c2b82611bea565b602082019050919050565b60006020820190508181036000830152611c4f81611c13565b9050919050565b7f5061757361626c653a206e6f7420706175736564000000000000000000000000600082015250565b6000611c8c6014836112d6565b9150611c9782611c56565b602082019050919050565b60006020820190508181036000830152611cbb81611c7f565b905091905056fea26469706673582212200d3c6d0ee1e60a838497d1a61b76f756465ab9449ecf3ed33e18733801dc29fb64736f6c63430008130033",
  "immutableReferences": {},
  "source": "// SPDX-License-Identifier: MIT\r\npragma solidity ^0.8.14;\r\n\r\nimport \"@openzeppelin/contracts/access/Ownable.sol\";\r\nimport \"@openzeppelin/contracts/security/Pausable.sol\";\r\n\r\ncontract MimboCarB is Pausable, Ownable {\r\n    event Buy(address indexed from, uint256 carAmount, uint256 price, string recommendCode);\r\n\r\n    //  . wei\r\n    uint256 public price_;\r\n\r\n    //  .  => \r\n    mapping(string => address) public recommendCodes_;\r\n\r\n    //  =>  \r\n    mapping(address => string) public walletCodes_;\r\n\r\n    //    \r\n    struct CodeStat {\r\n        address codeOwner;  //  \r\n        uint256 buyCount;   //  \r\n        uint256 carAmount;  //   \r\n        uint256 totalFee;   //     \r\n    }\r\n\r\n    mapping(string => CodeStat) public codeStats_;\r\n\r\n    //   \r\n    // 2.5% => 25\r\n    uint256 public fee_;\r\n\r\n    constructor(uint256 _price, uint256 _fee) {\r\n        price_ = _price;\r\n        fee_ = _fee;\r\n    }\r\n\r\n    function pause() public onlyOwner {\r\n        _pause();\r\n    }\r\n\r\n    function unpause() public onlyOwner {\r\n        _unpause();\r\n    }\r\n\r\n    //   \r\n    function setCarPrice(uint256 _price) public onlyOwner {\r\n        require(0 < _price, \"setCarPrice: price must be greater than zero\");\r\n        price_ = _price;\r\n    }\r\n\r\n    //    \r\n    function setFee(uint256 _fee) public onlyOwner {\r\n        fee_ = _fee;\r\n    }\r\n\r\n    //   \r\n    function setRecommendCode(string memory _recommendCode, address _codeOwner) public onlyOwner {\r\n        //  require  zero address       .\r\n        // require(_codeOwner != address(0), \"setRecommendCode: can not set codeOwner to the zero address\");\r\n\r\n        recommendCodes_[_recommendCode] = _codeOwner;\r\n\r\n        if(_codeOwner != address(0)) {\r\n            CodeStat storage codeStat = codeStats_[_recommendCode];\r\n            codeStat.codeOwner = _codeOwner;\r\n        }\r\n    }\r\n\r\n    //  \r\n    function buy(string memory _recommendCode) public payable whenNotPaused {\r\n        string memory recommendCode = _recommendCode;\r\n\r\n        //   \r\n        address payable feeAddress = payable(recommendCodes_[recommendCode]);\r\n\r\n        //   \r\n        uint256 bytelength = bytes(recommendCode).length;\r\n\r\n        //  \r\n        if(0 < bytelength) {\r\n            //    \r\n            require(feeAddress != address(0), \"buy: Invalid recommend code\");\r\n\r\n            //      \r\n            require(0 >= bytes(walletCodes_[msg.sender]).length, \"buy: already registered recommend code\");\r\n\r\n            //    \r\n            walletCodes_[msg.sender] = recommendCode;\r\n        } else {\r\n            //  , 2        \r\n            recommendCode = walletCodes_[msg.sender];\r\n            feeAddress = payable(recommendCodes_[recommendCode]);\r\n        }\r\n\r\n        //  \r\n        uint256 carAmount = msg.value / price_;\r\n        require(carAmount * price_ == msg.value, \"buy: incorrect value\");\r\n\r\n        //     \r\n        if(feeAddress != address(0)) {\r\n            // \r\n            uint256 feeAmount = (msg.value * fee_) / 1000;\r\n            if(0 < feeAmount) {\r\n                feeAddress.transfer(feeAmount);\r\n            }\r\n\r\n            // \r\n            CodeStat storage codeStat = codeStats_[recommendCode];\r\n            codeStat.buyCount++;\r\n            codeStat.carAmount += carAmount;\r\n            codeStat.totalFee += feeAmount;\r\n        }\r\n\r\n        emit Buy(msg.sender, carAmount, price_, recommendCode);\r\n    }\r\n\r\n    function withdrawEth(address to) public onlyOwner() {\r\n        require(to != address(0), \"[MimboCar][withdrawEth]: transfer to the zero address\");\r\n        address payable receiver = payable(to);\r\n        receiver.transfer(address(this).balance);\r\n    }\r\n}\r\n",
  "sourcePath": "D:\\github\\mimbo_sol\\contracts\\MimboCarB.sol",
  "compiler": {
    "name": "solc",
    "version": "0.8.19+commit.7dd6d404.Emscripten.clang"
  },
  "schemaVersion": "3.4.13",
  "updatedAt": "2023-07-10T06:07:40.108Z",
  "networkType": "ethereum",
  "devdoc": {
    "events": {
      "Paused(address)": {
        "details": "Emitted when the pause is triggered by `account`."
      },
      "Unpaused(address)": {
        "details": "Emitted when the pause is lifted by `account`."
      }
    },
    "kind": "dev",
    "methods": {
      "owner()": {
        "details": "Returns the address of the current owner."
      },
      "paused()": {
        "details": "Returns true if the contract is paused, and false otherwise."
      },
      "renounceOwnership()": {
        "details": "Leaves the contract without owner. It will not be possible to call `onlyOwner` functions. Can only be called by the current owner. NOTE: Renouncing ownership will leave the contract without an owner, thereby disabling any functionality that is only available to the owner."
      },
      "transferOwnership(address)": {
        "details": "Transfers ownership of the contract to a new account (`newOwner`). Can only be called by the current owner."
      }
    },
    "version": 1
  },
  "userdoc": {
    "kind": "user",
    "methods": {},
    "version": 1
  }
}