{
  "contractName": "MimboCarB",
  "abi": [
    {
      "inputs": [
        {
          "internalType": "address",
          "name": "_buyBackWallet",
          "type": "address"
        },
        {
          "internalType": "uint256",
          "name": "_price",
          "type": "uint256"
        },
        {
          "internalType": "uint256",
          "name": "_fee",
          "type": "uint256"
        }
      ],
      "stateMutability": "nonpayable",
      "type": "constructor"
    },
    {
      "anonymous": false,
      "inputs": [
        {
          "indexed": true,
          "internalType": "address",
          "name": "from",
          "type": "address"
        },
        {
          "indexed": false,
          "internalType": "uint256",
          "name": "carAmount",
          "type": "uint256"
        },
        {
          "indexed": false,
          "internalType": "uint256",
          "name": "price",
          "type": "uint256"
        },
        {
          "indexed": false,
          "internalType": "string",
          "name": "recommendCode",
          "type": "string"
        }
      ],
      "name": "Buy",
      "type": "event"
    },
    {
      "anonymous": false,
      "inputs": [
        {
          "indexed": true,
          "internalType": "address",
          "name": "previousOwner",
          "type": "address"
        },
        {
          "indexed": true,
          "internalType": "address",
          "name": "newOwner",
          "type": "address"
        }
      ],
      "name": "OwnershipTransferred",
      "type": "event"
    },
    {
      "anonymous": false,
      "inputs": [
        {
          "indexed": false,
          "internalType": "address",
          "name": "account",
          "type": "address"
        }
      ],
      "name": "Paused",
      "type": "event"
    },
    {
      "anonymous": false,
      "inputs": [
        {
          "indexed": false,
          "internalType": "address",
          "name": "account",
          "type": "address"
        }
      ],
      "name": "Unpaused",
      "type": "event"
    },
    {
      "inputs": [],
      "name": "buyBackWallet_",
      "outputs": [
        {
          "internalType": "address payable",
          "name": "",
          "type": "address"
        }
      ],
      "stateMutability": "view",
      "type": "function",
      "constant": true
    },
    {
      "inputs": [
        {
          "internalType": "string",
          "name": "",
          "type": "string"
        }
      ],
      "name": "codeStats_",
      "outputs": [
        {
          "internalType": "address",
          "name": "codeOwner",
          "type": "address"
        },
        {
          "internalType": "uint256",
          "name": "buyCount",
          "type": "uint256"
        },
        {
          "internalType": "uint256",
          "name": "carAmount",
          "type": "uint256"
        },
        {
          "internalType": "uint256",
          "name": "totalFee",
          "type": "uint256"
        }
      ],
      "stateMutability": "view",
      "type": "function",
      "constant": true
    },
    {
      "inputs": [],
      "name": "fee_",
      "outputs": [
        {
          "internalType": "uint256",
          "name": "",
          "type": "uint256"
        }
      ],
      "stateMutability": "view",
      "type": "function",
      "constant": true
    },
    {
      "inputs": [],
      "name": "owner",
      "outputs": [
        {
          "internalType": "address",
          "name": "",
          "type": "address"
        }
      ],
      "stateMutability": "view",
      "type": "function",
      "constant": true
    },
    {
      "inputs": [],
      "name": "paused",
      "outputs": [
        {
          "internalType": "bool",
          "name": "",
          "type": "bool"
        }
      ],
      "stateMutability": "view",
      "type": "function",
      "constant": true
    },
    {
      "inputs": [],
      "name": "price_",
      "outputs": [
        {
          "internalType": "uint256",
          "name": "",
          "type": "uint256"
        }
      ],
      "stateMutability": "view",
      "type": "function",
      "constant": true
    },
    {
      "inputs": [
        {
          "internalType": "string",
          "name": "",
          "type": "string"
        }
      ],
      "name": "recommendCodes_",
      "outputs": [
        {
          "internalType": "address",
          "name": "",
          "type": "address"
        }
      ],
      "stateMutability": "view",
      "type": "function",
      "constant": true
    },
    {
      "inputs": [],
      "name": "renounceOwnership",
      "outputs": [],
      "stateMutability": "nonpayable",
      "type": "function"
    },
    {
      "inputs": [
        {
          "internalType": "address",
          "name": "newOwner",
          "type": "address"
        }
      ],
      "name": "transferOwnership",
      "outputs": [],
      "stateMutability": "nonpayable",
      "type": "function"
    },
    {
      "inputs": [
        {
          "internalType": "address",
          "name": "",
          "type": "address"
        }
      ],
      "name": "walletCodes_",
      "outputs": [
        {
          "internalType": "string",
          "name": "",
          "type": "string"
        }
      ],
      "stateMutability": "view",
      "type": "function",
      "constant": true
    },
    {
      "inputs": [],
      "name": "pause",
      "outputs": [],
      "stateMutability": "nonpayable",
      "type": "function"
    },
    {
      "inputs": [],
      "name": "unpause",
      "outputs": [],
      "stateMutability": "nonpayable",
      "type": "function"
    },
    {
      "inputs": [
        {
          "internalType": "address",
          "name": "_buyBackWallet",
          "type": "address"
        }
      ],
      "name": "setBuyBackWallet",
      "outputs": [],
      "stateMutability": "nonpayable",
      "type": "function"
    },
    {
      "inputs": [
        {
          "internalType": "uint256",
          "name": "_price",
          "type": "uint256"
        }
      ],
      "name": "setCarPrice",
      "outputs": [],
      "stateMutability": "nonpayable",
      "type": "function"
    },
    {
      "inputs": [
        {
          "internalType": "uint256",
          "name": "_fee",
          "type": "uint256"
        }
      ],
      "name": "setFee",
      "outputs": [],
      "stateMutability": "nonpayable",
      "type": "function"
    },
    {
      "inputs": [
        {
          "internalType": "string",
          "name": "_recommendCode",
          "type": "string"
        },
        {
          "internalType": "address",
          "name": "_codeOwner",
          "type": "address"
        }
      ],
      "name": "setRecommendCode",
      "outputs": [],
      "stateMutability": "nonpayable",
      "type": "function"
    },
    {
      "inputs": [
        {
          "internalType": "string",
          "name": "_recommendCode",
          "type": "string"
        }
      ],
      "name": "buy",
      "outputs": [],
      "stateMutability": "payable",
      "type": "function",
      "payable": true
    },
    {
      "inputs": [
        {
          "internalType": "address",
          "name": "to",
          "type": "address"
        }
      ],
      "name": "withdrawEth",
      "outputs": [],
      "stateMutability": "nonpayable",
      "type": "function"
    }
  ],
  "bytecode": "0x60806040523480156200001157600080fd5b506040516200220d3803806200220d83398181016040528101906200003791906200023b565b60008060006101000a81548160ff0219169083151502179055506200007162000065620000c960201b60201c565b620000d160201b60201c565b82600160006101000a81548173ffffffffffffffffffffffffffffffffffffffff021916908373ffffffffffffffffffffffffffffffffffffffff160217905550816002819055508060068190555050505062000297565b600033905090565b60008060019054906101000a900473ffffffffffffffffffffffffffffffffffffffff16905081600060016101000a81548173ffffffffffffffffffffffffffffffffffffffff021916908373ffffffffffffffffffffffffffffffffffffffff1602179055508173ffffffffffffffffffffffffffffffffffffffff168173ffffffffffffffffffffffffffffffffffffffff167f8be0079c531659141344cd1fd0a4f28419497f9722a3daafe3b4186f6b6457e060405160405180910390a35050565b600080fd5b600073ffffffffffffffffffffffffffffffffffffffff82169050919050565b6000620001c8826200019b565b9050919050565b620001da81620001bb565b8114620001e657600080fd5b50565b600081519050620001fa81620001cf565b92915050565b6000819050919050565b620002158162000200565b81146200022157600080fd5b50565b60008151905062000235816200020a565b92915050565b60008060006060848603121562000257576200025662000196565b5b60006200026786828701620001e9565b93505060206200027a8682870162000224565b92505060406200028d8682870162000224565b9150509250925092565b611f6680620002a76000396000f3fe6080604052600436106101095760003560e01c806384c9cde711610095578063ccfb0f9911610064578063ccfb0f9914610311578063ccfdeb0a1461034e578063ce40b03f14610379578063dd5aaf55146103a4578063f2fde38b146103cd57610109565b806384c9cde7146102555780638da5cb5b14610292578063a4640b82146102bd578063ca015d35146102e657610109565b80635c975abb116100dc5780635c975abb146101aa57806367e7374c146101d557806369fe0e2d146101fe578063715018a6146102275780638456cb591461023e57610109565b806325e160631461010e5780633a76eec5146101375780633f4ba83a14610177578063492cc7691461018e575b600080fd5b34801561011a57600080fd5b506101356004803603810190610130919061117d565b6103f6565b005b34801561014357600080fd5b5061015e600480360381019061015991906112f0565b6104bd565b60405161016e9493929190611361565b60405180910390f35b34801561018357600080fd5b5061018c610523565b005b6101a860048036038101906101a391906112f0565b610535565b005b3480156101b657600080fd5b506101bf610a40565b6040516101cc91906113c1565b60405180910390f35b3480156101e157600080fd5b506101fc60048036038101906101f791906113dc565b610a56565b005b34801561020a57600080fd5b5061022560048036038101906102209190611464565b610b5a565b005b34801561023357600080fd5b5061023c610b6c565b005b34801561024a57600080fd5b50610253610b80565b005b34801561026157600080fd5b5061027c6004803603810190610277919061117d565b610b92565b6040516102899190611510565b60405180910390f35b34801561029e57600080fd5b506102a7610c32565b6040516102b49190611532565b60405180910390f35b3480156102c957600080fd5b506102e460048036038101906102df919061117d565b610c5b565b005b3480156102f257600080fd5b506102fb610d16565b604051610308919061156e565b60405180910390f35b34801561031d57600080fd5b50610338600480360381019061033391906112f0565b610d3c565b6040516103459190611532565b60405180910390f35b34801561035a57600080fd5b50610363610d85565b6040516103709190611589565b60405180910390f35b34801561038557600080fd5b5061038e610d8b565b60405161039b9190611589565b60405180910390f35b3480156103b057600080fd5b506103cb60048036038101906103c69190611464565b610d91565b005b3480156103d957600080fd5b506103f460048036038101906103ef919061117d565b610de6565b005b6103fe610e69565b600073ffffffffffffffffffffffffffffffffffffffff168173ffffffffffffffffffffffffffffffffffffffff160361046d576040517f08c379a000000000000000000000000000000000000000000000000000000000815260040161046490611616565b60405180910390fd5b60008190508073ffffffffffffffffffffffffffffffffffffffff166108fc479081150290604051600060405180830381858888f193505050501580156104b8573d6000803e3d6000fd5b505050565b6005818051602081018201805184825260208301602085012081835280955050505050506000915090508060000160009054906101000a900473ffffffffffffffffffffffffffffffffffffffff16908060010154908060020154908060030154905084565b61052b610e69565b610533610ee7565b565b61053d610f49565b600081905060006003826040516105549190611672565b908152602001604051809103902060009054906101000a900473ffffffffffffffffffffffffffffffffffffffff16905060008251905080600010156106e457600073ffffffffffffffffffffffffffffffffffffffff168273ffffffffffffffffffffffffffffffffffffffff1603610603576040517f08c379a00000000000000000000000000000000000000000000000000000000081526004016105fa906116d5565b60405180910390fd5b600460003373ffffffffffffffffffffffffffffffffffffffff1673ffffffffffffffffffffffffffffffffffffffff168152602001908152602001600020805461064d90611724565b905060001015610692576040517f08c379a0000000000000000000000000000000000000000000000000000000008152600401610689906117c7565b60405180910390fd5b82600460003373ffffffffffffffffffffffffffffffffffffffff1673ffffffffffffffffffffffffffffffffffffffff16815260200190815260200160002090816106de9190611993565b506107f0565b600460003373ffffffffffffffffffffffffffffffffffffffff1673ffffffffffffffffffffffffffffffffffffffff168152602001908152602001600020805461072e90611724565b80601f016020809104026020016040519081016040528092919081815260200182805461075a90611724565b80156107a75780601f1061077c576101008083540402835291602001916107a7565b820191906000526020600020905b81548152906001019060200180831161078a57829003601f168201915b505050505092506003836040516107be9190611672565b908152602001604051809103902060009054906101000a900473ffffffffffffffffffffffffffffffffffffffff1691505b6000600254346108009190611ac3565b905034600254826108119190611af4565b14610851576040517f08c379a000000000000000000000000000000000000000000000000000000000815260040161084890611b82565b60405180910390fd5b60006002346108609190611ac3565b9050600160009054906101000a900473ffffffffffffffffffffffffffffffffffffffff1673ffffffffffffffffffffffffffffffffffffffff166108fc829081150290604051600060405180830381858888f193505050501580156108ca573d6000803e3d6000fd5b50600073ffffffffffffffffffffffffffffffffffffffff168473ffffffffffffffffffffffffffffffffffffffff16146109e45760006103e8600654346109129190611af4565b61091c9190611ac3565b9050806000101561096f578473ffffffffffffffffffffffffffffffffffffffff166108fc829081150290604051600060405180830381858888f1935050505015801561096d573d6000803e3d6000fd5b505b60006005876040516109819190611672565b908152602001604051809103902090508060010160008154809291906109a690611ba2565b9190505550838160020160008282546109bf9190611bea565b92505081905550818160030160008282546109da9190611bea565b9250508190555050505b3373ffffffffffffffffffffffffffffffffffffffff167f149b84f345a2529777fc0c790a7d9767c1069d6621069d801ec05488e8779dbd8360025488604051610a3093929190611c1e565b60405180910390a2505050505050565b60008060009054906101000a900460ff16905090565b610a5e610e69565b80600383604051610a6f9190611672565b908152602001604051809103902060006101000a81548173ffffffffffffffffffffffffffffffffffffffff021916908373ffffffffffffffffffffffffffffffffffffffff160217905550600073ffffffffffffffffffffffffffffffffffffffff168173ffffffffffffffffffffffffffffffffffffffff1614610b56576000600583604051610b019190611672565b90815260200160405180910390209050818160000160006101000a81548173ffffffffffffffffffffffffffffffffffffffff021916908373ffffffffffffffffffffffffffffffffffffffff160217905550505b5050565b610b62610e69565b8060068190555050565b610b74610e69565b610b7e6000610f93565b565b610b88610e69565b610b90611058565b565b60046020528060005260406000206000915090508054610bb190611724565b80601f0160208091040260200160405190810160405280929190818152602001828054610bdd90611724565b8015610c2a5780601f10610bff57610100808354040283529160200191610c2a565b820191906000526020600020905b815481529060010190602001808311610c0d57829003601f168201915b505050505081565b60008060019054906101000a900473ffffffffffffffffffffffffffffffffffffffff16905090565b610c63610e69565b600073ffffffffffffffffffffffffffffffffffffffff168173ffffffffffffffffffffffffffffffffffffffff1603610cd2576040517f08c379a0000000000000000000000000000000000000000000000000000000008152600401610cc990611ca8565b60405180910390fd5b80600160006101000a81548173ffffffffffffffffffffffffffffffffffffffff021916908373ffffffffffffffffffffffffffffffffffffffff16021790555050565b600160009054906101000a900473ffffffffffffffffffffffffffffffffffffffff1681565b6003818051602081018201805184825260208301602085012081835280955050505050506000915054906101000a900473ffffffffffffffffffffffffffffffffffffffff1681565b60065481565b60025481565b610d99610e69565b80600010610ddc576040517f08c379a0000000000000000000000000000000000000000000000000000000008152600401610dd390611d3a565b60405180910390fd5b8060028190555050565b610dee610e69565b600073ffffffffffffffffffffffffffffffffffffffff168173ffffffffffffffffffffffffffffffffffffffff1603610e5d576040517f08c379a0000000000000000000000000000000000000000000000000000000008152600401610e5490611dcc565b60405180910390fd5b610e6681610f93565b50565b610e716110ba565b73ffffffffffffffffffffffffffffffffffffffff16610e8f610c32565b73ffffffffffffffffffffffffffffffffffffffff1614610ee5576040517f08c379a0000000000000000000000000000000000000000000000000000000008152600401610edc90611e38565b60405180910390fd5b565b610eef6110c2565b60008060006101000a81548160ff0219169083151502179055507f5db9ee0a495bf2e6ff9c91a7834c1ba4fdd244a5e8aa4e537bd38aeae4b073aa610f326110ba565b604051610f3f9190611532565b60405180910390a1565b610f51610a40565b15610f91576040517f08c379a0000000000000000000000000000000000000000000000000000000008152600401610f8890611ea4565b60405180910390fd5b565b60008060019054906101000a900473ffffffffffffffffffffffffffffffffffffffff16905081600060016101000a81548173ffffffffffffffffffffffffffffffffffffffff021916908373ffffffffffffffffffffffffffffffffffffffff1602179055508173ffffffffffffffffffffffffffffffffffffffff168173ffffffffffffffffffffffffffffffffffffffff167f8be0079c531659141344cd1fd0a4f28419497f9722a3daafe3b4186f6b6457e060405160405180910390a35050565b611060610f49565b60016000806101000a81548160ff0219169083151502179055507f62e78cea01bee320cd4e420270b5ea74000d11b0c9f74754ebdbfc544b05a2586110a36110ba565b6040516110b09190611532565b60405180910390a1565b600033905090565b6110ca610a40565b611109576040517f08c379a000000000000000000000000000000000000000000000000000000000815260040161110090611f10565b60405180910390fd5b565b6000604051905090565b600080fd5b600080fd5b600073ffffffffffffffffffffffffffffffffffffffff82169050919050565b600061114a8261111f565b9050919050565b61115a8161113f565b811461116557600080fd5b50565b60008135905061117781611151565b92915050565b60006020828403121561119357611192611115565b5b60006111a184828501611168565b91505092915050565b600080fd5b600080fd5b6000601f19601f8301169050919050565b7f4e487b7100000000000000000000000000000000000000000000000000000000600052604160045260246000fd5b6111fd826111b4565b810181811067ffffffffffffffff8211171561121c5761121b6111c5565b5b80604052505050565b600061122f61110b565b905061123b82826111f4565b919050565b600067ffffffffffffffff82111561125b5761125a6111c5565b5b611264826111b4565b9050602081019050919050565b82818337600083830152505050565b600061129361128e84611240565b611225565b9050828152602081018484840111156112af576112ae6111af565b5b6112ba848285611271565b509392505050565b600082601f8301126112d7576112d66111aa565b5b81356112e7848260208601611280565b91505092915050565b60006020828403121561130657611305611115565b5b600082013567ffffffffffffffff8111156113245761132361111a565b5b611330848285016112c2565b91505092915050565b6113428161113f565b82525050565b6000819050919050565b61135b81611348565b82525050565b60006080820190506113766000830187611339565b6113836020830186611352565b6113906040830185611352565b61139d6060830184611352565b95945050505050565b60008115159050919050565b6113bb816113a6565b82525050565b60006020820190506113d660008301846113b2565b92915050565b600080604083850312156113f3576113f2611115565b5b600083013567ffffffffffffffff8111156114115761141061111a565b5b61141d858286016112c2565b925050602061142e85828601611168565b9150509250929050565b61144181611348565b811461144c57600080fd5b50565b60008135905061145e81611438565b92915050565b60006020828403121561147a57611479611115565b5b60006114888482850161144f565b91505092915050565b600081519050919050565b600082825260208201905092915050565b60005b838110156114cb5780820151818401526020810190506114b0565b60008484015250505050565b60006114e282611491565b6114ec818561149c565b93506114fc8185602086016114ad565b611505816111b4565b840191505092915050565b6000602082019050818103600083015261152a81846114d7565b905092915050565b60006020820190506115476000830184611339565b92915050565b60006115588261111f565b9050919050565b6115688161154d565b82525050565b6000602082019050611583600083018461155f565b92915050565b600060208201905061159e6000830184611352565b92915050565b7f5b4d696d626f4361725d5b77697468647261774574685d3a207472616e73666560008201527f7220746f20746865207a65726f20616464726573730000000000000000000000602082015250565b600061160060358361149c565b915061160b826115a4565b604082019050919050565b6000602082019050818103600083015261162f816115f3565b9050919050565b600081905092915050565b600061164c82611491565b6116568185611636565b93506116668185602086016114ad565b80840191505092915050565b600061167e8284611641565b915081905092915050565b7f6275793a20496e76616c6964207265636f6d6d656e6420636f64650000000000600082015250565b60006116bf601b8361149c565b91506116ca82611689565b602082019050919050565b600060208201905081810360008301526116ee816116b2565b9050919050565b7f4e487b7100000000000000000000000000000000000000000000000000000000600052602260045260246000fd5b6000600282049050600182168061173c57607f821691505b60208210810361174f5761174e6116f5565b5b50919050565b7f6275793a20616c72656164792072656769737465726564207265636f6d6d656e60008201527f6420636f64650000000000000000000000000000000000000000000000000000602082015250565b60006117b160268361149c565b91506117bc82611755565b604082019050919050565b600060208201905081810360008301526117e0816117a4565b9050919050565b60008190508160005260206000209050919050565b60006020601f8301049050919050565b600082821b905092915050565b6000600883026118497fffffffffffffffffffffffffffffffffffffffffffffffffffffffffffffffff8261180c565b611853868361180c565b95508019841693508086168417925050509392505050565b6000819050919050565b600061189061188b61188684611348565b61186b565b611348565b9050919050565b6000819050919050565b6118aa83611875565b6118be6118b682611897565b848454611819565b825550505050565b600090565b6118d36118c6565b6118de8184846118a1565b505050565b5b81811015611902576118f76000826118cb565b6001810190506118e4565b5050565b601f82111561194757611918816117e7565b611921846117fc565b81016020851015611930578190505b61194461193c856117fc565b8301826118e3565b50505b505050565b600082821c905092915050565b600061196a6000198460080261194c565b1980831691505092915050565b60006119838383611959565b9150826002028217905092915050565b61199c82611491565b67ffffffffffffffff8111156119b5576119b46111c5565b5b6119bf8254611724565b6119ca828285611906565b600060209050601f8311600181146119fd57600084156119eb578287015190505b6119f58582611977565b865550611a5d565b601f198416611a0b866117e7565b60005b82811015611a3357848901518255600182019150602085019450602081019050611a0e565b86831015611a505784890151611a4c601f891682611959565b8355505b6001600288020188555050505b505050505050565b7f4e487b7100000000000000000000000000000000000000000000000000000000600052601260045260246000fd5b7f4e487b7100000000000000000000000000000000000000000000000000000000600052601160045260246000fd5b6000611ace82611348565b9150611ad983611348565b925082611ae957611ae8611a65565b5b828204905092915050565b6000611aff82611348565b9150611b0a83611348565b9250828202611b1881611348565b91508282048414831517611b2f57611b2e611a94565b5b5092915050565b7f6275793a20696e636f72726563742076616c7565000000000000000000000000600082015250565b6000611b6c60148361149c565b9150611b7782611b36565b602082019050919050565b60006020820190508181036000830152611b9b81611b5f565b9050919050565b6000611bad82611348565b91507fffffffffffffffffffffffffffffffffffffffffffffffffffffffffffffffff8203611bdf57611bde611a94565b5b600182019050919050565b6000611bf582611348565b9150611c0083611348565b9250828201905080821115611c1857611c17611a94565b5b92915050565b6000606082019050611c336000830186611352565b611c406020830185611352565b8181036040830152611c5281846114d7565b9050949350505050565b7f6275794261636b57616c6c6574206973207a65726f2061646472657373000000600082015250565b6000611c92601d8361149c565b9150611c9d82611c5c565b602082019050919050565b60006020820190508181036000830152611cc181611c85565b9050919050565b7f73657443617250726963653a207072696365206d75737420626520677265617460008201527f6572207468616e207a65726f0000000000000000000000000000000000000000602082015250565b6000611d24602c8361149c565b9150611d2f82611cc8565b604082019050919050565b60006020820190508181036000830152611d5381611d17565b9050919050565b7f4f776e61626c653a206e6577206f776e657220697320746865207a65726f206160008201527f6464726573730000000000000000000000000000000000000000000000000000602082015250565b6000611db660268361149c565b9150611dc182611d5a565b604082019050919050565b60006020820190508181036000830152611de581611da9565b9050919050565b7f4f776e61626c653a2063616c6c6572206973206e6f7420746865206f776e6572600082015250565b6000611e2260208361149c565b9150611e2d82611dec565b602082019050919050565b60006020820190508181036000830152611e5181611e15565b9050919050565b7f5061757361626c653a2070617573656400000000000000000000000000000000600082015250565b6000611e8e60108361149c565b9150611e9982611e58565b602082019050919050565b60006020820190508181036000830152611ebd81611e81565b9050919050565b7f5061757361626c653a206e6f7420706175736564000000000000000000000000600082015250565b6000611efa60148361149c565b9150611f0582611ec4565b602082019050919050565b60006020820190508181036000830152611f2981611eed565b905091905056fea26469706673582212200ca62e4f7f208c91cfd09e2d9396eaf0ff8b84d461ab617b0355ec9bfba9f6ba64736f6c63430008130033",
  "immutableReferences": {},
  "source": "// SPDX-License-Identifier: MIT\r\npragma solidity ^0.8.14;\r\n\r\nimport \"@openzeppelin/contracts/access/Ownable.sol\";\r\nimport \"@openzeppelin/contracts/security/Pausable.sol\";\r\n\r\ncontract MimboCarB is Pausable, Ownable {\r\n    event Buy(address indexed from, uint256 carAmount, uint256 price, string recommendCode);\r\n\r\n    //  \r\n    address payable public buyBackWallet_;\r\n\r\n    //  . wei\r\n    uint256 public price_;\r\n\r\n    //  .  => \r\n    mapping(string => address) public recommendCodes_;\r\n\r\n    //  =>  \r\n    mapping(address => string) public walletCodes_;\r\n\r\n    //    \r\n    struct CodeStat {\r\n        address codeOwner;  //  \r\n        uint256 buyCount;   //  \r\n        uint256 carAmount;  //   \r\n        uint256 totalFee;   //     \r\n    }\r\n\r\n    mapping(string => CodeStat) public codeStats_;\r\n\r\n    //   \r\n    // 2.5% => 25\r\n    uint256 public fee_;\r\n\r\n    constructor(address _buyBackWallet, uint256 _price, uint256 _fee) {\r\n        buyBackWallet_ = payable(_buyBackWallet);\r\n        price_ = _price;\r\n        fee_ = _fee;\r\n    }\r\n\r\n    function pause() public onlyOwner {\r\n        _pause();\r\n    }\r\n\r\n    function unpause() public onlyOwner {\r\n        _unpause();\r\n    }\r\n\r\n    //   \r\n    function setBuyBackWallet(address _buyBackWallet) public onlyOwner {\r\n        require(_buyBackWallet != address(0), \"buyBackWallet is zero address\");\r\n        buyBackWallet_ = payable(_buyBackWallet);\r\n    }\r\n\r\n    //   \r\n    function setCarPrice(uint256 _price) public onlyOwner {\r\n        require(0 < _price, \"setCarPrice: price must be greater than zero\");\r\n        price_ = _price;\r\n    }\r\n\r\n    //    \r\n    function setFee(uint256 _fee) public onlyOwner {\r\n        fee_ = _fee;\r\n    }\r\n\r\n    //   \r\n    function setRecommendCode(string memory _recommendCode, address _codeOwner) public onlyOwner {\r\n        //  require  zero address       .\r\n        // require(_codeOwner != address(0), \"setRecommendCode: can not set codeOwner to the zero address\");\r\n\r\n        recommendCodes_[_recommendCode] = _codeOwner;\r\n\r\n        if(_codeOwner != address(0)) {\r\n            CodeStat storage codeStat = codeStats_[_recommendCode];\r\n            codeStat.codeOwner = _codeOwner;\r\n        }\r\n    }\r\n\r\n    //  \r\n    function buy(string memory _recommendCode) public payable whenNotPaused {\r\n        string memory recommendCode = _recommendCode;\r\n\r\n        //   \r\n        address payable feeAddress = payable(recommendCodes_[recommendCode]);\r\n\r\n        //   \r\n        uint256 bytelength = bytes(recommendCode).length;\r\n\r\n        //  \r\n        if(0 < bytelength) {\r\n            //    \r\n            require(feeAddress != address(0), \"buy: Invalid recommend code\");\r\n\r\n            //      \r\n            require(0 >= bytes(walletCodes_[msg.sender]).length, \"buy: already registered recommend code\");\r\n\r\n            //    \r\n            walletCodes_[msg.sender] = recommendCode;\r\n        } else {\r\n            //  , 2        \r\n            recommendCode = walletCodes_[msg.sender];\r\n            feeAddress = payable(recommendCodes_[recommendCode]);\r\n        }\r\n\r\n        //  \r\n        uint256 carAmount = msg.value / price_;\r\n        require(carAmount * price_ == msg.value, \"buy: incorrect value\");\r\n\r\n        //   \r\n        uint256 buyBackAmount = msg.value / 2;\r\n        buyBackWallet_.transfer(buyBackAmount);\r\n\r\n        //     \r\n        if(feeAddress != address(0)) {\r\n            // \r\n            uint256 feeAmount = (msg.value * fee_) / 1000;\r\n            if(0 < feeAmount) {\r\n                feeAddress.transfer(feeAmount);\r\n            }\r\n\r\n            // \r\n            CodeStat storage codeStat = codeStats_[recommendCode];\r\n            codeStat.buyCount++;\r\n            codeStat.carAmount += carAmount;\r\n            codeStat.totalFee += feeAmount;\r\n        }\r\n\r\n        emit Buy(msg.sender, carAmount, price_, recommendCode);\r\n    }\r\n\r\n    function withdrawEth(address to) public onlyOwner() {\r\n        require(to != address(0), \"[MimboCar][withdrawEth]: transfer to the zero address\");\r\n        address payable receiver = payable(to);\r\n        receiver.transfer(address(this).balance);\r\n    }\r\n}\r\n",
  "sourcePath": "D:\\github\\mimbo_sol\\contracts\\MimboCarB.sol",
  "compiler": {
    "name": "solc",
    "version": "0.8.19+commit.7dd6d404.Emscripten.clang"
  },
  "schemaVersion": "3.4.13",
  "updatedAt": "2023-07-17T08:22:12.850Z",
  "networkType": "ethereum",
  "devdoc": {
    "events": {
      "Paused(address)": {
        "details": "Emitted when the pause is triggered by `account`."
      },
      "Unpaused(address)": {
        "details": "Emitted when the pause is lifted by `account`."
      }
    },
    "kind": "dev",
    "methods": {
      "owner()": {
        "details": "Returns the address of the current owner."
      },
      "paused()": {
        "details": "Returns true if the contract is paused, and false otherwise."
      },
      "renounceOwnership()": {
        "details": "Leaves the contract without owner. It will not be possible to call `onlyOwner` functions. Can only be called by the current owner. NOTE: Renouncing ownership will leave the contract without an owner, thereby disabling any functionality that is only available to the owner."
      },
      "transferOwnership(address)": {
        "details": "Transfers ownership of the contract to a new account (`newOwner`). Can only be called by the current owner."
      }
    },
    "version": 1
  },
  "userdoc": {
    "kind": "user",
    "methods": {},
    "version": 1
  }
}