{
  "contractName": "MimboCircuitB",
  "abi": [
    {
      "inputs": [
        {
          "internalType": "address",
          "name": "_TokenContract",
          "type": "address"
        },
        {
          "internalType": "address",
          "name": "_TokenRallyHolder",
          "type": "address"
        },
        {
          "internalType": "address",
          "name": "_TokenMergeHolder",
          "type": "address"
        }
      ],
      "stateMutability": "nonpayable",
      "type": "constructor"
    },
    {
      "anonymous": false,
      "inputs": [
        {
          "indexed": true,
          "internalType": "address",
          "name": "from",
          "type": "address"
        },
        {
          "indexed": false,
          "internalType": "uint256",
          "name": "rallyNumber",
          "type": "uint256"
        }
      ],
      "name": "Deposit",
      "type": "event"
    },
    {
      "anonymous": false,
      "inputs": [
        {
          "indexed": true,
          "internalType": "address",
          "name": "from",
          "type": "address"
        },
        {
          "indexed": false,
          "internalType": "uint256",
          "name": "carId",
          "type": "uint256"
        },
        {
          "indexed": false,
          "internalType": "uint256",
          "name": "mergeCount",
          "type": "uint256"
        }
      ],
      "name": "Merge",
      "type": "event"
    },
    {
      "anonymous": false,
      "inputs": [
        {
          "indexed": true,
          "internalType": "address",
          "name": "previousOwner",
          "type": "address"
        },
        {
          "indexed": true,
          "internalType": "address",
          "name": "newOwner",
          "type": "address"
        }
      ],
      "name": "OwnershipTransferred",
      "type": "event"
    },
    {
      "anonymous": false,
      "inputs": [
        {
          "indexed": false,
          "internalType": "address",
          "name": "account",
          "type": "address"
        }
      ],
      "name": "Paused",
      "type": "event"
    },
    {
      "anonymous": false,
      "inputs": [
        {
          "indexed": false,
          "internalType": "address",
          "name": "account",
          "type": "address"
        }
      ],
      "name": "Unpaused",
      "type": "event"
    },
    {
      "anonymous": false,
      "inputs": [
        {
          "indexed": true,
          "internalType": "address",
          "name": "from",
          "type": "address"
        },
        {
          "indexed": false,
          "internalType": "uint256",
          "name": "rallyNumber",
          "type": "uint256"
        }
      ],
      "name": "Withdraw",
      "type": "event"
    },
    {
      "inputs": [],
      "name": "TokenContract_",
      "outputs": [
        {
          "internalType": "contract ERC20",
          "name": "",
          "type": "address"
        }
      ],
      "stateMutability": "view",
      "type": "function"
    },
    {
      "inputs": [],
      "name": "TokenMergeHolder_",
      "outputs": [
        {
          "internalType": "address",
          "name": "",
          "type": "address"
        }
      ],
      "stateMutability": "view",
      "type": "function"
    },
    {
      "inputs": [],
      "name": "TokenRallyHolder_",
      "outputs": [
        {
          "internalType": "address",
          "name": "",
          "type": "address"
        }
      ],
      "stateMutability": "view",
      "type": "function"
    },
    {
      "inputs": [
        {
          "internalType": "uint256",
          "name": "",
          "type": "uint256"
        }
      ],
      "name": "mergePrices",
      "outputs": [
        {
          "internalType": "uint256",
          "name": "",
          "type": "uint256"
        }
      ],
      "stateMutability": "view",
      "type": "function"
    },
    {
      "inputs": [],
      "name": "owner",
      "outputs": [
        {
          "internalType": "address",
          "name": "",
          "type": "address"
        }
      ],
      "stateMutability": "view",
      "type": "function"
    },
    {
      "inputs": [],
      "name": "paused",
      "outputs": [
        {
          "internalType": "bool",
          "name": "",
          "type": "bool"
        }
      ],
      "stateMutability": "view",
      "type": "function"
    },
    {
      "inputs": [
        {
          "internalType": "uint256",
          "name": "",
          "type": "uint256"
        }
      ],
      "name": "rallyDepositPrices",
      "outputs": [
        {
          "internalType": "uint256",
          "name": "",
          "type": "uint256"
        }
      ],
      "stateMutability": "view",
      "type": "function"
    },
    {
      "inputs": [
        {
          "internalType": "address",
          "name": "",
          "type": "address"
        }
      ],
      "name": "rallyNumbers",
      "outputs": [
        {
          "internalType": "uint256",
          "name": "",
          "type": "uint256"
        }
      ],
      "stateMutability": "view",
      "type": "function"
    },
    {
      "inputs": [
        {
          "internalType": "address",
          "name": "",
          "type": "address"
        },
        {
          "internalType": "uint256",
          "name": "",
          "type": "uint256"
        }
      ],
      "name": "rallyTokens",
      "outputs": [
        {
          "internalType": "uint256",
          "name": "",
          "type": "uint256"
        }
      ],
      "stateMutability": "view",
      "type": "function"
    },
    {
      "inputs": [],
      "name": "renounceOwnership",
      "outputs": [],
      "stateMutability": "nonpayable",
      "type": "function"
    },
    {
      "inputs": [
        {
          "internalType": "address",
          "name": "newOwner",
          "type": "address"
        }
      ],
      "name": "transferOwnership",
      "outputs": [],
      "stateMutability": "nonpayable",
      "type": "function"
    },
    {
      "inputs": [],
      "name": "pause",
      "outputs": [],
      "stateMutability": "nonpayable",
      "type": "function"
    },
    {
      "inputs": [],
      "name": "unpause",
      "outputs": [],
      "stateMutability": "nonpayable",
      "type": "function"
    },
    {
      "inputs": [
        {
          "internalType": "uint256[]",
          "name": "_rallyNumber",
          "type": "uint256[]"
        },
        {
          "internalType": "uint256[]",
          "name": "_prices",
          "type": "uint256[]"
        }
      ],
      "name": "setRallyDepositPrices",
      "outputs": [],
      "stateMutability": "nonpayable",
      "type": "function"
    },
    {
      "inputs": [
        {
          "internalType": "uint256[]",
          "name": "_carIds",
          "type": "uint256[]"
        },
        {
          "internalType": "uint256[]",
          "name": "_prices",
          "type": "uint256[]"
        }
      ],
      "name": "setMergePrices",
      "outputs": [],
      "stateMutability": "nonpayable",
      "type": "function"
    },
    {
      "inputs": [
        {
          "internalType": "uint256",
          "name": "rallyNumber",
          "type": "uint256"
        }
      ],
      "name": "deposit",
      "outputs": [],
      "stateMutability": "nonpayable",
      "type": "function"
    },
    {
      "inputs": [
        {
          "internalType": "uint256",
          "name": "rallyNumber",
          "type": "uint256"
        }
      ],
      "name": "withdraw",
      "outputs": [],
      "stateMutability": "nonpayable",
      "type": "function"
    },
    {
      "inputs": [
        {
          "internalType": "uint256",
          "name": "carId",
          "type": "uint256"
        },
        {
          "internalType": "uint256",
          "name": "mergeCount",
          "type": "uint256"
        }
      ],
      "name": "merge",
      "outputs": [],
      "stateMutability": "nonpayable",
      "type": "function"
    },
    {
      "inputs": [
        {
          "internalType": "uint256",
          "name": "rallyNumber",
          "type": "uint256"
        }
      ],
      "name": "getWithdrawTokens",
      "outputs": [
        {
          "internalType": "uint256",
          "name": "tokenAmount",
          "type": "uint256"
        }
      ],
      "stateMutability": "view",
      "type": "function"
    }
  ],
  "bytecode": "0x60806040523480156200001157600080fd5b50604051620028cd380380620028cd833981810160405281019062000037919062000274565b60008060006101000a81548160ff02191690831515021790555062000071620000656200013d60201b60201c565b6200014560201b60201c565b82600160006101000a81548173ffffffffffffffffffffffffffffffffffffffff021916908373ffffffffffffffffffffffffffffffffffffffff16021790555081600260006101000a81548173ffffffffffffffffffffffffffffffffffffffff021916908373ffffffffffffffffffffffffffffffffffffffff16021790555080600360006101000a81548173ffffffffffffffffffffffffffffffffffffffff021916908373ffffffffffffffffffffffffffffffffffffffff160217905550505050620002d0565b600033905090565b60008060019054906101000a900473ffffffffffffffffffffffffffffffffffffffff16905081600060016101000a81548173ffffffffffffffffffffffffffffffffffffffff021916908373ffffffffffffffffffffffffffffffffffffffff1602179055508173ffffffffffffffffffffffffffffffffffffffff168173ffffffffffffffffffffffffffffffffffffffff167f8be0079c531659141344cd1fd0a4f28419497f9722a3daafe3b4186f6b6457e060405160405180910390a35050565b600080fd5b600073ffffffffffffffffffffffffffffffffffffffff82169050919050565b60006200023c826200020f565b9050919050565b6200024e816200022f565b81146200025a57600080fd5b50565b6000815190506200026e8162000243565b92915050565b60008060006060848603121562000290576200028f6200020a565b5b6000620002a0868287016200025d565b9350506020620002b3868287016200025d565b9250506040620002c6868287016200025d565b9150509250925092565b6125ed80620002e06000396000f3fe608060405234801561001057600080fd5b50600436106101215760003560e01c80638456cb59116100ad578063b6b55f2511610071578063b6b55f25146102d0578063d1c2babb146102ec578063ea91074914610308578063f2fde38b14610338578063f608eca61461035457610121565b80638456cb591461022a5780638da5cb5b1461023457806394d1782d14610252578063aaae68e414610282578063b2742961146102b257610121565b80632511a232116100f45780632511a232146101c05780632e1a7d4d146101dc5780633f4ba83a146101f85780635c975abb14610202578063715018a61461022057610121565b806309100ba6146101265780630abad16a146101565780630ca621671461018657806323d23dd4146101a2575b600080fd5b610140600480360381019061013b9190611670565b610372565b60405161014d91906116b6565b60405180910390f35b610170600480360381019061016b91906116fd565b61038a565b60405161017d91906116b6565b60405180910390f35b6101a0600480360381019061019b9190611896565b6103af565b005b6101aa6104c6565b6040516101b7919061191d565b60405180910390f35b6101da60048036038101906101d59190611896565b6104ec565b005b6101f660048036038101906101f19190611938565b610603565b005b610200610914565b005b61020a610926565b6040516102179190611980565b60405180910390f35b61022861093c565b005b610232610950565b005b61023c610962565b604051610249919061191d565b60405180910390f35b61026c60048036038101906102679190611938565b61098b565b60405161027991906116b6565b60405180910390f35b61029c60048036038101906102979190611938565b6109a3565b6040516102a991906116b6565b60405180910390f35b6102ba6109bb565b6040516102c791906119fa565b60405180910390f35b6102ea60048036038101906102e59190611938565b6109e1565b005b61030660048036038101906103019190611a15565b610eca565b005b610322600480360381019061031d9190611938565b611259565b60405161032f91906116b6565b60405180910390f35b610352600480360381019061034d9190611670565b6112b3565b005b61035c611336565b604051610369919061191d565b60405180910390f35b60046020528060005260406000206000915090505481565b6005602052816000526040600020602052806000526040600020600091509150505481565b6103b761135c565b80518251146103fb576040517f08c379a00000000000000000000000000000000000000000000000000000000081526004016103f290611ad8565b60405180910390fd5b60005b82518110156104c157600082828151811061041c5761041b611af8565b5b602002602001015111610464576040517f08c379a000000000000000000000000000000000000000000000000000000000815260040161045b90611b99565b60405180910390fd5b81818151811061047757610476611af8565b5b60200260200101516006600085848151811061049657610495611af8565b5b6020026020010151815260200190815260200160002081905550806104ba90611be8565b90506103fe565b505050565b600360009054906101000a900473ffffffffffffffffffffffffffffffffffffffff1681565b6104f461135c565b8051825114610538576040517f08c379a000000000000000000000000000000000000000000000000000000000815260040161052f90611ca2565b60405180910390fd5b60005b82518110156105fe57600082828151811061055957610558611af8565b5b6020026020010151116105a1576040517f08c379a000000000000000000000000000000000000000000000000000000000815260040161059890611d0e565b60405180910390fd5b8181815181106105b4576105b3611af8565b5b6020026020010151600760008584815181106105d3576105d2611af8565b5b6020026020010151815260200190815260200160002081905550806105f790611be8565b905061053b565b505050565b80600010610646576040517f08c379a000000000000000000000000000000000000000000000000000000000815260040161063d90611d7a565b60405180910390fd5b80600460003373ffffffffffffffffffffffffffffffffffffffff1673ffffffffffffffffffffffffffffffffffffffff16815260200190815260200160002054146106c7576040517f08c379a00000000000000000000000000000000000000000000000000000000081526004016106be90611d7a565b60405180910390fd5b600160009054906101000a900473ffffffffffffffffffffffffffffffffffffffff1673ffffffffffffffffffffffffffffffffffffffff166323b872dd600260009054906101000a900473ffffffffffffffffffffffffffffffffffffffff1633600560003373ffffffffffffffffffffffffffffffffffffffff1673ffffffffffffffffffffffffffffffffffffffff1681526020019081526020016000206000868152602001908152602001600020546040518463ffffffff1660e01b815260040161079893929190611d9a565b6020604051808303816000875af11580156107b7573d6000803e3d6000fd5b505050506040513d601f19601f820116820180604052508101906107db9190611dfd565b61081a576040517f08c379a000000000000000000000000000000000000000000000000000000000815260040161081190611e76565b60405180910390fd5b600460003373ffffffffffffffffffffffffffffffffffffffff1673ffffffffffffffffffffffffffffffffffffffff1681526020019081526020016000206000815461086690611e96565b919050819055506000600560003373ffffffffffffffffffffffffffffffffffffffff1673ffffffffffffffffffffffffffffffffffffffff1681526020019081526020016000206000838152602001908152602001600020819055503373ffffffffffffffffffffffffffffffffffffffff167f884edad9ce6fa2440d8a54cc123490eb96d2768479d49ff9c7366125a94243648260405161090991906116b6565b60405180910390a250565b61091c61135c565b6109246113da565b565b60008060009054906101000a900460ff16905090565b61094461135c565b61094e600061143c565b565b61095861135c565b610960611501565b565b60008060019054906101000a900473ffffffffffffffffffffffffffffffffffffffff16905090565b60066020528060005260406000206000915090505481565b60076020528060005260406000206000915090505481565b600160009054906101000a900473ffffffffffffffffffffffffffffffffffffffff1681565b806001600460003373ffffffffffffffffffffffffffffffffffffffff1673ffffffffffffffffffffffffffffffffffffffff16815260200190815260200160002054610a2e9190611ebf565b14610a6e576040517f08c379a0000000000000000000000000000000000000000000000000000000008152600401610a6590611f3f565b60405180910390fd5b6000600660008381526020019081526020016000205411610ac4576040517f08c379a0000000000000000000000000000000000000000000000000000000008152600401610abb90611fab565b60405180910390fd5b6006600082815260200190815260200160002054600160009054906101000a900473ffffffffffffffffffffffffffffffffffffffff1673ffffffffffffffffffffffffffffffffffffffff166370a08231336040518263ffffffff1660e01b8152600401610b33919061191d565b602060405180830381865afa158015610b50573d6000803e3d6000fd5b505050506040513d601f19601f82011682018060405250810190610b749190611fe0565b1015610bb5576040517f08c379a0000000000000000000000000000000000000000000000000000000008152600401610bac90612059565b60405180910390fd5b6006600082815260200190815260200160002054600160009054906101000a900473ffffffffffffffffffffffffffffffffffffffff1673ffffffffffffffffffffffffffffffffffffffff1663dd62ed3e33306040518363ffffffff1660e01b8152600401610c26929190612079565b602060405180830381865afa158015610c43573d6000803e3d6000fd5b505050506040513d601f19601f82011682018060405250810190610c679190611fe0565b1015610ca8576040517f08c379a0000000000000000000000000000000000000000000000000000000008152600401610c9f90612114565b60405180910390fd5b600160009054906101000a900473ffffffffffffffffffffffffffffffffffffffff1673ffffffffffffffffffffffffffffffffffffffff166323b872dd33600260009054906101000a900473ffffffffffffffffffffffffffffffffffffffff1660066000868152602001908152602001600020546040518463ffffffff1660e01b8152600401610d3c93929190611d9a565b6020604051808303816000875af1158015610d5b573d6000803e3d6000fd5b505050506040513d601f19601f82011682018060405250810190610d7f9190611dfd565b610dbe576040517f08c379a0000000000000000000000000000000000000000000000000000000008152600401610db590612180565b60405180910390fd5b600460003373ffffffffffffffffffffffffffffffffffffffff1673ffffffffffffffffffffffffffffffffffffffff16815260200190815260200160002060008154610e0a90611be8565b919050819055506006600082815260200190815260200160002054600560003373ffffffffffffffffffffffffffffffffffffffff1673ffffffffffffffffffffffffffffffffffffffff1681526020019081526020016000206000838152602001908152602001600020819055503373ffffffffffffffffffffffffffffffffffffffff167fe1fffcc4923d04b559f4d29a8bfc6cda04eb5b0d3c460751c2402c5c5cc9109c82604051610ebf91906116b6565b60405180910390a250565b6000600760008481526020019081526020016000205411610f20576040517f08c379a0000000000000000000000000000000000000000000000000000000008152600401610f17906121ec565b60405180910390fd5b6000600760008481526020019081526020016000205482610f41919061220c565b905080600160009054906101000a900473ffffffffffffffffffffffffffffffffffffffff1673ffffffffffffffffffffffffffffffffffffffff166370a08231336040518263ffffffff1660e01b8152600401610f9f919061191d565b602060405180830381865afa158015610fbc573d6000803e3d6000fd5b505050506040513d601f19601f82011682018060405250810190610fe09190611fe0565b1015611021576040517f08c379a00000000000000000000000000000000000000000000000000000000081526004016110189061229a565b60405180910390fd5b80600160009054906101000a900473ffffffffffffffffffffffffffffffffffffffff1673ffffffffffffffffffffffffffffffffffffffff1663dd62ed3e33306040518363ffffffff1660e01b815260040161107f929190612079565b602060405180830381865afa15801561109c573d6000803e3d6000fd5b505050506040513d601f19601f820116820180604052508101906110c09190611fe0565b1015611101576040517f08c379a00000000000000000000000000000000000000000000000000000000081526004016110f89061232c565b60405180910390fd5b600160009054906101000a900473ffffffffffffffffffffffffffffffffffffffff1673ffffffffffffffffffffffffffffffffffffffff166323b872dd33600360009054906101000a900473ffffffffffffffffffffffffffffffffffffffff16846040518463ffffffff1660e01b815260040161118293929190611d9a565b6020604051808303816000875af11580156111a1573d6000803e3d6000fd5b505050506040513d601f19601f820116820180604052508101906111c59190611dfd565b611204576040517f08c379a00000000000000000000000000000000000000000000000000000000081526004016111fb90612398565b60405180910390fd5b3373ffffffffffffffffffffffffffffffffffffffff167f8421b0f95c0765e1ffbc4d13f827d1bdbee29eca261a6b9c2fa762e07409a148848460405161124c9291906123b8565b60405180910390a2505050565b6000600560003373ffffffffffffffffffffffffffffffffffffffff1673ffffffffffffffffffffffffffffffffffffffff1681526020019081526020016000206000838152602001908152602001600020549050919050565b6112bb61135c565b600073ffffffffffffffffffffffffffffffffffffffff168173ffffffffffffffffffffffffffffffffffffffff160361132a576040517f08c379a000000000000000000000000000000000000000000000000000000000815260040161132190612453565b60405180910390fd5b6113338161143c565b50565b600260009054906101000a900473ffffffffffffffffffffffffffffffffffffffff1681565b611364611563565b73ffffffffffffffffffffffffffffffffffffffff16611382610962565b73ffffffffffffffffffffffffffffffffffffffff16146113d8576040517f08c379a00000000000000000000000000000000000000000000000000000000081526004016113cf906124bf565b60405180910390fd5b565b6113e261156b565b60008060006101000a81548160ff0219169083151502179055507f5db9ee0a495bf2e6ff9c91a7834c1ba4fdd244a5e8aa4e537bd38aeae4b073aa611425611563565b604051611432919061191d565b60405180910390a1565b60008060019054906101000a900473ffffffffffffffffffffffffffffffffffffffff16905081600060016101000a81548173ffffffffffffffffffffffffffffffffffffffff021916908373ffffffffffffffffffffffffffffffffffffffff1602179055508173ffffffffffffffffffffffffffffffffffffffff168173ffffffffffffffffffffffffffffffffffffffff167f8be0079c531659141344cd1fd0a4f28419497f9722a3daafe3b4186f6b6457e060405160405180910390a35050565b6115096115b4565b60016000806101000a81548160ff0219169083151502179055507f62e78cea01bee320cd4e420270b5ea74000d11b0c9f74754ebdbfc544b05a25861154c611563565b604051611559919061191d565b60405180910390a1565b600033905090565b611573610926565b6115b2576040517f08c379a00000000000000000000000000000000000000000000000000000000081526004016115a99061252b565b60405180910390fd5b565b6115bc610926565b156115fc576040517f08c379a00000000000000000000000000000000000000000000000000000000081526004016115f390612597565b60405180910390fd5b565b6000604051905090565b600080fd5b600080fd5b600073ffffffffffffffffffffffffffffffffffffffff82169050919050565b600061163d82611612565b9050919050565b61164d81611632565b811461165857600080fd5b50565b60008135905061166a81611644565b92915050565b60006020828403121561168657611685611608565b5b60006116948482850161165b565b91505092915050565b6000819050919050565b6116b08161169d565b82525050565b60006020820190506116cb60008301846116a7565b92915050565b6116da8161169d565b81146116e557600080fd5b50565b6000813590506116f7816116d1565b92915050565b6000806040838503121561171457611713611608565b5b60006117228582860161165b565b9250506020611733858286016116e8565b9150509250929050565b600080fd5b6000601f19601f8301169050919050565b7f4e487b7100000000000000000000000000000000000000000000000000000000600052604160045260246000fd5b61178b82611742565b810181811067ffffffffffffffff821117156117aa576117a9611753565b5b80604052505050565b60006117bd6115fe565b90506117c98282611782565b919050565b600067ffffffffffffffff8211156117e9576117e8611753565b5b602082029050602081019050919050565b600080fd5b600061181261180d846117ce565b6117b3565b90508083825260208201905060208402830185811115611835576118346117fa565b5b835b8181101561185e578061184a88826116e8565b845260208401935050602081019050611837565b5050509392505050565b600082601f83011261187d5761187c61173d565b5b813561188d8482602086016117ff565b91505092915050565b600080604083850312156118ad576118ac611608565b5b600083013567ffffffffffffffff8111156118cb576118ca61160d565b5b6118d785828601611868565b925050602083013567ffffffffffffffff8111156118f8576118f761160d565b5b61190485828601611868565b9150509250929050565b61191781611632565b82525050565b6000602082019050611932600083018461190e565b92915050565b60006020828403121561194e5761194d611608565b5b600061195c848285016116e8565b91505092915050565b60008115159050919050565b61197a81611965565b82525050565b60006020820190506119956000830184611971565b92915050565b6000819050919050565b60006119c06119bb6119b684611612565b61199b565b611612565b9050919050565b60006119d2826119a5565b9050919050565b60006119e4826119c7565b9050919050565b6119f4816119d9565b82525050565b6000602082019050611a0f60008301846119eb565b92915050565b60008060408385031215611a2c57611a2b611608565b5b6000611a3a858286016116e8565b9250506020611a4b858286016116e8565b9150509250929050565b600082825260208201905092915050565b7f73657452616c6c794465706f7369745072696365733a206e756d62657273206160008201527f6e642070726963657320617265206e6f74206d61746368656400000000000000602082015250565b6000611ac2603983611a55565b9150611acd82611a66565b604082019050919050565b60006020820190508181036000830152611af181611ab5565b9050919050565b7f4e487b7100000000000000000000000000000000000000000000000000000000600052603260045260246000fd5b7f73657452616c6c794465706f7369745072696365733a20496e76616c6964207060008201527f7269636500000000000000000000000000000000000000000000000000000000602082015250565b6000611b83602483611a55565b9150611b8e82611b27565b604082019050919050565b60006020820190508181036000830152611bb281611b76565b9050919050565b7f4e487b7100000000000000000000000000000000000000000000000000000000600052601160045260246000fd5b6000611bf38261169d565b91507fffffffffffffffffffffffffffffffffffffffffffffffffffffffffffffffff8203611c2557611c24611bb9565b5b600182019050919050565b7f7365744d657267655072696365733a2063617249647320616e6420707269636560008201527f7320617265206e6f74206d617463686564000000000000000000000000000000602082015250565b6000611c8c603183611a55565b9150611c9782611c30565b604082019050919050565b60006020820190508181036000830152611cbb81611c7f565b9050919050565b7f7365744d657267655072696365733a20496e76616c6964207072696365000000600082015250565b6000611cf8601d83611a55565b9150611d0382611cc2565b602082019050919050565b60006020820190508181036000830152611d2781611ceb565b9050919050565b7f77697468647261773a20496e76616c69642072616c6c794e756d626572000000600082015250565b6000611d64601d83611a55565b9150611d6f82611d2e565b602082019050919050565b60006020820190508181036000830152611d9381611d57565b9050919050565b6000606082019050611daf600083018661190e565b611dbc602083018561190e565b611dc960408301846116a7565b949350505050565b611dda81611965565b8114611de557600080fd5b50565b600081519050611df781611dd1565b92915050565b600060208284031215611e1357611e12611608565b5b6000611e2184828501611de8565b91505092915050565b7f77697468647261773a206572633230207472616e73666572206661696c656400600082015250565b6000611e60601f83611a55565b9150611e6b82611e2a565b602082019050919050565b60006020820190508181036000830152611e8f81611e53565b9050919050565b6000611ea18261169d565b915060008203611eb457611eb3611bb9565b5b600182039050919050565b6000611eca8261169d565b9150611ed58361169d565b9250828201905080821115611eed57611eec611bb9565b5b92915050565b7f6465706f7369743a20496e76616c6964206f7264657200000000000000000000600082015250565b6000611f29601683611a55565b9150611f3482611ef3565b602082019050919050565b60006020820190508181036000830152611f5881611f1c565b9050919050565b7f6465706f7369743a20496e766c6169642072616c6c794e756d62657200000000600082015250565b6000611f95601c83611a55565b9150611fa082611f5f565b602082019050919050565b60006020820190508181036000830152611fc481611f88565b9050919050565b600081519050611fda816116d1565b92915050565b600060208284031215611ff657611ff5611608565b5b600061200484828501611fcb565b91505092915050565b7f6465706f7369743a204e6f7420656e6f75676820746f6b656e20616d6f756e74600082015250565b6000612043602083611a55565b915061204e8261200d565b602082019050919050565b6000602082019050818103600083015261207281612036565b9050919050565b600060408201905061208e600083018561190e565b61209b602083018461190e565b9392505050565b7f6465706f7369743a204e6f7420656e6f75676820616c6c6f77616e636564207460008201527f6f6b656e20616d6f756e74000000000000000000000000000000000000000000602082015250565b60006120fe602b83611a55565b9150612109826120a2565b604082019050919050565b6000602082019050818103600083015261212d816120f1565b9050919050565b7f6465706f7369743a206572633230207472616e73666572206661696c65640000600082015250565b600061216a601e83611a55565b915061217582612134565b602082019050919050565b600060208201905081810360008301526121998161215d565b9050919050565b7f6d657267653a20496e766c616964206361724964000000000000000000000000600082015250565b60006121d6601483611a55565b91506121e1826121a0565b602082019050919050565b60006020820190508181036000830152612205816121c9565b9050919050565b60006122178261169d565b91506122228361169d565b92508282026122308161169d565b9150828204841483151761224757612246611bb9565b5b5092915050565b7f6d657267653a204e6f7420656e6f75676820746f6b656e20616d6f756e740000600082015250565b6000612284601e83611a55565b915061228f8261224e565b602082019050919050565b600060208201905081810360008301526122b381612277565b9050919050565b7f6d657267653a204e6f7420656e6f75676820616c6c6f77616e63656420746f6b60008201527f656e20616d6f756e740000000000000000000000000000000000000000000000602082015250565b6000612316602983611a55565b9150612321826122ba565b604082019050919050565b6000602082019050818103600083015261234581612309565b9050919050565b7f6d657267653a206572633230207472616e73666572206661696c656400000000600082015250565b6000612382601c83611a55565b915061238d8261234c565b602082019050919050565b600060208201905081810360008301526123b181612375565b9050919050565b60006040820190506123cd60008301856116a7565b6123da60208301846116a7565b9392505050565b7f4f776e61626c653a206e6577206f776e657220697320746865207a65726f206160008201527f6464726573730000000000000000000000000000000000000000000000000000602082015250565b600061243d602683611a55565b9150612448826123e1565b604082019050919050565b6000602082019050818103600083015261246c81612430565b9050919050565b7f4f776e61626c653a2063616c6c6572206973206e6f7420746865206f776e6572600082015250565b60006124a9602083611a55565b91506124b482612473565b602082019050919050565b600060208201905081810360008301526124d88161249c565b9050919050565b7f5061757361626c653a206e6f7420706175736564000000000000000000000000600082015250565b6000612515601483611a55565b9150612520826124df565b602082019050919050565b6000602082019050818103600083015261254481612508565b9050919050565b7f5061757361626c653a2070617573656400000000000000000000000000000000600082015250565b6000612581601083611a55565b915061258c8261254b565b602082019050919050565b600060208201905081810360008301526125b081612574565b905091905056fea26469706673582212202c9b6152fde5e2a950dd5c085a53468051c2629cd509e3e5a4d8b3333cc65e3a64736f6c63430008130033",
  "immutableReferences": {},
  "source": "// SPDX-License-Identifier: MIT\r\npragma solidity ^0.8.14;\r\n\r\nimport \"@openzeppelin/contracts/token/ERC20/ERC20.sol\";\r\nimport \"@openzeppelin/contracts/access/Ownable.sol\";\r\nimport \"@openzeppelin/contracts/security/Pausable.sol\";\r\n\r\ncontract MimboCircuitB is Pausable, Ownable {\r\n    ERC20 public TokenContract_;\r\n    address public TokenRallyHolder_;\r\n    address public TokenMergeHolder_;\r\n\r\n    event Deposit(address indexed from, uint256 rallyNumber);\r\n    event Withdraw(address indexed from, uint256 rallyNumber);\r\n    event Merge(address indexed from, uint256 carId, uint256 mergeCount);\r\n\r\n    //   .  => \r\n    mapping(address => uint256) public rallyNumbers;\r\n\r\n    //       .  =>  =>  \r\n    mapping(address => mapping(uint256 => uint256)) public rallyTokens;\r\n\r\n    //       .  =>  \r\n    mapping(uint256 => uint256) public rallyDepositPrices;\r\n\r\n    //  ID 1  .  ID =>    \r\n    mapping(uint256 => uint256) public mergePrices;\r\n\r\n    constructor(address _TokenContract, address _TokenRallyHolder, address _TokenMergeHolder) {\r\n        TokenContract_ = ERC20(_TokenContract);\r\n        TokenRallyHolder_ = _TokenRallyHolder;\r\n        TokenMergeHolder_ = _TokenMergeHolder;\r\n    }\r\n\r\n    function pause() public onlyOwner {\r\n        _pause();\r\n    }\r\n\r\n    function unpause() public onlyOwner {\r\n        _unpause();\r\n    }\r\n\r\n    //     \r\n    function setRallyDepositPrices(uint256[] memory _rallyNumber, uint256[] memory _prices) public onlyOwner {\r\n        require(_rallyNumber.length == _prices.length, \"setRallyDepositPrices: numbers and prices are not matched\");\r\n        for (uint256 i = 0; i < _rallyNumber.length; ++i) {\r\n            require(_prices[i] > 0, \"setRallyDepositPrices: Invalid price\");\r\n            rallyDepositPrices[_rallyNumber[i]] = _prices[i];\r\n        }\r\n    }\r\n\r\n    //     \r\n    function setMergePrices(uint256[] memory _carIds, uint256[] memory _prices) public onlyOwner {\r\n        require(_carIds.length == _prices.length, \"setMergePrices: carIds and prices are not matched\");\r\n        for (uint256 i = 0; i < _carIds.length; ++i) {\r\n            require(_prices[i] > 0, \"setMergePrices: Invalid price\");\r\n            mergePrices[_carIds[i]] = _prices[i];\r\n        }\r\n    }\r\n\r\n    function deposit(uint256 rallyNumber) public {\r\n        require(rallyNumbers[msg.sender] + 1 == rallyNumber, \"deposit: Invalid order\");\r\n        require(rallyDepositPrices[rallyNumber] > 0, \"deposit: Invlaid rallyNumber\");\r\n        require(TokenContract_.balanceOf(msg.sender) >= rallyDepositPrices[rallyNumber], \"deposit: Not enough token amount\");\r\n        require(TokenContract_.allowance(msg.sender, address(this)) >= rallyDepositPrices[rallyNumber], \"deposit: Not enough allowanced token amount\");\r\n\r\n        require(TokenContract_.transferFrom(msg.sender, TokenRallyHolder_, rallyDepositPrices[rallyNumber]), \"deposit: erc20 transfer failed\");\r\n\r\n        ++rallyNumbers[msg.sender];\r\n        rallyTokens[msg.sender][rallyNumber] = rallyDepositPrices[rallyNumber];\r\n\r\n        emit Deposit(msg.sender, rallyNumber);\r\n    }\r\n\r\n    function withdraw(uint256 rallyNumber) public {\r\n        require(0 < rallyNumber, \"withdraw: Invalid rallyNumber\");\r\n        require(rallyNumbers[msg.sender] == rallyNumber, \"withdraw: Invalid rallyNumber\");\r\n\r\n        require(TokenContract_.transferFrom(TokenRallyHolder_, msg.sender, rallyTokens[msg.sender][rallyNumber]), \"withdraw: erc20 transfer failed\");\r\n\r\n        --rallyNumbers[msg.sender];\r\n        rallyTokens[msg.sender][rallyNumber] = 0;\r\n\r\n        emit Withdraw(msg.sender, rallyNumber);\r\n    }\r\n\r\n    function merge(uint256 carId, uint256 mergeCount) public {\r\n        require(mergePrices[carId] > 0, \"merge: Invlaid carId\");\r\n\r\n        uint256 tokenAmount = mergeCount * mergePrices[carId];\r\n\r\n        require(TokenContract_.balanceOf(msg.sender) >= tokenAmount, \"merge: Not enough token amount\");\r\n        require(TokenContract_.allowance(msg.sender, address(this)) >= tokenAmount, \"merge: Not enough allowanced token amount\");\r\n\r\n        require(TokenContract_.transferFrom(msg.sender, TokenMergeHolder_, tokenAmount), \"merge: erc20 transfer failed\");\r\n\r\n        emit Merge(msg.sender, carId, mergeCount);\r\n    }\r\n\r\n    // getter\r\n    //  &       \r\n    function getWithdrawTokens(uint256 rallyNumber) public view returns (uint256 tokenAmount) {\r\n        return rallyTokens[msg.sender][rallyNumber];\r\n    }\r\n}\r\n",
  "sourcePath": "C:\\Works\\1_Github\\mimbo_sol\\contracts\\MimboCircuitB.sol",
  "compiler": {
    "name": "solc",
    "version": "0.8.19+commit.7dd6d404.Emscripten.clang"
  },
  "schemaVersion": "3.4.13",
  "updatedAt": "2023-07-05T05:06:28.485Z",
  "devdoc": {
    "events": {
      "Paused(address)": {
        "details": "Emitted when the pause is triggered by `account`."
      },
      "Unpaused(address)": {
        "details": "Emitted when the pause is lifted by `account`."
      }
    },
    "kind": "dev",
    "methods": {
      "owner()": {
        "details": "Returns the address of the current owner."
      },
      "paused()": {
        "details": "Returns true if the contract is paused, and false otherwise."
      },
      "renounceOwnership()": {
        "details": "Leaves the contract without owner. It will not be possible to call `onlyOwner` functions. Can only be called by the current owner. NOTE: Renouncing ownership will leave the contract without an owner, thereby disabling any functionality that is only available to the owner."
      },
      "transferOwnership(address)": {
        "details": "Transfers ownership of the contract to a new account (`newOwner`). Can only be called by the current owner."
      }
    },
    "version": 1
  },
  "userdoc": {
    "kind": "user",
    "methods": {},
    "version": 1
  }
}