{
  "contractName": "MimboCircuitB",
  "abi": [
    {
      "inputs": [
        {
          "internalType": "address",
          "name": "_TokenContract",
          "type": "address"
        },
        {
          "internalType": "address",
          "name": "_TokenRallyHolder",
          "type": "address"
        },
        {
          "internalType": "address",
          "name": "_TokenMergeHolder",
          "type": "address"
        }
      ],
      "stateMutability": "nonpayable",
      "type": "constructor"
    },
    {
      "anonymous": false,
      "inputs": [
        {
          "indexed": true,
          "internalType": "address",
          "name": "from",
          "type": "address"
        },
        {
          "indexed": false,
          "internalType": "uint256",
          "name": "earnIdx",
          "type": "uint256"
        }
      ],
      "name": "Claim",
      "type": "event"
    },
    {
      "anonymous": false,
      "inputs": [
        {
          "indexed": true,
          "internalType": "address",
          "name": "from",
          "type": "address"
        },
        {
          "indexed": false,
          "internalType": "uint256",
          "name": "rallyNumber",
          "type": "uint256"
        }
      ],
      "name": "Deposit",
      "type": "event"
    },
    {
      "anonymous": false,
      "inputs": [
        {
          "indexed": true,
          "internalType": "address",
          "name": "from",
          "type": "address"
        },
        {
          "indexed": false,
          "internalType": "uint256",
          "name": "carId",
          "type": "uint256"
        },
        {
          "indexed": false,
          "internalType": "uint256",
          "name": "mergeCount",
          "type": "uint256"
        }
      ],
      "name": "Merge",
      "type": "event"
    },
    {
      "anonymous": false,
      "inputs": [
        {
          "indexed": true,
          "internalType": "address",
          "name": "previousOwner",
          "type": "address"
        },
        {
          "indexed": true,
          "internalType": "address",
          "name": "newOwner",
          "type": "address"
        }
      ],
      "name": "OwnershipTransferred",
      "type": "event"
    },
    {
      "anonymous": false,
      "inputs": [
        {
          "indexed": false,
          "internalType": "address",
          "name": "account",
          "type": "address"
        }
      ],
      "name": "Paused",
      "type": "event"
    },
    {
      "anonymous": false,
      "inputs": [
        {
          "indexed": false,
          "internalType": "address",
          "name": "account",
          "type": "address"
        }
      ],
      "name": "Unpaused",
      "type": "event"
    },
    {
      "anonymous": false,
      "inputs": [
        {
          "indexed": true,
          "internalType": "address",
          "name": "from",
          "type": "address"
        },
        {
          "indexed": false,
          "internalType": "uint256",
          "name": "rallyNumber",
          "type": "uint256"
        }
      ],
      "name": "Withdraw",
      "type": "event"
    },
    {
      "inputs": [],
      "name": "TokenContract_",
      "outputs": [
        {
          "internalType": "contract ERC20",
          "name": "",
          "type": "address"
        }
      ],
      "stateMutability": "view",
      "type": "function",
      "constant": true
    },
    {
      "inputs": [],
      "name": "TokenMergeHolder_",
      "outputs": [
        {
          "internalType": "address",
          "name": "",
          "type": "address"
        }
      ],
      "stateMutability": "view",
      "type": "function",
      "constant": true
    },
    {
      "inputs": [],
      "name": "TokenRallyHolder_",
      "outputs": [
        {
          "internalType": "address",
          "name": "",
          "type": "address"
        }
      ],
      "stateMutability": "view",
      "type": "function",
      "constant": true
    },
    {
      "inputs": [
        {
          "internalType": "uint256",
          "name": "",
          "type": "uint256"
        }
      ],
      "name": "earns",
      "outputs": [
        {
          "internalType": "bool",
          "name": "",
          "type": "bool"
        }
      ],
      "stateMutability": "view",
      "type": "function",
      "constant": true
    },
    {
      "inputs": [
        {
          "internalType": "uint256",
          "name": "",
          "type": "uint256"
        }
      ],
      "name": "mergePrices",
      "outputs": [
        {
          "internalType": "uint256",
          "name": "",
          "type": "uint256"
        }
      ],
      "stateMutability": "view",
      "type": "function",
      "constant": true
    },
    {
      "inputs": [],
      "name": "owner",
      "outputs": [
        {
          "internalType": "address",
          "name": "",
          "type": "address"
        }
      ],
      "stateMutability": "view",
      "type": "function",
      "constant": true
    },
    {
      "inputs": [],
      "name": "paused",
      "outputs": [
        {
          "internalType": "bool",
          "name": "",
          "type": "bool"
        }
      ],
      "stateMutability": "view",
      "type": "function",
      "constant": true
    },
    {
      "inputs": [
        {
          "internalType": "uint256",
          "name": "",
          "type": "uint256"
        }
      ],
      "name": "rallyDepositPrices",
      "outputs": [
        {
          "internalType": "uint256",
          "name": "",
          "type": "uint256"
        }
      ],
      "stateMutability": "view",
      "type": "function",
      "constant": true
    },
    {
      "inputs": [
        {
          "internalType": "address",
          "name": "",
          "type": "address"
        }
      ],
      "name": "rallyNumbers",
      "outputs": [
        {
          "internalType": "uint256",
          "name": "",
          "type": "uint256"
        }
      ],
      "stateMutability": "view",
      "type": "function",
      "constant": true
    },
    {
      "inputs": [
        {
          "internalType": "address",
          "name": "",
          "type": "address"
        },
        {
          "internalType": "uint256",
          "name": "",
          "type": "uint256"
        }
      ],
      "name": "rallyTokens",
      "outputs": [
        {
          "internalType": "uint256",
          "name": "",
          "type": "uint256"
        }
      ],
      "stateMutability": "view",
      "type": "function",
      "constant": true
    },
    {
      "inputs": [],
      "name": "renounceOwnership",
      "outputs": [],
      "stateMutability": "nonpayable",
      "type": "function"
    },
    {
      "inputs": [
        {
          "internalType": "address",
          "name": "newOwner",
          "type": "address"
        }
      ],
      "name": "transferOwnership",
      "outputs": [],
      "stateMutability": "nonpayable",
      "type": "function"
    },
    {
      "inputs": [],
      "name": "pause",
      "outputs": [],
      "stateMutability": "nonpayable",
      "type": "function"
    },
    {
      "inputs": [],
      "name": "unpause",
      "outputs": [],
      "stateMutability": "nonpayable",
      "type": "function"
    },
    {
      "inputs": [
        {
          "internalType": "uint256[]",
          "name": "_rallyNumber",
          "type": "uint256[]"
        },
        {
          "internalType": "uint256[]",
          "name": "_prices",
          "type": "uint256[]"
        }
      ],
      "name": "setRallyDepositPrices",
      "outputs": [],
      "stateMutability": "nonpayable",
      "type": "function"
    },
    {
      "inputs": [
        {
          "internalType": "uint256[]",
          "name": "_carIds",
          "type": "uint256[]"
        },
        {
          "internalType": "uint256[]",
          "name": "_prices",
          "type": "uint256[]"
        }
      ],
      "name": "setMergePrices",
      "outputs": [],
      "stateMutability": "nonpayable",
      "type": "function"
    },
    {
      "inputs": [
        {
          "internalType": "uint256",
          "name": "rallyNumber",
          "type": "uint256"
        }
      ],
      "name": "deposit",
      "outputs": [],
      "stateMutability": "nonpayable",
      "type": "function"
    },
    {
      "inputs": [
        {
          "internalType": "uint256",
          "name": "rallyNumber",
          "type": "uint256"
        }
      ],
      "name": "withdraw",
      "outputs": [],
      "stateMutability": "nonpayable",
      "type": "function"
    },
    {
      "inputs": [
        {
          "internalType": "uint256",
          "name": "carId",
          "type": "uint256"
        },
        {
          "internalType": "uint256",
          "name": "mergeCount",
          "type": "uint256"
        }
      ],
      "name": "merge",
      "outputs": [],
      "stateMutability": "nonpayable",
      "type": "function"
    },
    {
      "inputs": [
        {
          "internalType": "uint256",
          "name": "earnIdx",
          "type": "uint256"
        }
      ],
      "name": "claim",
      "outputs": [],
      "stateMutability": "nonpayable",
      "type": "function"
    },
    {
      "inputs": [
        {
          "internalType": "uint256",
          "name": "rallyNumber",
          "type": "uint256"
        }
      ],
      "name": "getWithdrawTokens",
      "outputs": [
        {
          "internalType": "uint256",
          "name": "tokenAmount",
          "type": "uint256"
        }
      ],
      "stateMutability": "view",
      "type": "function",
      "constant": true
    }
  ],
  "bytecode": "0x60806040523480156200001157600080fd5b5060405162002abf38038062002abf833981810160405281019062000037919062000274565b60008060006101000a81548160ff02191690831515021790555062000071620000656200013d60201b60201c565b6200014560201b60201c565b82600160006101000a81548173ffffffffffffffffffffffffffffffffffffffff021916908373ffffffffffffffffffffffffffffffffffffffff16021790555081600260006101000a81548173ffffffffffffffffffffffffffffffffffffffff021916908373ffffffffffffffffffffffffffffffffffffffff16021790555080600360006101000a81548173ffffffffffffffffffffffffffffffffffffffff021916908373ffffffffffffffffffffffffffffffffffffffff160217905550505050620002d0565b600033905090565b60008060019054906101000a900473ffffffffffffffffffffffffffffffffffffffff16905081600060016101000a81548173ffffffffffffffffffffffffffffffffffffffff021916908373ffffffffffffffffffffffffffffffffffffffff1602179055508173ffffffffffffffffffffffffffffffffffffffff168173ffffffffffffffffffffffffffffffffffffffff167f8be0079c531659141344cd1fd0a4f28419497f9722a3daafe3b4186f6b6457e060405160405180910390a35050565b600080fd5b600073ffffffffffffffffffffffffffffffffffffffff82169050919050565b60006200023c826200020f565b9050919050565b6200024e816200022f565b81146200025a57600080fd5b50565b6000815190506200026e8162000243565b92915050565b60008060006060848603121562000290576200028f6200020a565b5b6000620002a0868287016200025d565b9350506020620002b3868287016200025d565b9250506040620002c6868287016200025d565b9150509250925092565b6127df80620002e06000396000f3fe608060405234801561001057600080fd5b50600436106101375760003560e01c80638456cb59116100b8578063b6b55f251161007c578063b6b55f2514610302578063d1c2babb1461031e578063ea9107491461033a578063f2fde38b1461036a578063f608eca614610386578063f8a9baab146103a457610137565b80638456cb591461025c5780638da5cb5b1461026657806394d1782d14610284578063aaae68e4146102b4578063b2742961146102e457610137565b80632e1a7d4d116100ff5780632e1a7d4d146101f2578063379607f51461020e5780633f4ba83a1461022a5780635c975abb14610234578063715018a61461025257610137565b806309100ba61461013c5780630abad16a1461016c5780630ca621671461019c57806323d23dd4146101b85780632511a232146101d6575b600080fd5b610156600480360381019061015191906117f6565b6103d4565b604051610163919061183c565b60405180910390f35b61018660048036038101906101819190611883565b6103ec565b604051610193919061183c565b60405180910390f35b6101b660048036038101906101b19190611a1c565b610411565b005b6101c0610528565b6040516101cd9190611aa3565b60405180910390f35b6101f060048036038101906101eb9190611a1c565b61054e565b005b61020c60048036038101906102079190611abe565b610665565b005b61022860048036038101906102239190611abe565b61097e565b005b610232610a6a565b005b61023c610a7c565b6040516102499190611b06565b60405180910390f35b61025a610a92565b005b610264610aa6565b005b61026e610ab8565b60405161027b9190611aa3565b60405180910390f35b61029e60048036038101906102999190611abe565b610ae1565b6040516102ab919061183c565b60405180910390f35b6102ce60048036038101906102c99190611abe565b610af9565b6040516102db919061183c565b60405180910390f35b6102ec610b11565b6040516102f99190611b80565b60405180910390f35b61031c60048036038101906103179190611abe565b610b37565b005b61033860048036038101906103339190611b9b565b611028565b005b610354600480360381019061034f9190611abe565b6113bf565b604051610361919061183c565b60405180910390f35b610384600480360381019061037f91906117f6565b611419565b005b61038e61149c565b60405161039b9190611aa3565b60405180910390f35b6103be60048036038101906103b99190611abe565b6114c2565b6040516103cb9190611b06565b60405180910390f35b60046020528060005260406000206000915090505481565b6005602052816000526040600020602052806000526040600020600091509150505481565b6104196114e2565b805182511461045d576040517f08c379a000000000000000000000000000000000000000000000000000000000815260040161045490611c5e565b60405180910390fd5b60005b825181101561052357600082828151811061047e5761047d611c7e565b5b6020026020010151116104c6576040517f08c379a00000000000000000000000000000000000000000000000000000000081526004016104bd90611d1f565b60405180910390fd5b8181815181106104d9576104d8611c7e565b5b6020026020010151600660008584815181106104f8576104f7611c7e565b5b60200260200101518152602001908152602001600020819055508061051c90611d6e565b9050610460565b505050565b600360009054906101000a900473ffffffffffffffffffffffffffffffffffffffff1681565b6105566114e2565b805182511461059a576040517f08c379a000000000000000000000000000000000000000000000000000000000815260040161059190611e28565b60405180910390fd5b60005b82518110156106605760008282815181106105bb576105ba611c7e565b5b602002602001015111610603576040517f08c379a00000000000000000000000000000000000000000000000000000000081526004016105fa90611e94565b60405180910390fd5b81818151811061061657610615611c7e565b5b60200260200101516007600085848151811061063557610634611c7e565b5b60200260200101518152602001908152602001600020819055508061065990611d6e565b905061059d565b505050565b61066d611560565b806000106106b0576040517f08c379a00000000000000000000000000000000000000000000000000000000081526004016106a790611f00565b60405180910390fd5b80600460003373ffffffffffffffffffffffffffffffffffffffff1673ffffffffffffffffffffffffffffffffffffffff1681526020019081526020016000205414610731576040517f08c379a000000000000000000000000000000000000000000000000000000000815260040161072890611f00565b60405180910390fd5b600160009054906101000a900473ffffffffffffffffffffffffffffffffffffffff1673ffffffffffffffffffffffffffffffffffffffff166323b872dd600260009054906101000a900473ffffffffffffffffffffffffffffffffffffffff1633600560003373ffffffffffffffffffffffffffffffffffffffff1673ffffffffffffffffffffffffffffffffffffffff1681526020019081526020016000206000868152602001908152602001600020546040518463ffffffff1660e01b815260040161080293929190611f20565b6020604051808303816000875af1158015610821573d6000803e3d6000fd5b505050506040513d601f19601f820116820180604052508101906108459190611f83565b610884576040517f08c379a000000000000000000000000000000000000000000000000000000000815260040161087b90611ffc565b60405180910390fd5b600460003373ffffffffffffffffffffffffffffffffffffffff1673ffffffffffffffffffffffffffffffffffffffff168152602001908152602001600020600081546108d09061201c565b919050819055506000600560003373ffffffffffffffffffffffffffffffffffffffff1673ffffffffffffffffffffffffffffffffffffffff1681526020019081526020016000206000838152602001908152602001600020819055503373ffffffffffffffffffffffffffffffffffffffff167f884edad9ce6fa2440d8a54cc123490eb96d2768479d49ff9c7366125a942436482604051610973919061183c565b60405180910390a250565b610986611560565b600015156008600083815260200190815260200160002060009054906101000a900460ff161515146109ed576040517f08c379a00000000000000000000000000000000000000000000000000000000081526004016109e490612091565b60405180910390fd5b60016008600083815260200190815260200160002060006101000a81548160ff0219169083151502179055503373ffffffffffffffffffffffffffffffffffffffff167f47cee97cb7acd717b3c0aa1435d004cd5b3c8c57d70dbceb4e4458bbd60e39d482604051610a5f919061183c565b60405180910390a250565b610a726114e2565b610a7a6115aa565b565b60008060009054906101000a900460ff16905090565b610a9a6114e2565b610aa4600061160c565b565b610aae6114e2565b610ab66116d1565b565b60008060019054906101000a900473ffffffffffffffffffffffffffffffffffffffff16905090565b60066020528060005260406000206000915090505481565b60076020528060005260406000206000915090505481565b600160009054906101000a900473ffffffffffffffffffffffffffffffffffffffff1681565b610b3f611560565b806001600460003373ffffffffffffffffffffffffffffffffffffffff1673ffffffffffffffffffffffffffffffffffffffff16815260200190815260200160002054610b8c91906120b1565b14610bcc576040517f08c379a0000000000000000000000000000000000000000000000000000000008152600401610bc390612131565b60405180910390fd5b6000600660008381526020019081526020016000205411610c22576040517f08c379a0000000000000000000000000000000000000000000000000000000008152600401610c199061219d565b60405180910390fd5b6006600082815260200190815260200160002054600160009054906101000a900473ffffffffffffffffffffffffffffffffffffffff1673ffffffffffffffffffffffffffffffffffffffff166370a08231336040518263ffffffff1660e01b8152600401610c919190611aa3565b602060405180830381865afa158015610cae573d6000803e3d6000fd5b505050506040513d601f19601f82011682018060405250810190610cd291906121d2565b1015610d13576040517f08c379a0000000000000000000000000000000000000000000000000000000008152600401610d0a9061224b565b60405180910390fd5b6006600082815260200190815260200160002054600160009054906101000a900473ffffffffffffffffffffffffffffffffffffffff1673ffffffffffffffffffffffffffffffffffffffff1663dd62ed3e33306040518363ffffffff1660e01b8152600401610d8492919061226b565b602060405180830381865afa158015610da1573d6000803e3d6000fd5b505050506040513d601f19601f82011682018060405250810190610dc591906121d2565b1015610e06576040517f08c379a0000000000000000000000000000000000000000000000000000000008152600401610dfd90612306565b60405180910390fd5b600160009054906101000a900473ffffffffffffffffffffffffffffffffffffffff1673ffffffffffffffffffffffffffffffffffffffff166323b872dd33600260009054906101000a900473ffffffffffffffffffffffffffffffffffffffff1660066000868152602001908152602001600020546040518463ffffffff1660e01b8152600401610e9a93929190611f20565b6020604051808303816000875af1158015610eb9573d6000803e3d6000fd5b505050506040513d601f19601f82011682018060405250810190610edd9190611f83565b610f1c576040517f08c379a0000000000000000000000000000000000000000000000000000000008152600401610f1390612372565b60405180910390fd5b600460003373ffffffffffffffffffffffffffffffffffffffff1673ffffffffffffffffffffffffffffffffffffffff16815260200190815260200160002060008154610f6890611d6e565b919050819055506006600082815260200190815260200160002054600560003373ffffffffffffffffffffffffffffffffffffffff1673ffffffffffffffffffffffffffffffffffffffff1681526020019081526020016000206000838152602001908152602001600020819055503373ffffffffffffffffffffffffffffffffffffffff167fe1fffcc4923d04b559f4d29a8bfc6cda04eb5b0d3c460751c2402c5c5cc9109c8260405161101d919061183c565b60405180910390a250565b611030611560565b6000600760008481526020019081526020016000205411611086576040517f08c379a000000000000000000000000000000000000000000000000000000000815260040161107d906123de565b60405180910390fd5b60006007600084815260200190815260200160002054826110a791906123fe565b905080600160009054906101000a900473ffffffffffffffffffffffffffffffffffffffff1673ffffffffffffffffffffffffffffffffffffffff166370a08231336040518263ffffffff1660e01b81526004016111059190611aa3565b602060405180830381865afa158015611122573d6000803e3d6000fd5b505050506040513d601f19601f8201168201806040525081019061114691906121d2565b1015611187576040517f08c379a000000000000000000000000000000000000000000000000000000000815260040161117e9061248c565b60405180910390fd5b80600160009054906101000a900473ffffffffffffffffffffffffffffffffffffffff1673ffffffffffffffffffffffffffffffffffffffff1663dd62ed3e33306040518363ffffffff1660e01b81526004016111e592919061226b565b602060405180830381865afa158015611202573d6000803e3d6000fd5b505050506040513d601f19601f8201168201806040525081019061122691906121d2565b1015611267576040517f08c379a000000000000000000000000000000000000000000000000000000000815260040161125e9061251e565b60405180910390fd5b600160009054906101000a900473ffffffffffffffffffffffffffffffffffffffff1673ffffffffffffffffffffffffffffffffffffffff166323b872dd33600360009054906101000a900473ffffffffffffffffffffffffffffffffffffffff16846040518463ffffffff1660e01b81526004016112e893929190611f20565b6020604051808303816000875af1158015611307573d6000803e3d6000fd5b505050506040513d601f19601f8201168201806040525081019061132b9190611f83565b61136a576040517f08c379a00000000000000000000000000000000000000000000000000000000081526004016113619061258a565b60405180910390fd5b3373ffffffffffffffffffffffffffffffffffffffff167f8421b0f95c0765e1ffbc4d13f827d1bdbee29eca261a6b9c2fa762e07409a14884846040516113b29291906125aa565b60405180910390a2505050565b6000600560003373ffffffffffffffffffffffffffffffffffffffff1673ffffffffffffffffffffffffffffffffffffffff1681526020019081526020016000206000838152602001908152602001600020549050919050565b6114216114e2565b600073ffffffffffffffffffffffffffffffffffffffff168173ffffffffffffffffffffffffffffffffffffffff1603611490576040517f08c379a000000000000000000000000000000000000000000000000000000000815260040161148790612645565b60405180910390fd5b6114998161160c565b50565b600260009054906101000a900473ffffffffffffffffffffffffffffffffffffffff1681565b60086020528060005260406000206000915054906101000a900460ff1681565b6114ea611733565b73ffffffffffffffffffffffffffffffffffffffff16611508610ab8565b73ffffffffffffffffffffffffffffffffffffffff161461155e576040517f08c379a0000000000000000000000000000000000000000000000000000000008152600401611555906126b1565b60405180910390fd5b565b611568610a7c565b156115a8576040517f08c379a000000000000000000000000000000000000000000000000000000000815260040161159f9061271d565b60405180910390fd5b565b6115b261173b565b60008060006101000a81548160ff0219169083151502179055507f5db9ee0a495bf2e6ff9c91a7834c1ba4fdd244a5e8aa4e537bd38aeae4b073aa6115f5611733565b6040516116029190611aa3565b60405180910390a1565b60008060019054906101000a900473ffffffffffffffffffffffffffffffffffffffff16905081600060016101000a81548173ffffffffffffffffffffffffffffffffffffffff021916908373ffffffffffffffffffffffffffffffffffffffff1602179055508173ffffffffffffffffffffffffffffffffffffffff168173ffffffffffffffffffffffffffffffffffffffff167f8be0079c531659141344cd1fd0a4f28419497f9722a3daafe3b4186f6b6457e060405160405180910390a35050565b6116d9611560565b60016000806101000a81548160ff0219169083151502179055507f62e78cea01bee320cd4e420270b5ea74000d11b0c9f74754ebdbfc544b05a25861171c611733565b6040516117299190611aa3565b60405180910390a1565b600033905090565b611743610a7c565b611782576040517f08c379a000000000000000000000000000000000000000000000000000000000815260040161177990612789565b60405180910390fd5b565b6000604051905090565b600080fd5b600080fd5b600073ffffffffffffffffffffffffffffffffffffffff82169050919050565b60006117c382611798565b9050919050565b6117d3816117b8565b81146117de57600080fd5b50565b6000813590506117f0816117ca565b92915050565b60006020828403121561180c5761180b61178e565b5b600061181a848285016117e1565b91505092915050565b6000819050919050565b61183681611823565b82525050565b6000602082019050611851600083018461182d565b92915050565b61186081611823565b811461186b57600080fd5b50565b60008135905061187d81611857565b92915050565b6000806040838503121561189a5761189961178e565b5b60006118a8858286016117e1565b92505060206118b98582860161186e565b9150509250929050565b600080fd5b6000601f19601f8301169050919050565b7f4e487b7100000000000000000000000000000000000000000000000000000000600052604160045260246000fd5b611911826118c8565b810181811067ffffffffffffffff821117156119305761192f6118d9565b5b80604052505050565b6000611943611784565b905061194f8282611908565b919050565b600067ffffffffffffffff82111561196f5761196e6118d9565b5b602082029050602081019050919050565b600080fd5b600061199861199384611954565b611939565b905080838252602082019050602084028301858111156119bb576119ba611980565b5b835b818110156119e457806119d0888261186e565b8452602084019350506020810190506119bd565b5050509392505050565b600082601f830112611a0357611a026118c3565b5b8135611a13848260208601611985565b91505092915050565b60008060408385031215611a3357611a3261178e565b5b600083013567ffffffffffffffff811115611a5157611a50611793565b5b611a5d858286016119ee565b925050602083013567ffffffffffffffff811115611a7e57611a7d611793565b5b611a8a858286016119ee565b9150509250929050565b611a9d816117b8565b82525050565b6000602082019050611ab86000830184611a94565b92915050565b600060208284031215611ad457611ad361178e565b5b6000611ae28482850161186e565b91505092915050565b60008115159050919050565b611b0081611aeb565b82525050565b6000602082019050611b1b6000830184611af7565b92915050565b6000819050919050565b6000611b46611b41611b3c84611798565b611b21565b611798565b9050919050565b6000611b5882611b2b565b9050919050565b6000611b6a82611b4d565b9050919050565b611b7a81611b5f565b82525050565b6000602082019050611b956000830184611b71565b92915050565b60008060408385031215611bb257611bb161178e565b5b6000611bc08582860161186e565b9250506020611bd18582860161186e565b9150509250929050565b600082825260208201905092915050565b7f73657452616c6c794465706f7369745072696365733a206e756d62657273206160008201527f6e642070726963657320617265206e6f74206d61746368656400000000000000602082015250565b6000611c48603983611bdb565b9150611c5382611bec565b604082019050919050565b60006020820190508181036000830152611c7781611c3b565b9050919050565b7f4e487b7100000000000000000000000000000000000000000000000000000000600052603260045260246000fd5b7f73657452616c6c794465706f7369745072696365733a20496e76616c6964207060008201527f7269636500000000000000000000000000000000000000000000000000000000602082015250565b6000611d09602483611bdb565b9150611d1482611cad565b604082019050919050565b60006020820190508181036000830152611d3881611cfc565b9050919050565b7f4e487b7100000000000000000000000000000000000000000000000000000000600052601160045260246000fd5b6000611d7982611823565b91507fffffffffffffffffffffffffffffffffffffffffffffffffffffffffffffffff8203611dab57611daa611d3f565b5b600182019050919050565b7f7365744d657267655072696365733a2063617249647320616e6420707269636560008201527f7320617265206e6f74206d617463686564000000000000000000000000000000602082015250565b6000611e12603183611bdb565b9150611e1d82611db6565b604082019050919050565b60006020820190508181036000830152611e4181611e05565b9050919050565b7f7365744d657267655072696365733a20496e76616c6964207072696365000000600082015250565b6000611e7e601d83611bdb565b9150611e8982611e48565b602082019050919050565b60006020820190508181036000830152611ead81611e71565b9050919050565b7f77697468647261773a20496e76616c69642072616c6c794e756d626572000000600082015250565b6000611eea601d83611bdb565b9150611ef582611eb4565b602082019050919050565b60006020820190508181036000830152611f1981611edd565b9050919050565b6000606082019050611f356000830186611a94565b611f426020830185611a94565b611f4f604083018461182d565b949350505050565b611f6081611aeb565b8114611f6b57600080fd5b50565b600081519050611f7d81611f57565b92915050565b600060208284031215611f9957611f9861178e565b5b6000611fa784828501611f6e565b91505092915050565b7f77697468647261773a206572633230207472616e73666572206661696c656400600082015250565b6000611fe6601f83611bdb565b9150611ff182611fb0565b602082019050919050565b6000602082019050818103600083015261201581611fd9565b9050919050565b600061202782611823565b91506000820361203a57612039611d3f565b5b600182039050919050565b7f636c61696d3a20416c726561647920436c61696d656400000000000000000000600082015250565b600061207b601683611bdb565b915061208682612045565b602082019050919050565b600060208201905081810360008301526120aa8161206e565b9050919050565b60006120bc82611823565b91506120c783611823565b92508282019050808211156120df576120de611d3f565b5b92915050565b7f6465706f7369743a20496e76616c6964206f7264657200000000000000000000600082015250565b600061211b601683611bdb565b9150612126826120e5565b602082019050919050565b6000602082019050818103600083015261214a8161210e565b9050919050565b7f6465706f7369743a20496e766c6169642072616c6c794e756d62657200000000600082015250565b6000612187601c83611bdb565b915061219282612151565b602082019050919050565b600060208201905081810360008301526121b68161217a565b9050919050565b6000815190506121cc81611857565b92915050565b6000602082840312156121e8576121e761178e565b5b60006121f6848285016121bd565b91505092915050565b7f6465706f7369743a204e6f7420656e6f75676820746f6b656e20616d6f756e74600082015250565b6000612235602083611bdb565b9150612240826121ff565b602082019050919050565b6000602082019050818103600083015261226481612228565b9050919050565b60006040820190506122806000830185611a94565b61228d6020830184611a94565b9392505050565b7f6465706f7369743a204e6f7420656e6f75676820616c6c6f77616e636564207460008201527f6f6b656e20616d6f756e74000000000000000000000000000000000000000000602082015250565b60006122f0602b83611bdb565b91506122fb82612294565b604082019050919050565b6000602082019050818103600083015261231f816122e3565b9050919050565b7f6465706f7369743a206572633230207472616e73666572206661696c65640000600082015250565b600061235c601e83611bdb565b915061236782612326565b602082019050919050565b6000602082019050818103600083015261238b8161234f565b9050919050565b7f6d657267653a20496e766c616964206361724964000000000000000000000000600082015250565b60006123c8601483611bdb565b91506123d382612392565b602082019050919050565b600060208201905081810360008301526123f7816123bb565b9050919050565b600061240982611823565b915061241483611823565b925082820261242281611823565b9150828204841483151761243957612438611d3f565b5b5092915050565b7f6d657267653a204e6f7420656e6f75676820746f6b656e20616d6f756e740000600082015250565b6000612476601e83611bdb565b915061248182612440565b602082019050919050565b600060208201905081810360008301526124a581612469565b9050919050565b7f6d657267653a204e6f7420656e6f75676820616c6c6f77616e63656420746f6b60008201527f656e20616d6f756e740000000000000000000000000000000000000000000000602082015250565b6000612508602983611bdb565b9150612513826124ac565b604082019050919050565b60006020820190508181036000830152612537816124fb565b9050919050565b7f6d657267653a206572633230207472616e73666572206661696c656400000000600082015250565b6000612574601c83611bdb565b915061257f8261253e565b602082019050919050565b600060208201905081810360008301526125a381612567565b9050919050565b60006040820190506125bf600083018561182d565b6125cc602083018461182d565b9392505050565b7f4f776e61626c653a206e6577206f776e657220697320746865207a65726f206160008201527f6464726573730000000000000000000000000000000000000000000000000000602082015250565b600061262f602683611bdb565b915061263a826125d3565b604082019050919050565b6000602082019050818103600083015261265e81612622565b9050919050565b7f4f776e61626c653a2063616c6c6572206973206e6f7420746865206f776e6572600082015250565b600061269b602083611bdb565b91506126a682612665565b602082019050919050565b600060208201905081810360008301526126ca8161268e565b9050919050565b7f5061757361626c653a2070617573656400000000000000000000000000000000600082015250565b6000612707601083611bdb565b9150612712826126d1565b602082019050919050565b60006020820190508181036000830152612736816126fa565b9050919050565b7f5061757361626c653a206e6f7420706175736564000000000000000000000000600082015250565b6000612773601483611bdb565b915061277e8261273d565b602082019050919050565b600060208201905081810360008301526127a281612766565b905091905056fea2646970667358221220fbd28c3b0d0524f235c5e516a0e394c2708d4842adbc10e37650fc013e97d44d64736f6c63430008130033",
  "immutableReferences": {},
  "source": "// SPDX-License-Identifier: MIT\r\npragma solidity ^0.8.14;\r\n\r\nimport \"@openzeppelin/contracts/token/ERC20/ERC20.sol\";\r\nimport \"@openzeppelin/contracts/access/Ownable.sol\";\r\nimport \"@openzeppelin/contracts/security/Pausable.sol\";\r\n\r\ncontract MimboCircuitB is Pausable, Ownable {\r\n    ERC20 public TokenContract_;\r\n    address public TokenRallyHolder_;\r\n    address public TokenMergeHolder_;\r\n\r\n    event Deposit(address indexed from, uint256 rallyNumber);\r\n    event Withdraw(address indexed from, uint256 rallyNumber);\r\n    event Merge(address indexed from, uint256 carId, uint256 mergeCount);\r\n    event Claim(address indexed from, uint256 earnIdx);\r\n\r\n    //   .  => \r\n    mapping(address => uint256) public rallyNumbers;\r\n\r\n    //       .  =>  =>  \r\n    mapping(address => mapping(uint256 => uint256)) public rallyTokens;\r\n\r\n    //       .  =>  \r\n    mapping(uint256 => uint256) public rallyDepositPrices;\r\n\r\n    //  ID 1  .  ID =>    \r\n    mapping(uint256 => uint256) public mergePrices;\r\n\r\n    //   .  (DB) => true   \r\n    mapping(uint256 => bool) public earns;\r\n\r\n    constructor(address _TokenContract, address _TokenRallyHolder, address _TokenMergeHolder) {\r\n        TokenContract_ = ERC20(_TokenContract);\r\n        TokenRallyHolder_ = _TokenRallyHolder;\r\n        TokenMergeHolder_ = _TokenMergeHolder;\r\n    }\r\n\r\n    function pause() public onlyOwner {\r\n        _pause();\r\n    }\r\n\r\n    function unpause() public onlyOwner {\r\n        _unpause();\r\n    }\r\n\r\n    //     \r\n    function setRallyDepositPrices(uint256[] memory _rallyNumber, uint256[] memory _prices) public onlyOwner {\r\n        require(_rallyNumber.length == _prices.length, \"setRallyDepositPrices: numbers and prices are not matched\");\r\n        for (uint256 i = 0; i < _rallyNumber.length; ++i) {\r\n            require(_prices[i] > 0, \"setRallyDepositPrices: Invalid price\");\r\n            rallyDepositPrices[_rallyNumber[i]] = _prices[i];\r\n        }\r\n    }\r\n\r\n    //     \r\n    function setMergePrices(uint256[] memory _carIds, uint256[] memory _prices) public onlyOwner {\r\n        require(_carIds.length == _prices.length, \"setMergePrices: carIds and prices are not matched\");\r\n        for (uint256 i = 0; i < _carIds.length; ++i) {\r\n            require(_prices[i] > 0, \"setMergePrices: Invalid price\");\r\n            mergePrices[_carIds[i]] = _prices[i];\r\n        }\r\n    }\r\n\r\n    function deposit(uint256 rallyNumber) public whenNotPaused {\r\n        require(rallyNumbers[msg.sender] + 1 == rallyNumber, \"deposit: Invalid order\");\r\n        require(rallyDepositPrices[rallyNumber] > 0, \"deposit: Invlaid rallyNumber\");\r\n        require(TokenContract_.balanceOf(msg.sender) >= rallyDepositPrices[rallyNumber], \"deposit: Not enough token amount\");\r\n        require(TokenContract_.allowance(msg.sender, address(this)) >= rallyDepositPrices[rallyNumber], \"deposit: Not enough allowanced token amount\");\r\n\r\n        require(TokenContract_.transferFrom(msg.sender, TokenRallyHolder_, rallyDepositPrices[rallyNumber]), \"deposit: erc20 transfer failed\");\r\n\r\n        ++rallyNumbers[msg.sender];\r\n        rallyTokens[msg.sender][rallyNumber] = rallyDepositPrices[rallyNumber];\r\n\r\n        emit Deposit(msg.sender, rallyNumber);\r\n    }\r\n\r\n    function withdraw(uint256 rallyNumber) public whenNotPaused {\r\n        require(0 < rallyNumber, \"withdraw: Invalid rallyNumber\");\r\n        require(rallyNumbers[msg.sender] == rallyNumber, \"withdraw: Invalid rallyNumber\");\r\n\r\n        require(TokenContract_.transferFrom(TokenRallyHolder_, msg.sender, rallyTokens[msg.sender][rallyNumber]), \"withdraw: erc20 transfer failed\");\r\n\r\n        --rallyNumbers[msg.sender];\r\n        rallyTokens[msg.sender][rallyNumber] = 0;\r\n\r\n        emit Withdraw(msg.sender, rallyNumber);\r\n    }\r\n\r\n    function merge(uint256 carId, uint256 mergeCount) public whenNotPaused {\r\n        require(mergePrices[carId] > 0, \"merge: Invlaid carId\");\r\n\r\n        uint256 tokenAmount = mergeCount * mergePrices[carId];\r\n\r\n        require(TokenContract_.balanceOf(msg.sender) >= tokenAmount, \"merge: Not enough token amount\");\r\n        require(TokenContract_.allowance(msg.sender, address(this)) >= tokenAmount, \"merge: Not enough allowanced token amount\");\r\n\r\n        require(TokenContract_.transferFrom(msg.sender, TokenMergeHolder_, tokenAmount), \"merge: erc20 transfer failed\");\r\n\r\n        emit Merge(msg.sender, carId, mergeCount);\r\n    }\r\n\r\n    function claim(uint256 earnIdx) public whenNotPaused {\r\n        require(earns[earnIdx] == false, \"claim: Already Claimed\");\r\n\r\n        earns[earnIdx] = true;\r\n\r\n        emit Claim(msg.sender, earnIdx);\r\n    }\r\n\r\n    // getter\r\n    //  &       \r\n    function getWithdrawTokens(uint256 rallyNumber) public view returns (uint256 tokenAmount) {\r\n        return rallyTokens[msg.sender][rallyNumber];\r\n    }\r\n}\r\n",
  "sourcePath": "D:\\github\\mimbo_sol\\contracts\\MimboCircuitB.sol",
  "compiler": {
    "name": "solc",
    "version": "0.8.19+commit.7dd6d404.Emscripten.clang"
  },
  "schemaVersion": "3.4.13",
  "updatedAt": "2023-07-17T05:02:35.091Z",
  "networkType": "ethereum",
  "devdoc": {
    "events": {
      "Paused(address)": {
        "details": "Emitted when the pause is triggered by `account`."
      },
      "Unpaused(address)": {
        "details": "Emitted when the pause is lifted by `account`."
      }
    },
    "kind": "dev",
    "methods": {
      "owner()": {
        "details": "Returns the address of the current owner."
      },
      "paused()": {
        "details": "Returns true if the contract is paused, and false otherwise."
      },
      "renounceOwnership()": {
        "details": "Leaves the contract without owner. It will not be possible to call `onlyOwner` functions. Can only be called by the current owner. NOTE: Renouncing ownership will leave the contract without an owner, thereby disabling any functionality that is only available to the owner."
      },
      "transferOwnership(address)": {
        "details": "Transfers ownership of the contract to a new account (`newOwner`). Can only be called by the current owner."
      }
    },
    "version": 1
  },
  "userdoc": {
    "kind": "user",
    "methods": {},
    "version": 1
  }
}