{
  "contractName": "MimboCircuit",
  "abi": [
    {
      "inputs": [
        {
          "internalType": "address",
          "name": "_TokenContract",
          "type": "address"
        },
        {
          "internalType": "address",
          "name": "_TokenRallyHolder",
          "type": "address"
        },
        {
          "internalType": "address",
          "name": "_TokenMergeHolder",
          "type": "address"
        }
      ],
      "stateMutability": "nonpayable",
      "type": "constructor"
    },
    {
      "anonymous": false,
      "inputs": [
        {
          "indexed": true,
          "internalType": "address",
          "name": "from",
          "type": "address"
        },
        {
          "indexed": false,
          "internalType": "uint256",
          "name": "earnIdx",
          "type": "uint256"
        }
      ],
      "name": "Claim",
      "type": "event"
    },
    {
      "anonymous": false,
      "inputs": [
        {
          "indexed": true,
          "internalType": "address",
          "name": "from",
          "type": "address"
        },
        {
          "indexed": false,
          "internalType": "uint256",
          "name": "rallyNumber",
          "type": "uint256"
        }
      ],
      "name": "Deposit",
      "type": "event"
    },
    {
      "anonymous": false,
      "inputs": [
        {
          "indexed": true,
          "internalType": "address",
          "name": "from",
          "type": "address"
        },
        {
          "indexed": false,
          "internalType": "uint256",
          "name": "carId",
          "type": "uint256"
        },
        {
          "indexed": false,
          "internalType": "uint256",
          "name": "mergeCount",
          "type": "uint256"
        }
      ],
      "name": "Merge",
      "type": "event"
    },
    {
      "anonymous": false,
      "inputs": [
        {
          "indexed": true,
          "internalType": "address",
          "name": "previousOwner",
          "type": "address"
        },
        {
          "indexed": true,
          "internalType": "address",
          "name": "newOwner",
          "type": "address"
        }
      ],
      "name": "OwnershipTransferred",
      "type": "event"
    },
    {
      "anonymous": false,
      "inputs": [
        {
          "indexed": false,
          "internalType": "address",
          "name": "account",
          "type": "address"
        }
      ],
      "name": "Paused",
      "type": "event"
    },
    {
      "anonymous": false,
      "inputs": [
        {
          "indexed": false,
          "internalType": "address",
          "name": "account",
          "type": "address"
        }
      ],
      "name": "Unpaused",
      "type": "event"
    },
    {
      "anonymous": false,
      "inputs": [
        {
          "indexed": true,
          "internalType": "address",
          "name": "from",
          "type": "address"
        },
        {
          "indexed": false,
          "internalType": "uint256",
          "name": "rallyNumber",
          "type": "uint256"
        }
      ],
      "name": "Withdraw",
      "type": "event"
    },
    {
      "inputs": [],
      "name": "TokenContract_",
      "outputs": [
        {
          "internalType": "contract ERC20",
          "name": "",
          "type": "address"
        }
      ],
      "stateMutability": "view",
      "type": "function"
    },
    {
      "inputs": [],
      "name": "TokenMergeHolder_",
      "outputs": [
        {
          "internalType": "address",
          "name": "",
          "type": "address"
        }
      ],
      "stateMutability": "view",
      "type": "function"
    },
    {
      "inputs": [],
      "name": "TokenRallyHolder_",
      "outputs": [
        {
          "internalType": "address",
          "name": "",
          "type": "address"
        }
      ],
      "stateMutability": "view",
      "type": "function"
    },
    {
      "inputs": [
        {
          "internalType": "uint256",
          "name": "",
          "type": "uint256"
        }
      ],
      "name": "earns",
      "outputs": [
        {
          "internalType": "address",
          "name": "",
          "type": "address"
        }
      ],
      "stateMutability": "view",
      "type": "function"
    },
    {
      "inputs": [
        {
          "internalType": "uint256",
          "name": "",
          "type": "uint256"
        }
      ],
      "name": "mergePrices",
      "outputs": [
        {
          "internalType": "uint256",
          "name": "",
          "type": "uint256"
        }
      ],
      "stateMutability": "view",
      "type": "function"
    },
    {
      "inputs": [],
      "name": "owner",
      "outputs": [
        {
          "internalType": "address",
          "name": "",
          "type": "address"
        }
      ],
      "stateMutability": "view",
      "type": "function"
    },
    {
      "inputs": [],
      "name": "paused",
      "outputs": [
        {
          "internalType": "bool",
          "name": "",
          "type": "bool"
        }
      ],
      "stateMutability": "view",
      "type": "function"
    },
    {
      "inputs": [
        {
          "internalType": "uint256",
          "name": "",
          "type": "uint256"
        }
      ],
      "name": "rallyDepositPrices",
      "outputs": [
        {
          "internalType": "uint256",
          "name": "",
          "type": "uint256"
        }
      ],
      "stateMutability": "view",
      "type": "function"
    },
    {
      "inputs": [
        {
          "internalType": "address",
          "name": "",
          "type": "address"
        }
      ],
      "name": "rallyNumbers",
      "outputs": [
        {
          "internalType": "uint256",
          "name": "",
          "type": "uint256"
        }
      ],
      "stateMutability": "view",
      "type": "function"
    },
    {
      "inputs": [
        {
          "internalType": "address",
          "name": "",
          "type": "address"
        },
        {
          "internalType": "uint256",
          "name": "",
          "type": "uint256"
        }
      ],
      "name": "rallyTokens",
      "outputs": [
        {
          "internalType": "uint256",
          "name": "",
          "type": "uint256"
        }
      ],
      "stateMutability": "view",
      "type": "function"
    },
    {
      "inputs": [],
      "name": "renounceOwnership",
      "outputs": [],
      "stateMutability": "nonpayable",
      "type": "function"
    },
    {
      "inputs": [
        {
          "internalType": "address",
          "name": "newOwner",
          "type": "address"
        }
      ],
      "name": "transferOwnership",
      "outputs": [],
      "stateMutability": "nonpayable",
      "type": "function"
    },
    {
      "inputs": [],
      "name": "pause",
      "outputs": [],
      "stateMutability": "nonpayable",
      "type": "function"
    },
    {
      "inputs": [],
      "name": "unpause",
      "outputs": [],
      "stateMutability": "nonpayable",
      "type": "function"
    },
    {
      "inputs": [
        {
          "internalType": "uint256[]",
          "name": "_rallyNumber",
          "type": "uint256[]"
        },
        {
          "internalType": "uint256[]",
          "name": "_prices",
          "type": "uint256[]"
        }
      ],
      "name": "setRallyDepositPrices",
      "outputs": [],
      "stateMutability": "nonpayable",
      "type": "function"
    },
    {
      "inputs": [
        {
          "internalType": "uint256[]",
          "name": "_carIds",
          "type": "uint256[]"
        },
        {
          "internalType": "uint256[]",
          "name": "_prices",
          "type": "uint256[]"
        }
      ],
      "name": "setMergePrices",
      "outputs": [],
      "stateMutability": "nonpayable",
      "type": "function"
    },
    {
      "inputs": [
        {
          "internalType": "uint256",
          "name": "rallyNumber",
          "type": "uint256"
        }
      ],
      "name": "deposit",
      "outputs": [],
      "stateMutability": "nonpayable",
      "type": "function"
    },
    {
      "inputs": [
        {
          "internalType": "uint256",
          "name": "rallyNumber",
          "type": "uint256"
        }
      ],
      "name": "withdraw",
      "outputs": [],
      "stateMutability": "nonpayable",
      "type": "function"
    },
    {
      "inputs": [
        {
          "internalType": "uint256",
          "name": "carId",
          "type": "uint256"
        },
        {
          "internalType": "uint256",
          "name": "mergeCount",
          "type": "uint256"
        }
      ],
      "name": "merge",
      "outputs": [],
      "stateMutability": "nonpayable",
      "type": "function"
    },
    {
      "inputs": [
        {
          "internalType": "uint256",
          "name": "earnIdx",
          "type": "uint256"
        }
      ],
      "name": "claim",
      "outputs": [],
      "stateMutability": "nonpayable",
      "type": "function"
    },
    {
      "inputs": [
        {
          "internalType": "uint256",
          "name": "rallyNumber",
          "type": "uint256"
        }
      ],
      "name": "getWithdrawTokens",
      "outputs": [
        {
          "internalType": "uint256",
          "name": "tokenAmount",
          "type": "uint256"
        }
      ],
      "stateMutability": "view",
      "type": "function"
    }
  ],
  "bytecode": "0x60806040523480156200001157600080fd5b5060405162002a2538038062002a25833981810160405281019062000037919062000274565b60008060006101000a81548160ff02191690831515021790555062000071620000656200013d60201b60201c565b6200014560201b60201c565b82600160006101000a81548173ffffffffffffffffffffffffffffffffffffffff021916908373ffffffffffffffffffffffffffffffffffffffff16021790555081600260006101000a81548173ffffffffffffffffffffffffffffffffffffffff021916908373ffffffffffffffffffffffffffffffffffffffff16021790555080600360006101000a81548173ffffffffffffffffffffffffffffffffffffffff021916908373ffffffffffffffffffffffffffffffffffffffff160217905550505050620002d0565b600033905090565b60008060019054906101000a900473ffffffffffffffffffffffffffffffffffffffff16905081600060016101000a81548173ffffffffffffffffffffffffffffffffffffffff021916908373ffffffffffffffffffffffffffffffffffffffff1602179055508173ffffffffffffffffffffffffffffffffffffffff168173ffffffffffffffffffffffffffffffffffffffff167f8be0079c531659141344cd1fd0a4f28419497f9722a3daafe3b4186f6b6457e060405160405180910390a35050565b600080fd5b600073ffffffffffffffffffffffffffffffffffffffff82169050919050565b60006200023c826200020f565b9050919050565b6200024e816200022f565b81146200025a57600080fd5b50565b6000815190506200026e8162000243565b92915050565b60008060006060848603121562000290576200028f6200020a565b5b6000620002a0868287016200025d565b9350506020620002b3868287016200025d565b9250506040620002c6868287016200025d565b9150509250925092565b61274580620002e06000396000f3fe608060405234801561001057600080fd5b50600436106101375760003560e01c80638456cb59116100b8578063b6b55f251161007c578063b6b55f2514610302578063d1c2babb1461031e578063ea9107491461033a578063f2fde38b1461036a578063f608eca614610386578063f8a9baab146103a457610137565b80638456cb591461025c5780638da5cb5b1461026657806394d1782d14610284578063aaae68e4146102b4578063b2742961146102e457610137565b80632e1a7d4d116100ff5780632e1a7d4d146101f2578063379607f51461020e5780633f4ba83a1461022a5780635c975abb14610234578063715018a61461025257610137565b806309100ba61461013c5780630abad16a1461016c5780630ca621671461019c57806323d23dd4146101b85780632511a232146101d6575b600080fd5b610156600480360381019061015191906117c8565b6103d4565b604051610163919061180e565b60405180910390f35b61018660048036038101906101819190611855565b6103ec565b604051610193919061180e565b60405180910390f35b6101b660048036038101906101b191906119ee565b610411565b005b6101c0610528565b6040516101cd9190611a75565b60405180910390f35b6101f060048036038101906101eb91906119ee565b61054e565b005b61020c60048036038101906102079190611a90565b610665565b005b61022860048036038101906102239190611a90565b61097e565b005b610232610a29565b005b61023c610a3b565b6040516102499190611ad8565b60405180910390f35b61025a610a51565b005b610264610a65565b005b61026e610a77565b60405161027b9190611a75565b60405180910390f35b61029e60048036038101906102999190611a90565b610aa0565b6040516102ab919061180e565b60405180910390f35b6102ce60048036038101906102c99190611a90565b610ab8565b6040516102db919061180e565b60405180910390f35b6102ec610ad0565b6040516102f99190611b52565b60405180910390f35b61031c60048036038101906103179190611a90565b610af6565b005b61033860048036038101906103339190611b6d565b610fe7565b005b610354600480360381019061034f9190611a90565b61137e565b604051610361919061180e565b60405180910390f35b610384600480360381019061037f91906117c8565b6113d8565b005b61038e61145b565b60405161039b9190611a75565b60405180910390f35b6103be60048036038101906103b99190611a90565b611481565b6040516103cb9190611a75565b60405180910390f35b60046020528060005260406000206000915090505481565b6005602052816000526040600020602052806000526040600020600091509150505481565b6104196114b4565b805182511461045d576040517f08c379a000000000000000000000000000000000000000000000000000000000815260040161045490611c30565b60405180910390fd5b60005b825181101561052357600082828151811061047e5761047d611c50565b5b6020026020010151116104c6576040517f08c379a00000000000000000000000000000000000000000000000000000000081526004016104bd90611cf1565b60405180910390fd5b8181815181106104d9576104d8611c50565b5b6020026020010151600660008584815181106104f8576104f7611c50565b5b60200260200101518152602001908152602001600020819055508061051c90611d40565b9050610460565b505050565b600360009054906101000a900473ffffffffffffffffffffffffffffffffffffffff1681565b6105566114b4565b805182511461059a576040517f08c379a000000000000000000000000000000000000000000000000000000000815260040161059190611dfa565b60405180910390fd5b60005b82518110156106605760008282815181106105bb576105ba611c50565b5b602002602001015111610603576040517f08c379a00000000000000000000000000000000000000000000000000000000081526004016105fa90611e66565b60405180910390fd5b81818151811061061657610615611c50565b5b60200260200101516007600085848151811061063557610634611c50565b5b60200260200101518152602001908152602001600020819055508061065990611d40565b905061059d565b505050565b61066d611532565b806000106106b0576040517f08c379a00000000000000000000000000000000000000000000000000000000081526004016106a790611ed2565b60405180910390fd5b80600460003373ffffffffffffffffffffffffffffffffffffffff1673ffffffffffffffffffffffffffffffffffffffff1681526020019081526020016000205414610731576040517f08c379a000000000000000000000000000000000000000000000000000000000815260040161072890611ed2565b60405180910390fd5b600160009054906101000a900473ffffffffffffffffffffffffffffffffffffffff1673ffffffffffffffffffffffffffffffffffffffff166323b872dd600260009054906101000a900473ffffffffffffffffffffffffffffffffffffffff1633600560003373ffffffffffffffffffffffffffffffffffffffff1673ffffffffffffffffffffffffffffffffffffffff1681526020019081526020016000206000868152602001908152602001600020546040518463ffffffff1660e01b815260040161080293929190611ef2565b6020604051808303816000875af1158015610821573d6000803e3d6000fd5b505050506040513d601f19601f820116820180604052508101906108459190611f55565b610884576040517f08c379a000000000000000000000000000000000000000000000000000000000815260040161087b90611fce565b60405180910390fd5b600460003373ffffffffffffffffffffffffffffffffffffffff1673ffffffffffffffffffffffffffffffffffffffff168152602001908152602001600020600081546108d090611fee565b919050819055506000600560003373ffffffffffffffffffffffffffffffffffffffff1673ffffffffffffffffffffffffffffffffffffffff1681526020019081526020016000206000838152602001908152602001600020819055503373ffffffffffffffffffffffffffffffffffffffff167f884edad9ce6fa2440d8a54cc123490eb96d2768479d49ff9c7366125a942436482604051610973919061180e565b60405180910390a250565b610986611532565b336008600083815260200190815260200160002060006101000a81548173ffffffffffffffffffffffffffffffffffffffff021916908373ffffffffffffffffffffffffffffffffffffffff1602179055503373ffffffffffffffffffffffffffffffffffffffff167f47cee97cb7acd717b3c0aa1435d004cd5b3c8c57d70dbceb4e4458bbd60e39d482604051610a1e919061180e565b60405180910390a250565b610a316114b4565b610a3961157c565b565b60008060009054906101000a900460ff16905090565b610a596114b4565b610a6360006115de565b565b610a6d6114b4565b610a756116a3565b565b60008060019054906101000a900473ffffffffffffffffffffffffffffffffffffffff16905090565b60066020528060005260406000206000915090505481565b60076020528060005260406000206000915090505481565b600160009054906101000a900473ffffffffffffffffffffffffffffffffffffffff1681565b610afe611532565b806001600460003373ffffffffffffffffffffffffffffffffffffffff1673ffffffffffffffffffffffffffffffffffffffff16815260200190815260200160002054610b4b9190612017565b14610b8b576040517f08c379a0000000000000000000000000000000000000000000000000000000008152600401610b8290612097565b60405180910390fd5b6000600660008381526020019081526020016000205411610be1576040517f08c379a0000000000000000000000000000000000000000000000000000000008152600401610bd890612103565b60405180910390fd5b6006600082815260200190815260200160002054600160009054906101000a900473ffffffffffffffffffffffffffffffffffffffff1673ffffffffffffffffffffffffffffffffffffffff166370a08231336040518263ffffffff1660e01b8152600401610c509190611a75565b602060405180830381865afa158015610c6d573d6000803e3d6000fd5b505050506040513d601f19601f82011682018060405250810190610c919190612138565b1015610cd2576040517f08c379a0000000000000000000000000000000000000000000000000000000008152600401610cc9906121b1565b60405180910390fd5b6006600082815260200190815260200160002054600160009054906101000a900473ffffffffffffffffffffffffffffffffffffffff1673ffffffffffffffffffffffffffffffffffffffff1663dd62ed3e33306040518363ffffffff1660e01b8152600401610d439291906121d1565b602060405180830381865afa158015610d60573d6000803e3d6000fd5b505050506040513d601f19601f82011682018060405250810190610d849190612138565b1015610dc5576040517f08c379a0000000000000000000000000000000000000000000000000000000008152600401610dbc9061226c565b60405180910390fd5b600160009054906101000a900473ffffffffffffffffffffffffffffffffffffffff1673ffffffffffffffffffffffffffffffffffffffff166323b872dd33600260009054906101000a900473ffffffffffffffffffffffffffffffffffffffff1660066000868152602001908152602001600020546040518463ffffffff1660e01b8152600401610e5993929190611ef2565b6020604051808303816000875af1158015610e78573d6000803e3d6000fd5b505050506040513d601f19601f82011682018060405250810190610e9c9190611f55565b610edb576040517f08c379a0000000000000000000000000000000000000000000000000000000008152600401610ed2906122d8565b60405180910390fd5b600460003373ffffffffffffffffffffffffffffffffffffffff1673ffffffffffffffffffffffffffffffffffffffff16815260200190815260200160002060008154610f2790611d40565b919050819055506006600082815260200190815260200160002054600560003373ffffffffffffffffffffffffffffffffffffffff1673ffffffffffffffffffffffffffffffffffffffff1681526020019081526020016000206000838152602001908152602001600020819055503373ffffffffffffffffffffffffffffffffffffffff167fe1fffcc4923d04b559f4d29a8bfc6cda04eb5b0d3c460751c2402c5c5cc9109c82604051610fdc919061180e565b60405180910390a250565b610fef611532565b6000600760008481526020019081526020016000205411611045576040517f08c379a000000000000000000000000000000000000000000000000000000000815260040161103c90612344565b60405180910390fd5b60006007600084815260200190815260200160002054826110669190612364565b905080600160009054906101000a900473ffffffffffffffffffffffffffffffffffffffff1673ffffffffffffffffffffffffffffffffffffffff166370a08231336040518263ffffffff1660e01b81526004016110c49190611a75565b602060405180830381865afa1580156110e1573d6000803e3d6000fd5b505050506040513d601f19601f820116820180604052508101906111059190612138565b1015611146576040517f08c379a000000000000000000000000000000000000000000000000000000000815260040161113d906123f2565b60405180910390fd5b80600160009054906101000a900473ffffffffffffffffffffffffffffffffffffffff1673ffffffffffffffffffffffffffffffffffffffff1663dd62ed3e33306040518363ffffffff1660e01b81526004016111a49291906121d1565b602060405180830381865afa1580156111c1573d6000803e3d6000fd5b505050506040513d601f19601f820116820180604052508101906111e59190612138565b1015611226576040517f08c379a000000000000000000000000000000000000000000000000000000000815260040161121d90612484565b60405180910390fd5b600160009054906101000a900473ffffffffffffffffffffffffffffffffffffffff1673ffffffffffffffffffffffffffffffffffffffff166323b872dd33600360009054906101000a900473ffffffffffffffffffffffffffffffffffffffff16846040518463ffffffff1660e01b81526004016112a793929190611ef2565b6020604051808303816000875af11580156112c6573d6000803e3d6000fd5b505050506040513d601f19601f820116820180604052508101906112ea9190611f55565b611329576040517f08c379a0000000000000000000000000000000000000000000000000000000008152600401611320906124f0565b60405180910390fd5b3373ffffffffffffffffffffffffffffffffffffffff167f8421b0f95c0765e1ffbc4d13f827d1bdbee29eca261a6b9c2fa762e07409a1488484604051611371929190612510565b60405180910390a2505050565b6000600560003373ffffffffffffffffffffffffffffffffffffffff1673ffffffffffffffffffffffffffffffffffffffff1681526020019081526020016000206000838152602001908152602001600020549050919050565b6113e06114b4565b600073ffffffffffffffffffffffffffffffffffffffff168173ffffffffffffffffffffffffffffffffffffffff160361144f576040517f08c379a0000000000000000000000000000000000000000000000000000000008152600401611446906125ab565b60405180910390fd5b611458816115de565b50565b600260009054906101000a900473ffffffffffffffffffffffffffffffffffffffff1681565b60086020528060005260406000206000915054906101000a900473ffffffffffffffffffffffffffffffffffffffff1681565b6114bc611705565b73ffffffffffffffffffffffffffffffffffffffff166114da610a77565b73ffffffffffffffffffffffffffffffffffffffff1614611530576040517f08c379a000000000000000000000000000000000000000000000000000000000815260040161152790612617565b60405180910390fd5b565b61153a610a3b565b1561157a576040517f08c379a000000000000000000000000000000000000000000000000000000000815260040161157190612683565b60405180910390fd5b565b61158461170d565b60008060006101000a81548160ff0219169083151502179055507f5db9ee0a495bf2e6ff9c91a7834c1ba4fdd244a5e8aa4e537bd38aeae4b073aa6115c7611705565b6040516115d49190611a75565b60405180910390a1565b60008060019054906101000a900473ffffffffffffffffffffffffffffffffffffffff16905081600060016101000a81548173ffffffffffffffffffffffffffffffffffffffff021916908373ffffffffffffffffffffffffffffffffffffffff1602179055508173ffffffffffffffffffffffffffffffffffffffff168173ffffffffffffffffffffffffffffffffffffffff167f8be0079c531659141344cd1fd0a4f28419497f9722a3daafe3b4186f6b6457e060405160405180910390a35050565b6116ab611532565b60016000806101000a81548160ff0219169083151502179055507f62e78cea01bee320cd4e420270b5ea74000d11b0c9f74754ebdbfc544b05a2586116ee611705565b6040516116fb9190611a75565b60405180910390a1565b600033905090565b611715610a3b565b611754576040517f08c379a000000000000000000000000000000000000000000000000000000000815260040161174b906126ef565b60405180910390fd5b565b6000604051905090565b600080fd5b600080fd5b600073ffffffffffffffffffffffffffffffffffffffff82169050919050565b60006117958261176a565b9050919050565b6117a58161178a565b81146117b057600080fd5b50565b6000813590506117c28161179c565b92915050565b6000602082840312156117de576117dd611760565b5b60006117ec848285016117b3565b91505092915050565b6000819050919050565b611808816117f5565b82525050565b600060208201905061182360008301846117ff565b92915050565b611832816117f5565b811461183d57600080fd5b50565b60008135905061184f81611829565b92915050565b6000806040838503121561186c5761186b611760565b5b600061187a858286016117b3565b925050602061188b85828601611840565b9150509250929050565b600080fd5b6000601f19601f8301169050919050565b7f4e487b7100000000000000000000000000000000000000000000000000000000600052604160045260246000fd5b6118e38261189a565b810181811067ffffffffffffffff82111715611902576119016118ab565b5b80604052505050565b6000611915611756565b905061192182826118da565b919050565b600067ffffffffffffffff821115611941576119406118ab565b5b602082029050602081019050919050565b600080fd5b600061196a61196584611926565b61190b565b9050808382526020820190506020840283018581111561198d5761198c611952565b5b835b818110156119b657806119a28882611840565b84526020840193505060208101905061198f565b5050509392505050565b600082601f8301126119d5576119d4611895565b5b81356119e5848260208601611957565b91505092915050565b60008060408385031215611a0557611a04611760565b5b600083013567ffffffffffffffff811115611a2357611a22611765565b5b611a2f858286016119c0565b925050602083013567ffffffffffffffff811115611a5057611a4f611765565b5b611a5c858286016119c0565b9150509250929050565b611a6f8161178a565b82525050565b6000602082019050611a8a6000830184611a66565b92915050565b600060208284031215611aa657611aa5611760565b5b6000611ab484828501611840565b91505092915050565b60008115159050919050565b611ad281611abd565b82525050565b6000602082019050611aed6000830184611ac9565b92915050565b6000819050919050565b6000611b18611b13611b0e8461176a565b611af3565b61176a565b9050919050565b6000611b2a82611afd565b9050919050565b6000611b3c82611b1f565b9050919050565b611b4c81611b31565b82525050565b6000602082019050611b676000830184611b43565b92915050565b60008060408385031215611b8457611b83611760565b5b6000611b9285828601611840565b9250506020611ba385828601611840565b9150509250929050565b600082825260208201905092915050565b7f73657452616c6c794465706f7369745072696365733a206e756d62657273206160008201527f6e642070726963657320617265206e6f74206d61746368656400000000000000602082015250565b6000611c1a603983611bad565b9150611c2582611bbe565b604082019050919050565b60006020820190508181036000830152611c4981611c0d565b9050919050565b7f4e487b7100000000000000000000000000000000000000000000000000000000600052603260045260246000fd5b7f73657452616c6c794465706f7369745072696365733a20496e76616c6964207060008201527f7269636500000000000000000000000000000000000000000000000000000000602082015250565b6000611cdb602483611bad565b9150611ce682611c7f565b604082019050919050565b60006020820190508181036000830152611d0a81611cce565b9050919050565b7f4e487b7100000000000000000000000000000000000000000000000000000000600052601160045260246000fd5b6000611d4b826117f5565b91507fffffffffffffffffffffffffffffffffffffffffffffffffffffffffffffffff8203611d7d57611d7c611d11565b5b600182019050919050565b7f7365744d657267655072696365733a2063617249647320616e6420707269636560008201527f7320617265206e6f74206d617463686564000000000000000000000000000000602082015250565b6000611de4603183611bad565b9150611def82611d88565b604082019050919050565b60006020820190508181036000830152611e1381611dd7565b9050919050565b7f7365744d657267655072696365733a20496e76616c6964207072696365000000600082015250565b6000611e50601d83611bad565b9150611e5b82611e1a565b602082019050919050565b60006020820190508181036000830152611e7f81611e43565b9050919050565b7f77697468647261773a20496e76616c69642072616c6c794e756d626572000000600082015250565b6000611ebc601d83611bad565b9150611ec782611e86565b602082019050919050565b60006020820190508181036000830152611eeb81611eaf565b9050919050565b6000606082019050611f076000830186611a66565b611f146020830185611a66565b611f2160408301846117ff565b949350505050565b611f3281611abd565b8114611f3d57600080fd5b50565b600081519050611f4f81611f29565b92915050565b600060208284031215611f6b57611f6a611760565b5b6000611f7984828501611f40565b91505092915050565b7f77697468647261773a206572633230207472616e73666572206661696c656400600082015250565b6000611fb8601f83611bad565b9150611fc382611f82565b602082019050919050565b60006020820190508181036000830152611fe781611fab565b9050919050565b6000611ff9826117f5565b91506000820361200c5761200b611d11565b5b600182039050919050565b6000612022826117f5565b915061202d836117f5565b925082820190508082111561204557612044611d11565b5b92915050565b7f6465706f7369743a20496e76616c6964206f7264657200000000000000000000600082015250565b6000612081601683611bad565b915061208c8261204b565b602082019050919050565b600060208201905081810360008301526120b081612074565b9050919050565b7f6465706f7369743a20496e766c6169642072616c6c794e756d62657200000000600082015250565b60006120ed601c83611bad565b91506120f8826120b7565b602082019050919050565b6000602082019050818103600083015261211c816120e0565b9050919050565b60008151905061213281611829565b92915050565b60006020828403121561214e5761214d611760565b5b600061215c84828501612123565b91505092915050565b7f6465706f7369743a204e6f7420656e6f75676820746f6b656e20616d6f756e74600082015250565b600061219b602083611bad565b91506121a682612165565b602082019050919050565b600060208201905081810360008301526121ca8161218e565b9050919050565b60006040820190506121e66000830185611a66565b6121f36020830184611a66565b9392505050565b7f6465706f7369743a204e6f7420656e6f75676820616c6c6f77616e636564207460008201527f6f6b656e20616d6f756e74000000000000000000000000000000000000000000602082015250565b6000612256602b83611bad565b9150612261826121fa565b604082019050919050565b6000602082019050818103600083015261228581612249565b9050919050565b7f6465706f7369743a206572633230207472616e73666572206661696c65640000600082015250565b60006122c2601e83611bad565b91506122cd8261228c565b602082019050919050565b600060208201905081810360008301526122f1816122b5565b9050919050565b7f6d657267653a20496e766c616964206361724964000000000000000000000000600082015250565b600061232e601483611bad565b9150612339826122f8565b602082019050919050565b6000602082019050818103600083015261235d81612321565b9050919050565b600061236f826117f5565b915061237a836117f5565b9250828202612388816117f5565b9150828204841483151761239f5761239e611d11565b5b5092915050565b7f6d657267653a204e6f7420656e6f75676820746f6b656e20616d6f756e740000600082015250565b60006123dc601e83611bad565b91506123e7826123a6565b602082019050919050565b6000602082019050818103600083015261240b816123cf565b9050919050565b7f6d657267653a204e6f7420656e6f75676820616c6c6f77616e63656420746f6b60008201527f656e20616d6f756e740000000000000000000000000000000000000000000000602082015250565b600061246e602983611bad565b915061247982612412565b604082019050919050565b6000602082019050818103600083015261249d81612461565b9050919050565b7f6d657267653a206572633230207472616e73666572206661696c656400000000600082015250565b60006124da601c83611bad565b91506124e5826124a4565b602082019050919050565b60006020820190508181036000830152612509816124cd565b9050919050565b600060408201905061252560008301856117ff565b61253260208301846117ff565b9392505050565b7f4f776e61626c653a206e6577206f776e657220697320746865207a65726f206160008201527f6464726573730000000000000000000000000000000000000000000000000000602082015250565b6000612595602683611bad565b91506125a082612539565b604082019050919050565b600060208201905081810360008301526125c481612588565b9050919050565b7f4f776e61626c653a2063616c6c6572206973206e6f7420746865206f776e6572600082015250565b6000612601602083611bad565b915061260c826125cb565b602082019050919050565b60006020820190508181036000830152612630816125f4565b9050919050565b7f5061757361626c653a2070617573656400000000000000000000000000000000600082015250565b600061266d601083611bad565b915061267882612637565b602082019050919050565b6000602082019050818103600083015261269c81612660565b9050919050565b7f5061757361626c653a206e6f7420706175736564000000000000000000000000600082015250565b60006126d9601483611bad565b91506126e4826126a3565b602082019050919050565b60006020820190508181036000830152612708816126cc565b905091905056fea264697066735822122068d17cf286f5d7736b70cb6211967b27e31db6ba9a21c49979e31c4ea07ee84664736f6c63430008130033",
  "immutableReferences": {},
  "source": "// SPDX-License-Identifier: MIT\r\npragma solidity ^0.8.14;\r\n\r\nimport \"@openzeppelin/contracts/token/ERC20/ERC20.sol\";\r\nimport \"@openzeppelin/contracts/access/Ownable.sol\";\r\nimport \"@openzeppelin/contracts/security/Pausable.sol\";\r\n\r\ncontract MimboCircuit is Pausable, Ownable {\r\n    ERC20 public TokenContract_;\r\n    address public TokenRallyHolder_;\r\n    address public TokenMergeHolder_;\r\n\r\n    event Deposit(address indexed from, uint256 rallyNumber);\r\n    event Withdraw(address indexed from, uint256 rallyNumber);\r\n    event Merge(address indexed from, uint256 carId, uint256 mergeCount);\r\n    event Claim(address indexed from, uint256 earnIdx);\r\n\r\n    mapping(address => uint256) public rallyNumbers;\r\n    mapping(address => mapping(uint256 => uint256)) public rallyTokens;\r\n    mapping(uint256 => uint256) public rallyDepositPrices;\r\n    mapping(uint256 => uint256) public mergePrices;\r\n    mapping(uint256 => address) public earns;\r\n\r\n    constructor(address _TokenContract, address _TokenRallyHolder, address _TokenMergeHolder) {\r\n        TokenContract_ = ERC20(_TokenContract);\r\n        TokenRallyHolder_ = _TokenRallyHolder;\r\n        TokenMergeHolder_ = _TokenMergeHolder;\r\n    }\r\n\r\n    function pause() public onlyOwner {\r\n        _pause();\r\n    }\r\n\r\n    function unpause() public onlyOwner {\r\n        _unpause();\r\n    }\r\n\r\n    function setRallyDepositPrices(uint256[] memory _rallyNumber, uint256[] memory _prices) public onlyOwner {\r\n        require(_rallyNumber.length == _prices.length, \"setRallyDepositPrices: numbers and prices are not matched\");\r\n        for (uint256 i = 0; i < _rallyNumber.length; ++i) {\r\n            require(_prices[i] > 0, \"setRallyDepositPrices: Invalid price\");\r\n            rallyDepositPrices[_rallyNumber[i]] = _prices[i];\r\n        }\r\n    }\r\n\r\n    function setMergePrices(uint256[] memory _carIds, uint256[] memory _prices) public onlyOwner {\r\n        require(_carIds.length == _prices.length, \"setMergePrices: carIds and prices are not matched\");\r\n        for (uint256 i = 0; i < _carIds.length; ++i) {\r\n            require(_prices[i] > 0, \"setMergePrices: Invalid price\");\r\n            mergePrices[_carIds[i]] = _prices[i];\r\n        }\r\n    }\r\n\r\n    function deposit(uint256 rallyNumber) public whenNotPaused {\r\n        require(rallyNumbers[msg.sender] + 1 == rallyNumber, \"deposit: Invalid order\");\r\n        require(rallyDepositPrices[rallyNumber] > 0, \"deposit: Invlaid rallyNumber\");\r\n        require(TokenContract_.balanceOf(msg.sender) >= rallyDepositPrices[rallyNumber], \"deposit: Not enough token amount\");\r\n        require(TokenContract_.allowance(msg.sender, address(this)) >= rallyDepositPrices[rallyNumber], \"deposit: Not enough allowanced token amount\");\r\n        require(TokenContract_.transferFrom(msg.sender, TokenRallyHolder_, rallyDepositPrices[rallyNumber]), \"deposit: erc20 transfer failed\");\r\n\r\n        ++rallyNumbers[msg.sender];\r\n        rallyTokens[msg.sender][rallyNumber] = rallyDepositPrices[rallyNumber];\r\n        emit Deposit(msg.sender, rallyNumber);\r\n    }\r\n\r\n    function withdraw(uint256 rallyNumber) public whenNotPaused {\r\n        require(0 < rallyNumber, \"withdraw: Invalid rallyNumber\");\r\n        require(rallyNumbers[msg.sender] == rallyNumber, \"withdraw: Invalid rallyNumber\");\r\n        require(TokenContract_.transferFrom(TokenRallyHolder_, msg.sender, rallyTokens[msg.sender][rallyNumber]), \"withdraw: erc20 transfer failed\");\r\n\r\n        --rallyNumbers[msg.sender];\r\n        rallyTokens[msg.sender][rallyNumber] = 0;\r\n        emit Withdraw(msg.sender, rallyNumber);\r\n    }\r\n\r\n    function merge(uint256 carId, uint256 mergeCount) public whenNotPaused {\r\n        require(mergePrices[carId] > 0, \"merge: Invlaid carId\");\r\n\r\n        uint256 tokenAmount = mergeCount * mergePrices[carId];\r\n\r\n        require(TokenContract_.balanceOf(msg.sender) >= tokenAmount, \"merge: Not enough token amount\");\r\n        require(TokenContract_.allowance(msg.sender, address(this)) >= tokenAmount, \"merge: Not enough allowanced token amount\");\r\n        require(TokenContract_.transferFrom(msg.sender, TokenMergeHolder_, tokenAmount), \"merge: erc20 transfer failed\");\r\n        emit Merge(msg.sender, carId, mergeCount);\r\n    }\r\n\r\n    function claim(uint256 earnIdx) public whenNotPaused {\r\n        earns[earnIdx] = msg.sender;\r\n        emit Claim(msg.sender, earnIdx);\r\n    }\r\n\r\n    function getWithdrawTokens(uint256 rallyNumber) public view returns (uint256 tokenAmount) {\r\n        return rallyTokens[msg.sender][rallyNumber];\r\n    }\r\n}\r\n",
  "sourcePath": "D:\\github\\mimbo_sol\\contracts\\MimboCircuit.sol",
  "compiler": {
    "name": "solc",
    "version": "0.8.19+commit.7dd6d404.Emscripten.clang"
  },
  "schemaVersion": "3.4.13",
  "updatedAt": "2023-07-24T06:36:27.235Z",
  "networkType": "ethereum",
  "devdoc": {
    "events": {
      "Paused(address)": {
        "details": "Emitted when the pause is triggered by `account`."
      },
      "Unpaused(address)": {
        "details": "Emitted when the pause is lifted by `account`."
      }
    },
    "kind": "dev",
    "methods": {
      "owner()": {
        "details": "Returns the address of the current owner."
      },
      "paused()": {
        "details": "Returns true if the contract is paused, and false otherwise."
      },
      "renounceOwnership()": {
        "details": "Leaves the contract without owner. It will not be possible to call `onlyOwner` functions. Can only be called by the current owner. NOTE: Renouncing ownership will leave the contract without an owner, thereby disabling any functionality that is only available to the owner."
      },
      "transferOwnership(address)": {
        "details": "Transfers ownership of the contract to a new account (`newOwner`). Can only be called by the current owner."
      }
    },
    "version": 1
  },
  "userdoc": {
    "kind": "user",
    "methods": {},
    "version": 1
  }
}