{
  "contractName": "MimboToken",
  "abi": [
    {
      "inputs": [],
      "stateMutability": "nonpayable",
      "type": "constructor"
    },
    {
      "anonymous": false,
      "inputs": [
        {
          "indexed": true,
          "internalType": "address",
          "name": "owner",
          "type": "address"
        },
        {
          "indexed": true,
          "internalType": "address",
          "name": "spender",
          "type": "address"
        },
        {
          "indexed": false,
          "internalType": "uint256",
          "name": "value",
          "type": "uint256"
        }
      ],
      "name": "Approval",
      "type": "event"
    },
    {
      "anonymous": false,
      "inputs": [
        {
          "indexed": true,
          "internalType": "address",
          "name": "previousOwner",
          "type": "address"
        },
        {
          "indexed": true,
          "internalType": "address",
          "name": "newOwner",
          "type": "address"
        }
      ],
      "name": "OwnershipTransferred",
      "type": "event"
    },
    {
      "anonymous": false,
      "inputs": [
        {
          "indexed": true,
          "internalType": "address",
          "name": "from",
          "type": "address"
        },
        {
          "indexed": true,
          "internalType": "address",
          "name": "to",
          "type": "address"
        },
        {
          "indexed": false,
          "internalType": "uint256",
          "name": "value",
          "type": "uint256"
        }
      ],
      "name": "Transfer",
      "type": "event"
    },
    {
      "inputs": [],
      "name": "owner",
      "outputs": [
        {
          "internalType": "address",
          "name": "",
          "type": "address"
        }
      ],
      "stateMutability": "view",
      "type": "function",
      "constant": true
    },
    {
      "inputs": [],
      "name": "renounceOwnership",
      "outputs": [],
      "stateMutability": "nonpayable",
      "type": "function"
    },
    {
      "inputs": [
        {
          "internalType": "address",
          "name": "newOwner",
          "type": "address"
        }
      ],
      "name": "transferOwnership",
      "outputs": [],
      "stateMutability": "nonpayable",
      "type": "function"
    },
    {
      "inputs": [],
      "name": "getOwner",
      "outputs": [
        {
          "internalType": "address",
          "name": "",
          "type": "address"
        }
      ],
      "stateMutability": "view",
      "type": "function",
      "constant": true
    },
    {
      "inputs": [],
      "name": "decimals",
      "outputs": [
        {
          "internalType": "uint8",
          "name": "",
          "type": "uint8"
        }
      ],
      "stateMutability": "view",
      "type": "function",
      "constant": true
    },
    {
      "inputs": [],
      "name": "symbol",
      "outputs": [
        {
          "internalType": "string",
          "name": "",
          "type": "string"
        }
      ],
      "stateMutability": "view",
      "type": "function",
      "constant": true
    },
    {
      "inputs": [],
      "name": "name",
      "outputs": [
        {
          "internalType": "string",
          "name": "",
          "type": "string"
        }
      ],
      "stateMutability": "view",
      "type": "function",
      "constant": true
    },
    {
      "inputs": [],
      "name": "totalSupply",
      "outputs": [
        {
          "internalType": "uint256",
          "name": "",
          "type": "uint256"
        }
      ],
      "stateMutability": "view",
      "type": "function",
      "constant": true
    },
    {
      "inputs": [
        {
          "internalType": "address",
          "name": "account",
          "type": "address"
        }
      ],
      "name": "balanceOf",
      "outputs": [
        {
          "internalType": "uint256",
          "name": "",
          "type": "uint256"
        }
      ],
      "stateMutability": "view",
      "type": "function",
      "constant": true
    },
    {
      "inputs": [
        {
          "internalType": "address",
          "name": "recipient",
          "type": "address"
        },
        {
          "internalType": "uint256",
          "name": "amount",
          "type": "uint256"
        }
      ],
      "name": "transfer",
      "outputs": [
        {
          "internalType": "bool",
          "name": "",
          "type": "bool"
        }
      ],
      "stateMutability": "nonpayable",
      "type": "function"
    },
    {
      "inputs": [
        {
          "internalType": "address",
          "name": "owner",
          "type": "address"
        },
        {
          "internalType": "address",
          "name": "spender",
          "type": "address"
        }
      ],
      "name": "allowance",
      "outputs": [
        {
          "internalType": "uint256",
          "name": "",
          "type": "uint256"
        }
      ],
      "stateMutability": "view",
      "type": "function",
      "constant": true
    },
    {
      "inputs": [
        {
          "internalType": "address",
          "name": "spender",
          "type": "address"
        },
        {
          "internalType": "uint256",
          "name": "amount",
          "type": "uint256"
        }
      ],
      "name": "approve",
      "outputs": [
        {
          "internalType": "bool",
          "name": "",
          "type": "bool"
        }
      ],
      "stateMutability": "nonpayable",
      "type": "function"
    },
    {
      "inputs": [
        {
          "internalType": "address",
          "name": "sender",
          "type": "address"
        },
        {
          "internalType": "address",
          "name": "recipient",
          "type": "address"
        },
        {
          "internalType": "uint256",
          "name": "amount",
          "type": "uint256"
        }
      ],
      "name": "transferFrom",
      "outputs": [
        {
          "internalType": "bool",
          "name": "",
          "type": "bool"
        }
      ],
      "stateMutability": "nonpayable",
      "type": "function"
    },
    {
      "inputs": [
        {
          "internalType": "address",
          "name": "spender",
          "type": "address"
        },
        {
          "internalType": "uint256",
          "name": "addedValue",
          "type": "uint256"
        }
      ],
      "name": "increaseAllowance",
      "outputs": [
        {
          "internalType": "bool",
          "name": "",
          "type": "bool"
        }
      ],
      "stateMutability": "nonpayable",
      "type": "function"
    },
    {
      "inputs": [
        {
          "internalType": "address",
          "name": "spender",
          "type": "address"
        },
        {
          "internalType": "uint256",
          "name": "subtractedValue",
          "type": "uint256"
        }
      ],
      "name": "decreaseAllowance",
      "outputs": [
        {
          "internalType": "bool",
          "name": "",
          "type": "bool"
        }
      ],
      "stateMutability": "nonpayable",
      "type": "function"
    }
  ],
  "bytecode": "0x60806040523480156200001157600080fd5b506000620000246200025a60201b60201c565b9050806000806101000a81548173ffffffffffffffffffffffffffffffffffffffff021916908373ffffffffffffffffffffffffffffffffffffffff1602179055508073ffffffffffffffffffffffffffffffffffffffff16600073ffffffffffffffffffffffffffffffffffffffff167f8be0079c531659141344cd1fd0a4f28419497f9722a3daafe3b4186f6b6457e060405160405180910390a3506040518060400160405280600581526020017f4d494d424f00000000000000000000000000000000000000000000000000000081525060069081620001089190620004dc565b506040518060400160405280600581526020017f4d494d424f000000000000000000000000000000000000000000000000000000815250600590816200014f9190620004dc565b506012600460006101000a81548160ff021916908360ff160217905550600460009054906101000a900460ff1660ff16600a6200018d919062000746565b633b9aca006200019e919062000797565b600381905550600354600160003373ffffffffffffffffffffffffffffffffffffffff1673ffffffffffffffffffffffffffffffffffffffff168152602001908152602001600020819055503373ffffffffffffffffffffffffffffffffffffffff16600073ffffffffffffffffffffffffffffffffffffffff167fddf252ad1be2c89b69c2b068fc378daa952ba7f163c4a11628f55a4df523b3ef6003546040516200024c9190620007f3565b60405180910390a362000810565b600033905090565b600081519050919050565b7f4e487b7100000000000000000000000000000000000000000000000000000000600052604160045260246000fd5b7f4e487b7100000000000000000000000000000000000000000000000000000000600052602260045260246000fd5b60006002820490506001821680620002e457607f821691505b602082108103620002fa57620002f96200029c565b5b50919050565b60008190508160005260206000209050919050565b60006020601f8301049050919050565b600082821b905092915050565b600060088302620003647fffffffffffffffffffffffffffffffffffffffffffffffffffffffffffffffff8262000325565b62000370868362000325565b95508019841693508086168417925050509392505050565b6000819050919050565b6000819050919050565b6000620003bd620003b7620003b18462000388565b62000392565b62000388565b9050919050565b6000819050919050565b620003d9836200039c565b620003f1620003e882620003c4565b84845462000332565b825550505050565b600090565b62000408620003f9565b62000415818484620003ce565b505050565b5b818110156200043d5762000431600082620003fe565b6001810190506200041b565b5050565b601f8211156200048c57620004568162000300565b620004618462000315565b8101602085101562000471578190505b62000489620004808562000315565b8301826200041a565b50505b505050565b600082821c905092915050565b6000620004b16000198460080262000491565b1980831691505092915050565b6000620004cc83836200049e565b9150826002028217905092915050565b620004e78262000262565b67ffffffffffffffff8111156200050357620005026200026d565b5b6200050f8254620002cb565b6200051c82828562000441565b600060209050601f8311600181146200055457600084156200053f578287015190505b6200054b8582620004be565b865550620005bb565b601f198416620005648662000300565b60005b828110156200058e5784890151825560018201915060208501945060208101905062000567565b86831015620005ae5784890151620005aa601f8916826200049e565b8355505b6001600288020188555050505b505050505050565b7f4e487b7100000000000000000000000000000000000000000000000000000000600052601160045260246000fd5b60008160011c9050919050565b6000808291508390505b60018511156200065157808604811115620006295762000628620005c3565b5b6001851615620006395780820291505b80810290506200064985620005f2565b945062000609565b94509492505050565b6000826200066c57600190506200073f565b816200067c57600090506200073f565b8160018114620006955760028114620006a057620006d6565b60019150506200073f565b60ff841115620006b557620006b4620005c3565b5b8360020a915084821115620006cf57620006ce620005c3565b5b506200073f565b5060208310610133831016604e8410600b8410161715620007105782820a9050838111156200070a5762000709620005c3565b5b6200073f565b6200071f8484846001620005ff565b92509050818404811115620007395762000738620005c3565b5b81810290505b9392505050565b6000620007538262000388565b9150620007608362000388565b92506200078f7fffffffffffffffffffffffffffffffffffffffffffffffffffffffffffffffff84846200065a565b905092915050565b6000620007a48262000388565b9150620007b18362000388565b9250828202620007c18162000388565b91508282048414831517620007db57620007da620005c3565b5b5092915050565b620007ed8162000388565b82525050565b60006020820190506200080a6000830184620007e2565b92915050565b6118a380620008206000396000f3fe608060405234801561001057600080fd5b50600436106100f55760003560e01c8063715018a611610097578063a457c2d711610066578063a457c2d714610278578063a9059cbb146102a8578063dd62ed3e146102d8578063f2fde38b14610308576100f5565b8063715018a614610214578063893d20e81461021e5780638da5cb5b1461023c57806395d89b411461025a576100f5565b806323b872dd116100d357806323b872dd14610166578063313ce5671461019657806339509351146101b457806370a08231146101e4576100f5565b806306fdde03146100fa578063095ea7b31461011857806318160ddd14610148575b600080fd5b610102610324565b60405161010f91906110d5565b60405180910390f35b610132600480360381019061012d9190611190565b6103b6565b60405161013f91906111eb565b60405180910390f35b6101506103d4565b60405161015d9190611215565b60405180910390f35b610180600480360381019061017b9190611230565b6103de565b60405161018d91906111eb565b60405180910390f35b61019e6104b7565b6040516101ab919061129f565b60405180910390f35b6101ce60048036038101906101c99190611190565b6104ce565b6040516101db91906111eb565b60405180910390f35b6101fe60048036038101906101f991906112ba565b610581565b60405161020b9190611215565b60405180910390f35b61021c6105ca565b005b61022661071d565b60405161023391906112f6565b60405180910390f35b61024461072c565b60405161025191906112f6565b60405180910390f35b610262610755565b60405161026f91906110d5565b60405180910390f35b610292600480360381019061028d9190611190565b6107e7565b60405161029f91906111eb565b60405180910390f35b6102c260048036038101906102bd9190611190565b6108b4565b6040516102cf91906111eb565b60405180910390f35b6102f260048036038101906102ed9190611311565b6108d2565b6040516102ff9190611215565b60405180910390f35b610322600480360381019061031d91906112ba565b610959565b005b60606006805461033390611380565b80601f016020809104026020016040519081016040528092919081815260200182805461035f90611380565b80156103ac5780601f10610381576101008083540402835291602001916103ac565b820191906000526020600020905b81548152906001019060200180831161038f57829003601f168201915b5050505050905090565b60006103ca6103c36109fa565b8484610a02565b6001905092915050565b6000600354905090565b60006103eb848484610bcb565b6104ac846103f76109fa565b6104a7856040518060600160405280602881526020016117fb60289139600260008b73ffffffffffffffffffffffffffffffffffffffff1673ffffffffffffffffffffffffffffffffffffffff168152602001908152602001600020600061045d6109fa565b73ffffffffffffffffffffffffffffffffffffffff1673ffffffffffffffffffffffffffffffffffffffff16815260200190815260200160002054610e579092919063ffffffff16565b610a02565b600190509392505050565b6000600460009054906101000a900460ff16905090565b60006105776104db6109fa565b8461057285600260006104ec6109fa565b73ffffffffffffffffffffffffffffffffffffffff1673ffffffffffffffffffffffffffffffffffffffff16815260200190815260200160002060008973ffffffffffffffffffffffffffffffffffffffff1673ffffffffffffffffffffffffffffffffffffffff16815260200190815260200160002054610ebb90919063ffffffff16565b610a02565b6001905092915050565b6000600160008373ffffffffffffffffffffffffffffffffffffffff1673ffffffffffffffffffffffffffffffffffffffff168152602001908152602001600020549050919050565b6105d26109fa565b73ffffffffffffffffffffffffffffffffffffffff1660008054906101000a900473ffffffffffffffffffffffffffffffffffffffff1673ffffffffffffffffffffffffffffffffffffffff161461065f576040517f08c379a0000000000000000000000000000000000000000000000000000000008152600401610656906113fd565b60405180910390fd5b600073ffffffffffffffffffffffffffffffffffffffff1660008054906101000a900473ffffffffffffffffffffffffffffffffffffffff1673ffffffffffffffffffffffffffffffffffffffff167f8be0079c531659141344cd1fd0a4f28419497f9722a3daafe3b4186f6b6457e060405160405180910390a360008060006101000a81548173ffffffffffffffffffffffffffffffffffffffff021916908373ffffffffffffffffffffffffffffffffffffffff160217905550565b600061072761072c565b905090565b60008060009054906101000a900473ffffffffffffffffffffffffffffffffffffffff16905090565b60606005805461076490611380565b80601f016020809104026020016040519081016040528092919081815260200182805461079090611380565b80156107dd5780601f106107b2576101008083540402835291602001916107dd565b820191906000526020600020905b8154815290600101906020018083116107c057829003601f168201915b5050505050905090565b60006108aa6107f46109fa565b846108a585604051806060016040528060258152602001611849602591396002600061081e6109fa565b73ffffffffffffffffffffffffffffffffffffffff1673ffffffffffffffffffffffffffffffffffffffff16815260200190815260200160002060008a73ffffffffffffffffffffffffffffffffffffffff1673ffffffffffffffffffffffffffffffffffffffff16815260200190815260200160002054610e579092919063ffffffff16565b610a02565b6001905092915050565b60006108c86108c16109fa565b8484610bcb565b6001905092915050565b6000600260008473ffffffffffffffffffffffffffffffffffffffff1673ffffffffffffffffffffffffffffffffffffffff16815260200190815260200160002060008373ffffffffffffffffffffffffffffffffffffffff1673ffffffffffffffffffffffffffffffffffffffff16815260200190815260200160002054905092915050565b6109616109fa565b73ffffffffffffffffffffffffffffffffffffffff1660008054906101000a900473ffffffffffffffffffffffffffffffffffffffff1673ffffffffffffffffffffffffffffffffffffffff16146109ee576040517f08c379a00000000000000000000000000000000000000000000000000000000081526004016109e5906113fd565b60405180910390fd5b6109f781610f19565b50565b600033905090565b600073ffffffffffffffffffffffffffffffffffffffff168373ffffffffffffffffffffffffffffffffffffffff1603610a71576040517f08c379a0000000000000000000000000000000000000000000000000000000008152600401610a689061148f565b60405180910390fd5b600073ffffffffffffffffffffffffffffffffffffffff168273ffffffffffffffffffffffffffffffffffffffff1603610ae0576040517f08c379a0000000000000000000000000000000000000000000000000000000008152600401610ad790611521565b60405180910390fd5b80600260008573ffffffffffffffffffffffffffffffffffffffff1673ffffffffffffffffffffffffffffffffffffffff16815260200190815260200160002060008473ffffffffffffffffffffffffffffffffffffffff1673ffffffffffffffffffffffffffffffffffffffff168152602001908152602001600020819055508173ffffffffffffffffffffffffffffffffffffffff168373ffffffffffffffffffffffffffffffffffffffff167f8c5be1e5ebec7d5bd14f71427d1e84f3dd0314c0f7b2291e5b200ac8c7c3b92583604051610bbe9190611215565b60405180910390a3505050565b600073ffffffffffffffffffffffffffffffffffffffff168373ffffffffffffffffffffffffffffffffffffffff1603610c3a576040517f08c379a0000000000000000000000000000000000000000000000000000000008152600401610c31906115b3565b60405180910390fd5b600073ffffffffffffffffffffffffffffffffffffffff168273ffffffffffffffffffffffffffffffffffffffff1603610ca9576040517f08c379a0000000000000000000000000000000000000000000000000000000008152600401610ca090611645565b60405180910390fd5b610d158160405180606001604052806026815260200161182360269139600160008773ffffffffffffffffffffffffffffffffffffffff1673ffffffffffffffffffffffffffffffffffffffff16815260200190815260200160002054610e579092919063ffffffff16565b600160008573ffffffffffffffffffffffffffffffffffffffff1673ffffffffffffffffffffffffffffffffffffffff16815260200190815260200160002081905550610daa81600160008573ffffffffffffffffffffffffffffffffffffffff1673ffffffffffffffffffffffffffffffffffffffff16815260200190815260200160002054610ebb90919063ffffffff16565b600160008473ffffffffffffffffffffffffffffffffffffffff1673ffffffffffffffffffffffffffffffffffffffff168152602001908152602001600020819055508173ffffffffffffffffffffffffffffffffffffffff168373ffffffffffffffffffffffffffffffffffffffff167fddf252ad1be2c89b69c2b068fc378daa952ba7f163c4a11628f55a4df523b3ef83604051610e4a9190611215565b60405180910390a3505050565b6000838311158290610e9f576040517f08c379a0000000000000000000000000000000000000000000000000000000008152600401610e9691906110d5565b60405180910390fd5b5060008385610eae9190611694565b9050809150509392505050565b6000808284610eca91906116c8565b905083811015610f0f576040517f08c379a0000000000000000000000000000000000000000000000000000000008152600401610f0690611748565b60405180910390fd5b8091505092915050565b600073ffffffffffffffffffffffffffffffffffffffff168173ffffffffffffffffffffffffffffffffffffffff1603610f88576040517f08c379a0000000000000000000000000000000000000000000000000000000008152600401610f7f906117da565b60405180910390fd5b8073ffffffffffffffffffffffffffffffffffffffff1660008054906101000a900473ffffffffffffffffffffffffffffffffffffffff1673ffffffffffffffffffffffffffffffffffffffff167f8be0079c531659141344cd1fd0a4f28419497f9722a3daafe3b4186f6b6457e060405160405180910390a3806000806101000a81548173ffffffffffffffffffffffffffffffffffffffff021916908373ffffffffffffffffffffffffffffffffffffffff16021790555050565b600081519050919050565b600082825260208201905092915050565b60005b8381101561107f578082015181840152602081019050611064565b60008484015250505050565b6000601f19601f8301169050919050565b60006110a782611045565b6110b18185611050565b93506110c1818560208601611061565b6110ca8161108b565b840191505092915050565b600060208201905081810360008301526110ef818461109c565b905092915050565b600080fd5b600073ffffffffffffffffffffffffffffffffffffffff82169050919050565b6000611127826110fc565b9050919050565b6111378161111c565b811461114257600080fd5b50565b6000813590506111548161112e565b92915050565b6000819050919050565b61116d8161115a565b811461117857600080fd5b50565b60008135905061118a81611164565b92915050565b600080604083850312156111a7576111a66110f7565b5b60006111b585828601611145565b92505060206111c68582860161117b565b9150509250929050565b60008115159050919050565b6111e5816111d0565b82525050565b600060208201905061120060008301846111dc565b92915050565b61120f8161115a565b82525050565b600060208201905061122a6000830184611206565b92915050565b600080600060608486031215611249576112486110f7565b5b600061125786828701611145565b935050602061126886828701611145565b92505060406112798682870161117b565b9150509250925092565b600060ff82169050919050565b61129981611283565b82525050565b60006020820190506112b46000830184611290565b92915050565b6000602082840312156112d0576112cf6110f7565b5b60006112de84828501611145565b91505092915050565b6112f08161111c565b82525050565b600060208201905061130b60008301846112e7565b92915050565b60008060408385031215611328576113276110f7565b5b600061133685828601611145565b925050602061134785828601611145565b9150509250929050565b7f4e487b7100000000000000000000000000000000000000000000000000000000600052602260045260246000fd5b6000600282049050600182168061139857607f821691505b6020821081036113ab576113aa611351565b5b50919050565b7f4f776e61626c653a2063616c6c6572206973206e6f7420746865206f776e6572600082015250565b60006113e7602083611050565b91506113f2826113b1565b602082019050919050565b60006020820190508181036000830152611416816113da565b9050919050565b7f42455032303a20617070726f76652066726f6d20746865207a65726f2061646460008201527f7265737300000000000000000000000000000000000000000000000000000000602082015250565b6000611479602483611050565b91506114848261141d565b604082019050919050565b600060208201905081810360008301526114a88161146c565b9050919050565b7f42455032303a20617070726f766520746f20746865207a65726f20616464726560008201527f7373000000000000000000000000000000000000000000000000000000000000602082015250565b600061150b602283611050565b9150611516826114af565b604082019050919050565b6000602082019050818103600083015261153a816114fe565b9050919050565b7f42455032303a207472616e736665722066726f6d20746865207a65726f20616460008201527f6472657373000000000000000000000000000000000000000000000000000000602082015250565b600061159d602583611050565b91506115a882611541565b604082019050919050565b600060208201905081810360008301526115cc81611590565b9050919050565b7f42455032303a207472616e7366657220746f20746865207a65726f206164647260008201527f6573730000000000000000000000000000000000000000000000000000000000602082015250565b600061162f602383611050565b915061163a826115d3565b604082019050919050565b6000602082019050818103600083015261165e81611622565b9050919050565b7f4e487b7100000000000000000000000000000000000000000000000000000000600052601160045260246000fd5b600061169f8261115a565b91506116aa8361115a565b92508282039050818111156116c2576116c1611665565b5b92915050565b60006116d38261115a565b91506116de8361115a565b92508282019050808211156116f6576116f5611665565b5b92915050565b7f536166654d6174683a206164646974696f6e206f766572666c6f770000000000600082015250565b6000611732601b83611050565b915061173d826116fc565b602082019050919050565b6000602082019050818103600083015261176181611725565b9050919050565b7f4f776e61626c653a206e6577206f776e657220697320746865207a65726f206160008201527f6464726573730000000000000000000000000000000000000000000000000000602082015250565b60006117c4602683611050565b91506117cf82611768565b604082019050919050565b600060208201905081810360008301526117f3816117b7565b905091905056fe42455032303a207472616e7366657220616d6f756e74206578636565647320616c6c6f77616e636542455032303a207472616e7366657220616d6f756e7420657863656564732062616c616e636542455032303a2064656372656173656420616c6c6f77616e63652062656c6f77207a65726fa26469706673582212207dd2758091f86fd77168a9c4b807974f886117efebf82f30ad5f20c1b6042fba64736f6c63430008130033",
  "immutableReferences": {},
  "source": "// SPDX-License-Identifier: MIT\r\npragma solidity >0.4.0 <=0.9.0;\r\n\r\ninterface IBEP20 {\r\n  /**\r\n   * @dev Returns the amount of tokens in existence.\r\n   */\r\n  function totalSupply() external view returns (uint256);\r\n\r\n  /**\r\n   * @dev Returns the token decimals.\r\n   */\r\n  function decimals() external view returns (uint8);\r\n\r\n  /**\r\n   * @dev Returns the token symbol.\r\n   */\r\n  function symbol() external view returns (string memory);\r\n\r\n  /**\r\n   * @dev Returns the token name.\r\n   */\r\n  function name() external view returns (string memory);\r\n\r\n  /**\r\n   * @dev Returns the bep token owner.\r\n   */\r\n  function getOwner() external view returns (address);\r\n\r\n  /**\r\n   * @dev Returns the amount of tokens owned by `account`.\r\n   */\r\n  function balanceOf(address account) external view returns (uint256);\r\n\r\n  /**\r\n   * @dev Moves `amount` tokens from the caller's account to `recipient`.\r\n   *\r\n   * Returns a boolean value indicating whether the operation succeeded.\r\n   *\r\n   * Emits a {Transfer} event.\r\n   */\r\n  function transfer(address recipient, uint256 amount) external returns (bool);\r\n\r\n  /**\r\n   * @dev Returns the remaining number of tokens that `spender` will be\r\n   * allowed to spend on behalf of `owner` through {transferFrom}. This is\r\n   * zero by default.\r\n   *\r\n   * This value changes when {approve} or {transferFrom} are called.\r\n   */\r\n  function allowance(\r\n    address _owner,\r\n    address spender\r\n  ) external view returns (uint256);\r\n\r\n  /**\r\n   * @dev Sets `amount` as the allowance of `spender` over the caller's tokens.\r\n   *\r\n   * Returns a boolean value indicating whether the operation succeeded.\r\n   *\r\n   * IMPORTANT: Beware that changing an allowance with this method brings the risk\r\n   * that someone may use both the old and the new allowance by unfortunate\r\n   * transaction ordering. One possible solution to mitigate this race\r\n   * condition is to first reduce the spender's allowance to 0 and set the\r\n   * desired value afterwards:\r\n   * https://github.com/ethereum/EIPs/issues/20#issuecomment-263524729\r\n   *\r\n   * Emits an {Approval} event.\r\n   */\r\n  function approve(address spender, uint256 amount) external returns (bool);\r\n\r\n  /**\r\n   * @dev Moves `amount` tokens from `sender` to `recipient` using the\r\n   * allowance mechanism. `amount` is then deducted from the caller's\r\n   * allowance.\r\n   *\r\n   * Returns a boolean value indicating whether the operation succeeded.\r\n   *\r\n   * Emits a {Transfer} event.\r\n   */\r\n  function transferFrom(\r\n    address sender,\r\n    address recipient,\r\n    uint256 amount\r\n  ) external returns (bool);\r\n\r\n  /**\r\n   * @dev Emitted when `value` tokens are moved from one account (`from`) to\r\n   * another (`to`).\r\n   *\r\n   * Note that `value` may be zero.\r\n   */\r\n  event Transfer(address indexed from, address indexed to, uint256 value);\r\n\r\n  /**\r\n   * @dev Emitted when the allowance of a `spender` for an `owner` is set by\r\n   * a call to {approve}. `value` is the new allowance.\r\n   */\r\n  event Approval(address indexed owner, address indexed spender, uint256 value);\r\n}\r\n\r\n/*\r\n * @dev Provides information about the current execution context, including the\r\n * sender of the transaction and its data. While these are generally available\r\n * via msg.sender and msg.data, they should not be accessed in such a direct\r\n * manner, since when dealing with GSN meta-transactions the account sending and\r\n * paying for execution may not be the actual sender (as far as an application\r\n * is concerned).\r\n *\r\n * This contract is only required for intermediate, library-like contracts.\r\n */\r\ncontract Context {\r\n  // Empty internal constructor, to prevent people from mistakenly deploying\r\n  // an instance of this contract, which should be used via inheritance.\r\n  constructor() {}\r\n\r\n  function _msgSender() internal view returns (address) {\r\n    return msg.sender;\r\n  }\r\n\r\n  function _msgData() internal view returns (bytes memory) {\r\n    this; // silence state mutability warning without generating bytecode - see https://github.com/ethereum/solidity/issues/2691\r\n    return msg.data;\r\n  }\r\n}\r\n\r\n/**\r\n * @dev Wrappers over Solidity's arithmetic operations with added overflow\r\n * checks.\r\n *\r\n * Arithmetic operations in Solidity wrap on overflow. This can easily result\r\n * in bugs, because programmers usually assume that an overflow raises an\r\n * error, which is the standard behavior in high level programming languages.\r\n * `SafeMath` restores this intuition by reverting the transaction when an\r\n * operation overflows.\r\n *\r\n * Using this library instead of the unchecked operations eliminates an entire\r\n * class of bugs, so it's recommended to use it always.\r\n */\r\nlibrary SafeMath {\r\n  /**\r\n   * @dev Returns the addition of two unsigned integers, reverting on\r\n   * overflow.\r\n   *\r\n   * Counterpart to Solidity's `+` operator.\r\n   *\r\n   * Requirements:\r\n   * - Addition cannot overflow.\r\n   */\r\n  function add(uint256 a, uint256 b) internal pure returns (uint256) {\r\n    uint256 c = a + b;\r\n    require(c >= a, \"SafeMath: addition overflow\");\r\n\r\n    return c;\r\n  }\r\n\r\n  /**\r\n   * @dev Returns the subtraction of two unsigned integers, reverting on\r\n   * overflow (when the result is negative).\r\n   *\r\n   * Counterpart to Solidity's `-` operator.\r\n   *\r\n   * Requirements:\r\n   * - Subtraction cannot overflow.\r\n   */\r\n  function sub(uint256 a, uint256 b) internal pure returns (uint256) {\r\n    return sub(a, b, \"SafeMath: subtraction overflow\");\r\n  }\r\n\r\n  /**\r\n   * @dev Returns the subtraction of two unsigned integers, reverting with custom message on\r\n   * overflow (when the result is negative).\r\n   *\r\n   * Counterpart to Solidity's `-` operator.\r\n   *\r\n   * Requirements:\r\n   * - Subtraction cannot overflow.\r\n   */\r\n  function sub(\r\n    uint256 a,\r\n    uint256 b,\r\n    string memory errorMessage\r\n  ) internal pure returns (uint256) {\r\n    require(b <= a, errorMessage);\r\n    uint256 c = a - b;\r\n\r\n    return c;\r\n  }\r\n\r\n  /**\r\n   * @dev Returns the multiplication of two unsigned integers, reverting on\r\n   * overflow.\r\n   *\r\n   * Counterpart to Solidity's `*` operator.\r\n   *\r\n   * Requirements:\r\n   * - Multiplication cannot overflow.\r\n   */\r\n  function mul(uint256 a, uint256 b) internal pure returns (uint256) {\r\n    // Gas optimization: this is cheaper than requiring 'a' not being zero, but the\r\n    // benefit is lost if 'b' is also tested.\r\n    // See: https://github.com/OpenZeppelin/openzeppelin-contracts/pull/522\r\n    if (a == 0) {\r\n      return 0;\r\n    }\r\n\r\n    uint256 c = a * b;\r\n    require(c / a == b, \"SafeMath: multiplication overflow\");\r\n\r\n    return c;\r\n  }\r\n\r\n  /**\r\n   * @dev Returns the integer division of two unsigned integers. Reverts on\r\n   * division by zero. The result is rounded towards zero.\r\n   *\r\n   * Counterpart to Solidity's `/` operator. Note: this function uses a\r\n   * `revert` opcode (which leaves remaining gas untouched) while Solidity\r\n   * uses an invalid opcode to revert (consuming all remaining gas).\r\n   *\r\n   * Requirements:\r\n   * - The divisor cannot be zero.\r\n   */\r\n  function div(uint256 a, uint256 b) internal pure returns (uint256) {\r\n    return div(a, b, \"SafeMath: division by zero\");\r\n  }\r\n\r\n  /**\r\n   * @dev Returns the integer division of two unsigned integers. Reverts with custom message on\r\n   * division by zero. The result is rounded towards zero.\r\n   *\r\n   * Counterpart to Solidity's `/` operator. Note: this function uses a\r\n   * `revert` opcode (which leaves remaining gas untouched) while Solidity\r\n   * uses an invalid opcode to revert (consuming all remaining gas).\r\n   *\r\n   * Requirements:\r\n   * - The divisor cannot be zero.\r\n   */\r\n  function div(\r\n    uint256 a,\r\n    uint256 b,\r\n    string memory errorMessage\r\n  ) internal pure returns (uint256) {\r\n    // Solidity only automatically asserts when dividing by 0\r\n    require(b > 0, errorMessage);\r\n    uint256 c = a / b;\r\n    // assert(a == b * c + a % b); // There is no case in which this doesn't hold\r\n\r\n    return c;\r\n  }\r\n\r\n  /**\r\n   * @dev Returns the remainder of dividing two unsigned integers. (unsigned integer modulo),\r\n   * Reverts when dividing by zero.\r\n   *\r\n   * Counterpart to Solidity's `%` operator. This function uses a `revert`\r\n   * opcode (which leaves remaining gas untouched) while Solidity uses an\r\n   * invalid opcode to revert (consuming all remaining gas).\r\n   *\r\n   * Requirements:\r\n   * - The divisor cannot be zero.\r\n   */\r\n  function mod(uint256 a, uint256 b) internal pure returns (uint256) {\r\n    return mod(a, b, \"SafeMath: modulo by zero\");\r\n  }\r\n\r\n  /**\r\n   * @dev Returns the remainder of dividing two unsigned integers. (unsigned integer modulo),\r\n   * Reverts with custom message when dividing by zero.\r\n   *\r\n   * Counterpart to Solidity's `%` operator. This function uses a `revert`\r\n   * opcode (which leaves remaining gas untouched) while Solidity uses an\r\n   * invalid opcode to revert (consuming all remaining gas).\r\n   *\r\n   * Requirements:\r\n   * - The divisor cannot be zero.\r\n   */\r\n  function mod(\r\n    uint256 a,\r\n    uint256 b,\r\n    string memory errorMessage\r\n  ) internal pure returns (uint256) {\r\n    require(b != 0, errorMessage);\r\n    return a % b;\r\n  }\r\n}\r\n\r\n/**\r\n * @dev Contract module which provides a basic access control mechanism, where\r\n * there is an account (an owner) that can be granted exclusive access to\r\n * specific functions.\r\n *\r\n * By default, the owner account will be the one that deploys the contract. This\r\n * can later be changed with {transferOwnership}.\r\n *\r\n * This module is used through inheritance. It will make available the modifier\r\n * `onlyOwner`, which can be applied to your functions to restrict their use to\r\n * the owner.\r\n */\r\ncontract Ownable is Context {\r\n  address private _owner;\r\n\r\n  event OwnershipTransferred(\r\n    address indexed previousOwner,\r\n    address indexed newOwner\r\n  );\r\n\r\n  /**\r\n   * @dev Initializes the contract setting the deployer as the initial owner.\r\n   */\r\n  constructor() {\r\n    address msgSender = _msgSender();\r\n    _owner = msgSender;\r\n    emit OwnershipTransferred(address(0), msgSender);\r\n  }\r\n\r\n  /**\r\n   * @dev Returns the address of the current owner.\r\n   */\r\n  function owner() public view returns (address) {\r\n    return _owner;\r\n  }\r\n\r\n  /**\r\n   * @dev Throws if called by any account other than the owner.\r\n   */\r\n  modifier onlyOwner() {\r\n    require(_owner == _msgSender(), \"Ownable: caller is not the owner\");\r\n    _;\r\n  }\r\n\r\n  /**\r\n   * @dev Leaves the contract without owner. It will not be possible to call\r\n   * `onlyOwner` functions anymore. Can only be called by the current owner.\r\n   *\r\n   * NOTE: Renouncing ownership will leave the contract without an owner,\r\n   * thereby removing any functionality that is only available to the owner.\r\n   */\r\n  function renounceOwnership() public onlyOwner {\r\n    emit OwnershipTransferred(_owner, address(0));\r\n    _owner = address(0);\r\n  }\r\n\r\n  /**\r\n   * @dev Transfers ownership of the contract to a new account (`newOwner`).\r\n   * Can only be called by the current owner.\r\n   */\r\n  function transferOwnership(address newOwner) public onlyOwner {\r\n    _transferOwnership(newOwner);\r\n  }\r\n\r\n  /**\r\n   * @dev Transfers ownership of the contract to a new account (`newOwner`).\r\n   */\r\n  function _transferOwnership(address newOwner) internal {\r\n    require(newOwner != address(0), \"Ownable: new owner is the zero address\");\r\n    emit OwnershipTransferred(_owner, newOwner);\r\n    _owner = newOwner;\r\n  }\r\n}\r\n\r\ncontract MimboToken is Context, IBEP20, Ownable {\r\n  using SafeMath for uint256;\r\n\r\n  mapping(address => uint256) private _balances;\r\n\r\n  mapping(address => mapping(address => uint256)) private _allowances;\r\n\r\n  uint256 private _totalSupply;\r\n  uint8 private _decimals;\r\n  string private _symbol;\r\n  string private _name;\r\n\r\n  constructor() {\r\n    _name = \"MIMBO\";\r\n    _symbol = \"MIMBO\";\r\n    _decimals = 18;\r\n    _totalSupply = 1 * 1e9 * (10 ** uint256(_decimals));\r\n    _balances[msg.sender] = _totalSupply;\r\n\r\n    emit Transfer(address(0), msg.sender, _totalSupply);\r\n  }\r\n\r\n  /**\r\n   * @dev Returns the bep token owner.\r\n   */\r\n  function getOwner() external view returns (address) {\r\n    return owner();\r\n  }\r\n\r\n  /**\r\n   * @dev Returns the token decimals.\r\n   */\r\n  function decimals() external view returns (uint8) {\r\n    return _decimals;\r\n  }\r\n\r\n  /**\r\n   * @dev Returns the token symbol.\r\n   */\r\n  function symbol() external view returns (string memory) {\r\n    return _symbol;\r\n  }\r\n\r\n  /**\r\n   * @dev Returns the token name.\r\n   */\r\n  function name() external view returns (string memory) {\r\n    return _name;\r\n  }\r\n\r\n  /**\r\n   * @dev See {BEP20-totalSupply}.\r\n   */\r\n  function totalSupply() external view returns (uint256) {\r\n    return _totalSupply;\r\n  }\r\n\r\n  /**\r\n   * @dev See {BEP20-balanceOf}.\r\n   */\r\n  function balanceOf(address account) external view returns (uint256) {\r\n    return _balances[account];\r\n  }\r\n\r\n  /**\r\n   * @dev See {BEP20-transfer}.\r\n   *\r\n   * Requirements:\r\n   *\r\n   * - `recipient` cannot be the zero address.\r\n   * - the caller must have a balance of at least `amount`.\r\n   */\r\n  function transfer(address recipient, uint256 amount) external returns (bool) {\r\n    _transfer(_msgSender(), recipient, amount);\r\n    return true;\r\n  }\r\n\r\n  /**\r\n   * @dev See {BEP20-allowance}.\r\n   */\r\n  function allowance(\r\n    address owner,\r\n    address spender\r\n  ) external view returns (uint256) {\r\n    return _allowances[owner][spender];\r\n  }\r\n\r\n  /**\r\n   * @dev See {BEP20-approve}.\r\n   *\r\n   * Requirements:\r\n   *\r\n   * - `spender` cannot be the zero address.\r\n   */\r\n  function approve(address spender, uint256 amount) external returns (bool) {\r\n    _approve(_msgSender(), spender, amount);\r\n    return true;\r\n  }\r\n\r\n  /**\r\n   * @dev See {BEP20-transferFrom}.\r\n   *\r\n   * Emits an {Approval} event indicating the updated allowance. This is not\r\n   * required by the EIP. See the note at the beginning of {BEP20};\r\n   *\r\n   * Requirements:\r\n   * - `sender` and `recipient` cannot be the zero address.\r\n   * - `sender` must have a balance of at least `amount`.\r\n   * - the caller must have allowance for `sender`'s tokens of at least\r\n   * `amount`.\r\n   */\r\n  function transferFrom(\r\n    address sender,\r\n    address recipient,\r\n    uint256 amount\r\n  ) external returns (bool) {\r\n    _transfer(sender, recipient, amount);\r\n    _approve(\r\n      sender,\r\n      _msgSender(),\r\n      _allowances[sender][_msgSender()].sub(\r\n        amount,\r\n        \"BEP20: transfer amount exceeds allowance\"\r\n      )\r\n    );\r\n    return true;\r\n  }\r\n\r\n  /**\r\n   * @dev Atomically increases the allowance granted to `spender` by the caller.\r\n   *\r\n   * This is an alternative to {approve} that can be used as a mitigation for\r\n   * problems described in {BEP20-approve}.\r\n   *\r\n   * Emits an {Approval} event indicating the updated allowance.\r\n   *\r\n   * Requirements:\r\n   *\r\n   * - `spender` cannot be the zero address.\r\n   */\r\n  function increaseAllowance(\r\n    address spender,\r\n    uint256 addedValue\r\n  ) public returns (bool) {\r\n    _approve(\r\n      _msgSender(),\r\n      spender,\r\n      _allowances[_msgSender()][spender].add(addedValue)\r\n    );\r\n    return true;\r\n  }\r\n\r\n  /**\r\n   * @dev Atomically decreases the allowance granted to `spender` by the caller.\r\n   *\r\n   * This is an alternative to {approve} that can be used as a mitigation for\r\n   * problems described in {BEP20-approve}.\r\n   *\r\n   * Emits an {Approval} event indicating the updated allowance.\r\n   *\r\n   * Requirements:\r\n   *\r\n   * - `spender` cannot be the zero address.\r\n   * - `spender` must have allowance for the caller of at least\r\n   * `subtractedValue`.\r\n   */\r\n  function decreaseAllowance(\r\n    address spender,\r\n    uint256 subtractedValue\r\n  ) public returns (bool) {\r\n    _approve(\r\n      _msgSender(),\r\n      spender,\r\n      _allowances[_msgSender()][spender].sub(\r\n        subtractedValue,\r\n        \"BEP20: decreased allowance below zero\"\r\n      )\r\n    );\r\n    return true;\r\n  }\r\n\r\n  /**\r\n   * @dev Moves tokens `amount` from `sender` to `recipient`.\r\n   *\r\n   * This is internal function is equivalent to {transfer}, and can be used to\r\n   * e.g. implement automatic token fees, slashing mechanisms, etc.\r\n   *\r\n   * Emits a {Transfer} event.\r\n   *\r\n   * Requirements:\r\n   *\r\n   * - `sender` cannot be the zero address.\r\n   * - `recipient` cannot be the zero address.\r\n   * - `sender` must have a balance of at least `amount`.\r\n   */\r\n  function _transfer(\r\n    address sender,\r\n    address recipient,\r\n    uint256 amount\r\n  ) internal {\r\n    require(sender != address(0), \"BEP20: transfer from the zero address\");\r\n    require(recipient != address(0), \"BEP20: transfer to the zero address\");\r\n\r\n    _balances[sender] = _balances[sender].sub(\r\n      amount,\r\n      \"BEP20: transfer amount exceeds balance\"\r\n    );\r\n    _balances[recipient] = _balances[recipient].add(amount);\r\n    emit Transfer(sender, recipient, amount);\r\n  }\r\n\r\n  /**\r\n   * @dev Sets `amount` as the allowance of `spender` over the `owner`s tokens.\r\n   *\r\n   * This is internal function is equivalent to `approve`, and can be used to\r\n   * e.g. set automatic allowances for certain subsystems, etc.\r\n   *\r\n   * Emits an {Approval} event.\r\n   *\r\n   * Requirements:\r\n   *\r\n   * - `owner` cannot be the zero address.\r\n   * - `spender` cannot be the zero address.\r\n   */\r\n  function _approve(address owner, address spender, uint256 amount) internal {\r\n    require(owner != address(0), \"BEP20: approve from the zero address\");\r\n    require(spender != address(0), \"BEP20: approve to the zero address\");\r\n\r\n    _allowances[owner][spender] = amount;\r\n    emit Approval(owner, spender, amount);\r\n  }\r\n}\r\n",
  "sourcePath": "D:\\github\\mimbo_sol\\contracts\\MimboToken.sol",
  "compiler": {
    "name": "solc",
    "version": "0.8.19+commit.7dd6d404.Emscripten.clang"
  },
  "schemaVersion": "3.4.13",
  "updatedAt": "2023-06-15T05:19:14.773Z",
  "networkType": "ethereum",
  "devdoc": {
    "events": {
      "Approval(address,address,uint256)": {
        "details": "Emitted when the allowance of a `spender` for an `owner` is set by a call to {approve}. `value` is the new allowance."
      },
      "Transfer(address,address,uint256)": {
        "details": "Emitted when `value` tokens are moved from one account (`from`) to another (`to`). Note that `value` may be zero."
      }
    },
    "kind": "dev",
    "methods": {
      "allowance(address,address)": {
        "details": "See {BEP20-allowance}."
      },
      "approve(address,uint256)": {
        "details": "See {BEP20-approve}. Requirements: - `spender` cannot be the zero address."
      },
      "balanceOf(address)": {
        "details": "See {BEP20-balanceOf}."
      },
      "decimals()": {
        "details": "Returns the token decimals."
      },
      "decreaseAllowance(address,uint256)": {
        "details": "Atomically decreases the allowance granted to `spender` by the caller. This is an alternative to {approve} that can be used as a mitigation for problems described in {BEP20-approve}. Emits an {Approval} event indicating the updated allowance. Requirements: - `spender` cannot be the zero address. - `spender` must have allowance for the caller of at least `subtractedValue`."
      },
      "getOwner()": {
        "details": "Returns the bep token owner."
      },
      "increaseAllowance(address,uint256)": {
        "details": "Atomically increases the allowance granted to `spender` by the caller. This is an alternative to {approve} that can be used as a mitigation for problems described in {BEP20-approve}. Emits an {Approval} event indicating the updated allowance. Requirements: - `spender` cannot be the zero address."
      },
      "name()": {
        "details": "Returns the token name."
      },
      "owner()": {
        "details": "Returns the address of the current owner."
      },
      "renounceOwnership()": {
        "details": "Leaves the contract without owner. It will not be possible to call `onlyOwner` functions anymore. Can only be called by the current owner. NOTE: Renouncing ownership will leave the contract without an owner, thereby removing any functionality that is only available to the owner."
      },
      "symbol()": {
        "details": "Returns the token symbol."
      },
      "totalSupply()": {
        "details": "See {BEP20-totalSupply}."
      },
      "transfer(address,uint256)": {
        "details": "See {BEP20-transfer}. Requirements: - `recipient` cannot be the zero address. - the caller must have a balance of at least `amount`."
      },
      "transferFrom(address,address,uint256)": {
        "details": "See {BEP20-transferFrom}. Emits an {Approval} event indicating the updated allowance. This is not required by the EIP. See the note at the beginning of {BEP20}; Requirements: - `sender` and `recipient` cannot be the zero address. - `sender` must have a balance of at least `amount`. - the caller must have allowance for `sender`'s tokens of at least `amount`."
      },
      "transferOwnership(address)": {
        "details": "Transfers ownership of the contract to a new account (`newOwner`). Can only be called by the current owner."
      }
    },
    "version": 1
  },
  "userdoc": {
    "kind": "user",
    "methods": {},
    "version": 1
  }
}